:1000000003C1000032C1000030C100002EC1000059
:100010002CC100002AC1000028C1000026C1000038
:1000200024C1000022C1000020C100001EC1000048
:100030001CC100001AC1000018C1000016C1000058
:1000400014C1000012C1000010C100000EC1000068
:100050000CC100000AC1000008C100000C94CE31A0
:1000600004C100000C949E340C94D434FEC00000F3
:10007000FCC00000FAC00000F8C00000F6C000009C
:10008000F4C00000F2C00000F0C00000EEC00000AC
:100090000C942A350C946035E8C000000C94AD3007
:1000A000E4C00000E2C00000E0C00000DEC00000CC
:1000B000DCC00000DAC00000D8C00000D6C00000DC
:1000C000D4C00000D2C000000C9479280C94B6353E
:1000D0000C94EC35CAC000000C9442360C9478366F
:1000E000C4C00000084AD73B3BCE016E84BCBFFDB4
:1000F000C12F3D6C74319ABD56833DDA3D00C77FF8
:1001000011BED9E4BB4C3E916BAAAABE0000008090
:100110003F0000000A0B02090C0D0E080703040142
:1001200000000000000000000000000000000000CF
:10013000000000000000000000000000000012119C
:10014000100000000000000000000000000000009F
:10015000000000000000000001021020200808102C
:100160002040102040800201020108040201010227
:100170000408102040808040201008040201800400
:10018000020180402010080402010804020101025B
:10019000040810204080010204081020408005055A
:1001A0000505070508080808020202020A0A0808ED
:1001B000040404040101010101010101030303031B
:1001C00003030303040707070C0C0C0C0C0C0C0CAA
:1001D0000202020206060606060606060B0B0B0BBB
:1001E0000B0B0B0B00002200250028002B002E001B
:1001F0003100340002010000050108010B01182E36
:10020000FD3489351536A13611241FBECFEFD1E25A
:10021000DEBFCDBF00E00CBF12E0A0E0B2E0EAEC30
:10022000FEE600E00BBF02C007900D92A63FB107AB
:10023000D9F729E0A6EFB2E001C01D92A930B207BC
:10024000E1F710E0C4E0D1E000E006C02197010929
:10025000802FFE010E943237CF3FD10780E0080790
:10026000A9F70E949C290C946337CACECF92DF92E3
:10027000EF92FF926B017C01C114D104E104F104FF
:1002800069F480910002811109C08091020290916D
:1002900003020E94892D81E080930002C601880F2D
:1002A000991F880F991F80509E4FFF90EF90DF900D
:1002B000CF900895009781F0FC012181211104C0A5
:1002C00040EA56E861E070E0FC01828193810E947F
:1002D000982D90E080E0089588E090E008954F9296
:1002E0005F926F927F928F929F92AF92BF92CF92C6
:1002F000DF92EF92FF920F931F93CF93DF930097BC
:10030000C9F1280139017A01EC01402F8A819B81D2
:100310000E94162E8A819B81DC01ED91FC91008464
:10032000F185E02D1995892B01F16701812C912C24
:1003300054018A819B81DC01ED91FC910084F1855F
:10034000E02D1995892B91F184149504A604B70426
:1003500069F18A819B81DC01ED91FC910284F38536
:10036000E02D19958F3F9807C1F484E0F7011192B1
:100370008A95E9F788E090E0DF91CF911F910F9186
:10038000FF90EF90DF90CF90BF90AF909F908F90B5
:100390007F906F905F904F900895FFEF8F1A9F0AA4
:1003A000AF0ABF0AD6018D936D01C3CF90E080E004
:1003B000E3CF8F929F92AF92BF92CF92DF92EF9254
:1003C0000F931F93CF93DF930097F1F06A01EC0135
:1003D0008A819B810E949B2D8A819B81DC01ED910A
:1003E000FC910280F381E02DA801B60119958A8164
:1003F0009B8160E0E11001C061E00E94A52D88238F
:1004000089F08250823088F088E090E0DF91CF91CF
:100410001F910F91EF90DF90CF90BF90AF909F9082
:100420008F90089590E080E0F1CF84E090E0EECFEF
:1004300008958130910571F01CF4892B39F00895ED
:100440008230910551F0039759F008958CE496E0BD
:100450000C943E3489EE96E0FBCF86E897E0F8CF27
:1004600083E298E0F5CF8F929F92AF92BF92CF92A6
:10047000DF92EF92FF926B017C010E9418324B01D8
:100480005C010E941832681979098A099B09C6160D
:10049000D706E806F906A8F7FF90EF90DF90CF9017
:1004A000BF90AF909F908F9008950C94183290E079
:1004B00080E008950F931F93009709F489C0611598
:1004C000710509F485C0009128021091290220913C
:1004D0002A0230912B020E3F1F4F2F4F3F4F09F042
:1004E00068C04FEF5FEFBA01409328025093290292
:1004F00060932A0270932B024091280250912902A6
:1005000060912A0270912B02DC011296ED91FC9110
:1005100080819181A281B38180936403909365036C
:10052000A0936603B093670384819581A681B78108
:100530008093600390936103A0936203B09363037D
:1005400080859185A285B38580935C0390935D033C
:10055000A0935E03B0935F0384859585A685B785D8
:100560008093580390935903A0935A03B0935B036D
:100570001092540310925503109256031092570391
:100580000E94780C8DE99CE09093F7028093F6022C
:100590009093F9028093F8020E94670B009731F460
:1005A00021E030E030936903209368031F910F919D
:1005B0000895009128021091290220912A02309179
:1005C0002B02DB010D931D932D933C93139794CF36
:1005D0008FEF9FEFEBCF8F929F92AF92BF92CF9210
:1005E000DF92EF92FF921F93CF93DF934B015C0159
:1005F00010916B0382E090E090936903809368030D
:1006000081149104A104B10441F480916B03811120
:1006100004C080916A03C1E08111C0E0C12CD12CDB
:10062000760180916B03811106C080916A0381116C
:1006300002C0CC23D9F083E090E0909369038093CB
:100640006803CC2381F1CCE9DFEF111102C00E94D5
:100650000110CE01DF91CF911F91FF90EF90DF90BD
:10066000CF90BF90AF909F908F9008956AE070E018
:1006700080E090E00E94493280E1C80E87E2D81EF7
:10068000E11CF11C8FEF88169806A806B80631F019
:10069000C1E08C149D04AE04BF0408F0C0E080E00B
:1006A0000E949B0BBECFD0E0C0E0CFCFCF92DF92B5
:1006B000EF92FF920F931F93CF93DF938F3F91059C
:1006C00011F008F050C02091680330916903233085
:1006D000310539F0209168033091690321303105EB
:1006E00031F424E030E030936903209368036A0119
:1006F0007B01EC0182309105A0F011E0AE01C70151
:10070000B601E4D7AB01BC01CE011123F9F0DF91B2
:10071000CF911F910F91FF90EF90DF90CF900C94AD
:100720002A128C01000F111F0A501D4FD8018D9104
:100730009C91892B11F30E9434120297F1F6D80193
:10074000ED91FC91CE011995182FD8CF0E944C1233
:1007500090E080E0DF91CF911F910F91FF90EF909B
:10076000DF90CF9008958FEF9FEFF4CF80E0E3C745
:10077000CF93DF9386E090E09093690380936803C2
:100780000E94F40BEC01E6EFF2E084E0DF011D9241
:100790008A95E9F70E94990F1092690310926803F5
:1007A000CE01DF91CF91089580916A0308958091E1
:1007B00053030895609328027093290280932A02BC
:1007C00090932B0290E080E008958F929F92AF92D9
:1007D000BF92CF92DF92EF92FF92CF93DF936B01A4
:1007E0007C0149015A0170D6882399F06091FB0879
:1007F0007091FC088091FD089091FE08DF91CF91E7
:10080000FF90EF90DF90CF90BF90AF909F908F9030
:100810000895C501B40158D68111E8CFC701B601CA
:100820000ED68823D9F1C501B40109D68823B1F1C8
:1008300020E030E0A901C701B6010E94592CCFEF9A
:10084000DFEF181614F4C1E0D0E020E030E0A90199
:10085000C501B4010E94592C6FEF7FEF181614F4F4
:1008600061E070E0072E000C880B990B0E94842B2E
:100870006B017C01BE01DD0F880B990B0E94842B5C
:10088000A7019601DF91CF91FF90EF90DF90CF907D
:10089000BF90AF909F908F900C94992A20E030E009
:1008A000A901C501B4010E94EC2A811116C020E003
:1008B00030E0A901C701B6010E94592C181694F026
:1008C00020E030E0A901C701B6010E94EC2A87FDB3
:1008D0000EC060E070E0CB0191CFA5019401C7018B
:1008E000B601D0CF6BED7FE089EC9FE387CF6BED56
:1008F0007FE089EC9FEB82CF4F925F926F927F9265
:100900008F929F92AF92BF92CF92DF92EF92FF921F
:100910000F931F93CF93DF93CDB7DEB761970FB6D9
:10092000F894DEBF0FBECDBFC0900802D090090280
:10093000E0900A02F0900B02A70196016091C608B0
:100940007091C7088091C8089091C9080E94EC2A4C
:10095000882341F0C092C608D092C708E092C80828
:10096000F092C9088091CA08811104C09EDD81E01F
:100970008093CA081092DB088BE38D87C12CEE248C
:10098000E39401E010E020E030E0AE01435F5F4F10
:1009900068E670E08091D0089091D1080ADD882344
:1009A00089F01F82188619861A861B861C869091EC
:1009B000DC08911182C09091DB0891111DC08093D9
:1009C000DB081AC0CC24C394E12C06E010E020E040
:1009D00030E0AE014F5F5F4F68E670E08091D00875
:1009E0009091D1087CDC86E0FE013196DE011796FD
:1009F00001900D928A95E1F78091DD08412C512CF0
:100A0000320153014201811132C06F81788576270E
:100A100067277627072E000C880B990B0E94842BE2
:100A20002AE038EE4CE151E40E94642C20E030E0F2
:100A300040E858E30E94642C4B015C016B857C8587
:100A4000762767277627072E000C880B990B0E94C4
:100A5000842B2AE038EE4CE151E40E94642C20E023
:100A600030E040E858E30E94642C2B013C0183E411
:100A70008D87C12CEE24E39401E010E020E030E00B
:100A8000AE01435F5F4F68E670E08091D0089091BF
:100A9000D1088FDC8823A9F01F82188619861A8650
:100AA0001B861C869091DC08911136C19091DB0861
:100AB000911121C08093DB081EC081E08093DD0886
:100AC0009BCFCC24C394E12C06E010E020E030E082
:100AD000AE014F5F5F4F68E670E08091D008909163
:100AE000D108FDDB86E0FE013196DE01179601900C
:100AF0000D928A95E1F78091DD08811111C16F8116
:100B00007885762767277627072E000C880B990BA8
:100B10000E94842B20E030E04AEF5BE30E94642CCB
:100B2000C0900402D0900502E0900602F090070207
:100B300020910C0230910D0240910E0250910F0253
:100B40000E94252A20911002309111024091120238
:100B5000509113020E94642C2091DE083091DF082E
:100B60004091E0085091E1080E94262AA7019601D1
:100B70000E94642C6E877F87888B998BA3019201DA
:100B8000C501B40122DE4B015C01A701960160E0C2
:100B900070E080E89FE30E94252AA50194010E944D
:100BA000642C2E853F85488959890E94262A6093A6
:100BB000DE087093DF088093E0089093E1082091AD
:100BC00018023091190240911A0250911B020E94A2
:100BD000262A20911C0230911D0240911E02509144
:100BE0001F020E94642C6B017C01C092E708D09226
:100BF000E808E092E908F092EA08809020029090DC
:100C00002102A0902202B0902302A50194010E942B
:100C1000592C18160CF088C08092EB089092EC08C2
:100C2000A092ED08B092EE08C0902603D090270362
:100C3000E0902803F09029038FEFC81AD80AE80A39
:100C4000F80AC0922603D0922703E0922803F0927C
:100C50002903C114D104E104F10499F480912A0319
:100C600090912B03A0912C03B0912D030196A11D0F
:100C7000B11D80932A0390932B03A0932C03B09370
:100C80002D0380902E0390902F03A0903003B090FE
:100C9000310360912A0370912B0380912C03909172
:100CA0002D030E94822BA50194010E94642C20E058
:100CB00030E040E85FE40E94642C2B013C01C70156
:100CC000B6010E94822BA50194010E94642C9B0115
:100CD000AC01C301B2010E94262A609322037093E3
:100CE0002303809324039093250361960FB6F89411
:100CF000DEBF0FBECDBFDF91CF911F910F91FF904F
:100D0000EF90DF90CF90BF90AF909F908F907F90AB
:100D10006F905F904F90089581E08093DD08EBCE57
:100D200060E070E0CB01FCCE809024029090250220
:100D3000A0902602B0902702A5019401C701B60138
:100D40000E94EC2A87FD68CFC092EB08D092EC0895
:100D5000E092ED08F092EE0867CFCF92EF92FF920B
:100D60000F931F93CF93DF9300D01F921F92CDB7A5
:100D7000DEB784E090E02CD3ECE0F3E08BE2DF011F
:100D80001D928A95E9F780E090E0A0E8BFEB8093A0
:100D9000320390933303A0933403B09335038DEC67
:100DA0009CECACE4BDE380932E0390932F03A093BF
:100DB0003003B09331038EE496E0A4E7B7E6809366
:100DC000100390931103A0931203B093130385E2D1
:100DD0009DEFA8EDB3E28093140390931503A093C5
:100DE0001603B093170385ED9EEBA4E9B4E080935E
:100DF000180390931903A0931A03B0931B038CE379
:100E000094EEA1E6B6E380931C0390931D03A09398
:100E10001E03B0931F0380E093E090930F03809331
:100E20000E038AEF92E0909301038093000381E523
:100E300092E09093FB028093FA029093FD028093DC
:100E4000FC029093FF028093FE0280E293E0909375
:100E500005038093040380E193E090930303809360
:100E6000020382E293E09093070380930603E7EE88
:100E7000F8E088E0DF011D928A95E9F7E4ECF8E0FC
:100E800083E2DF011D928A95E9F780E090E5A3EC0B
:100E9000B8E48093D6089093D708A093D808B0936D
:100EA000D9081092C008FF24F394F092E6088091CC
:100EB000080290910902A0910A02B0910B0280935E
:100EC000C6089093C708A093C808B093C90881E0EA
:100ED00090E0A0E0B0E08093C1089093C208A09396
:100EE000C308B093C408F092DC0850E040E060E032
:100EF00070E0CB01BBD99093D1088093D00840EA31
:100F000056E861E070E04093D2085093D3086093B4
:100F1000D4087093D508CED980E88A838BE689837C
:100F200089819A819C838B83C12CE12C02E010E0A3
:100F300020E030E0AE014D5F5F4F68E670E08091E9
:100F4000D0089091D10835DA882339F09091DC08E7
:100F5000992309F479C1F092DD0861E070E080E046
:100F600090E081DA1A8289819A819C838B83C12CDB
:100F7000E12C02E010E020E030E0AE014D5F5F4F79
:100F800068E670E08091D0089091D10812DA882349
:100F900041F09091DC08992309F45DC181E08093D0
:100FA000DD0864E670E080E090E05DDA85E78D833F
:100FB000C12CEE24E39401E010E020E030E0AE012B
:100FC0004B5F5F4F68E670E08091D0089091D10848
:100FD000F0D9811177C1CC24C394E12C01E010E059
:100FE00020E030E0AE014B5F5F4F68E670E080913B
:100FF000D0089091D10873D99D8181E0983609F08D
:1010000080E08093DA08983609F0F9C089E1898395
:1010100089819A819C838B83C12CE12C02E010E0B2
:1010200020E030E0AE014D5F5F4F68E670E08091F8
:10103000D0089091D108BDD9882341F09091DC0867
:10104000992309F414C181E08093DD088CE18D833C
:10105000C12CEE24E39401E010E020E030E0AE018A
:101060004B5F5F4F68E670E08091D0089091D108A7
:10107000A0D9811132C1CC24C394E12C01E010E04D
:1010800020E030E0AE014B5F5F4F68E670E080919A
:10109000D0089091D10823D99D81977E9A838CE1C5
:1010A000898389819A819C838B83C12CE12C02E006
:1010B00010E020E030E0AE014D5F5F4F68E670E089
:1010C0008091D0089091D10874D9882341F09091F3
:1010D000DC08992309F4D7C081E08093DD088BE117
:1010E0008D83C12CEE24E39401E010E020E030E099
:1010F000AE014B5F5F4F68E670E08091D008909141
:10110000D10857D98111F4C0CC24C394E12C01E05B
:1011100010E020E030E0AE014B5F5F4F68E670E02A
:101120008091D0089091D108DAD89D81977E9A83DA
:101130008BE1898389819A819C838B83C12CE12CEB
:1011400002E010E020E030E0AE014D5F5F4F68E666
:1011500070E08091D0089091D1082BD9882341F07C
:101160009091DC08992309F49AC081E08093DD080E
:101170008AE18D83C12CEE24E39401E010E020E0AD
:1011800030E0AE014B5F5F4F68E670E08091D008C1
:101190009091D1080ED98111B6C0CC24C394E12C12
:1011A00001E010E020E030E0AE014B5F5F4F68E609
:1011B00070E08091D0089091D10891D89D81987F5E
:1011C00095609A838AE1898389819A819C838B8344
:1011D000C12CE12C02E010E020E030E0AE014D5FD8
:1011E0005F4F68E670E08091D0089091D108E1D817
:1011F000882341F09091DC08992309F45CC081E0D8
:101200008093DD081092DC0881E08093C50880910E
:10121000140290911502A0911602B09117028093CA
:10122000DE089093DF08A093E008B093E1080F90E8
:101230000F900F900F900F90DF91CF911F910F9112
:10124000FF90EF90CF9008959091DB08911185CE9B
:101250008093DB0882CE9091DB089111A2CE80931F
:10126000DB089FCE81E08093DD0890E0C6CE9091B0
:10127000DB089111EBCE8093DB08E8CE81E0809310
:10128000DD0890E00ACF9091DB08911128CF809380
:10129000DB0825CF81E08093DD0890E047CF909177
:1012A000DB08911165CF8093DB0862CF81E08093EA
:1012B000DD0890E084CF9091DB089111A3CF80935B
:1012C000DB08A0CF9091DC089111CCCF9091DB0886
:1012D0009111CBCF8093DB0890CE9091DC089111D7
:1012E000CDCF9091DB089111CCCF8093DB08D5CE88
:1012F0009091DC089111CECF9091DB089111CDCF68
:101300008093DB0813CF9091DC089111CFCF90919F
:10131000DB089111CECF8093DB0851CF8091C008BC
:10132000811118C081E08093C0088091C10890911C
:10133000C208A091C308B091C4080197A105B105E6
:1013400049F48091C508882329F08091D0089091B4
:10135000D1086ED88091CB0881111BC081E08093A9
:10136000CB088091CC089091CD08A091CE08B09187
:10137000CF080197A105B10561F482E090E0A0E0FB
:10138000B0E08093CC089093CD08A093CE08B093A2
:10139000CF08089560E070E080E89FE7089560E07E
:1013A00070E080E89FE7089560E070E080E89FEFDC
:1013B000089560E070E080E89FEF089560E070E0DD
:1013C00080EC9FEF089560E070E080EC9FEF08955F
:1013D000F5DF6093FB087093FC088093FD08909301
:1013E000FE08F1DF6093EF087093F0088093F10836
:1013F0009093F208CFDF6093F7087093F80880931A
:10140000F9089093FA08CBDF6093F3087093F4081F
:101410008093F5089093F608C7DF6093FF087093F8
:1014200000098093010990930209C3DF60930309C7
:101430007093040980930509909306090895CF924B
:10144000DF92EF92FF92CF936B017C01AC019B0185
:101450006091F7087091F8088091F9089091FA0866
:101460000E94EC2AC1E0882371F0A70196016091E7
:10147000FF087091000980910109909102090E9472
:10148000EC2A8111C0E08C2FCF91FF90EF90DF907C
:10149000CF9008950F931F938B019C010027112774
:1014A00020783F770115110520483F4749F4AB01EB
:1014B000BC016F77772781E0452B462B472B09F43A
:1014C00080E01F910F910895E5CF4F925F926F9248
:1014D0007F928F929F92AF92BF92CF92DF92EF92C4
:1014E000FF920F931F93F89440904303509044034E
:1014F0006090450370904603C0903703D090380346
:10150000E0903903F0903A03452B09F0A4C09B0109
:10151000AC01241935094609570929013A010091FE
:101520003F03109140032091410330914203480151
:101530005901840C951CA61CB71C80169106A206A6
:10154000B306A0F400913B0310913C0320913D03AE
:1015500030913E030F5F1F4F2F4F3F4F00933B03D0
:1015600010933C0320933D0330933E0380923F034E
:1015700090924003A0924103B092420300913B033A
:1015800010913C0320913D0330913E03809247032C
:1015900090924803A0924903B0924A0300934B03F0
:1015A00010934C0320934D0330934E0360934303F9
:1015B000709344038093450390934603A0E5B3ECF6
:1015C000A30192010E943A376C0D7D1D8E1D9F1D57
:1015D00060933703709338038093390390933A03F1
:1015E000009128021091290220912A0230912B02A9
:1015F0000F3F1F4F2F4F3F4FF1F0009128021091E6
:10160000290220912A0230912B020E3F1F4F2F4FAB
:101610003F4F89F0C0902802D0902902E0902A0222
:10162000F0902B0221E08C149D04AE04BF0408F45A
:1016300020E02093530378941F910F91FF90EF9037
:10164000DF90CF90BF90AF909F908F907F906F90E2
:101650005F904F9008954B015C0184189508A6088F
:10166000B708A3019201261B370B480B590B6415D1
:10167000750586059705D0F082169306A406B50673
:1016800040F420E030E0A90181149104A104B104E8
:1016900091F4A0E5B3EC0E943A37A7019601261B0E
:1016A000370B480B590BCA01B901C5CF82169306F7
:1016B000A406B50670F7A0E5B3ECA50194010E945D
:1016C0003A376C0D7D1D8E1D9F1DB5CFFECECF937D
:1016D000DF9300D01F92CDB7DEB71C821B821A8227
:1016E000198210924F0310925003109251031092DE
:1016F0005203BE016F5F7F4FCE0103960E946228A6
:1017000069817A818B819C810E945021009761F4CC
:10171000BE016F5F7F4FCE0103960E946E286981E4
:101720007A818B819C812ED50F900F900F900F9016
:10173000DF91CF910895FF920F931F93CF93DF9383
:10174000082F60E070E0CB010E944932FF24F3943F
:101750000E943920EC01892B89F010E0CE3F8FEFF9
:10176000D80769F0002361F160E070E0CB010E94CE
:10177000493281E090E0892B59F322C011E025D550
:10178000EC01892B21F0CE3F8FEFD80759F71111CB
:101790001EC011E0229609F410E00E94E91FEC013E
:1017A000892B21F0CE3F8FEFD807E1F6111111C040
:1017B00011E0CE3F8FEFD80709F410E001110BC004
:1017C000CE01DF91CF911F910F91FF90089511E00D
:1017D000E4CF11E0F3CF60E070E0CB010E9449322A
:1017E0001F25812F90E0C7CFCF93DF9380915303C4
:1017F000882321F060E070E0CB014CD635D6D0E0F4
:10180000C0E0892B71F06AE070E080E090E00E9417
:10181000493281E090DF28D62196C03D27E0D207EB
:1018200081F727D60E94A42110926B0310926A03BD
:10183000109264031092650310926603109267037E
:10184000109260031092610310926203109263037E
:1018500010925C0310925D0310925E0310925F037E
:10186000109258031092590310925A0310925B037E
:10187000109254031092550310925603109257037E
:101880004EEF5FEF6FEF7FEF4093280250932902F6
:1018900060932A0270932B0210925303E7E4F3E063
:1018A00028E0DF011D922A95E9F710924303109278
:1018B0004403109245031092460310923F03109286
:1018C0004003109241031092420310923B03109286
:1018D0003C0310923D0310923E0310923703109286
:1018E00038031092390310923A03DF91CF91089593
:1018F00010927703109278031092790310927A0372
:101900001092760380917F039091800390937503EA
:1019100080937403109273031092720310926E03FB
:1019200010926F03109270031092710310927C0357
:1019300010927B0390E080E00895CF92DF92EF92C7
:10194000FF920F931F93CF938C01892B09F055C001
:1019500020917F03309180038091740390917503EF
:1019600040917F035091800350937503409374031B
:101970002817390781F010927303109272031092A6
:101980006E0310926F031092700310927103109205
:101990007C0310927B0380917F03909180030197D9
:1019A00061F580917B0390917C03892B21F48091D8
:1019B0002C02811112C080917B0390917C030197CE
:1019C000E1F480916E0390916F03A0917003B09148
:1019D00071030197A105B10581F410926E03109275
:1019E0006F03109270031092710310922C0282E028
:1019F00090E090937C0380937B0380917F03909190
:101A00008003019709F01CC1809195039091960382
:101A10008017910709F014C180919103909192036E
:101A2000A0919303B0919403009709F409C1209108
:101A3000900321110DC04091910350919203609148
:101A4000930370919403452B462B472B09F4F8C060
:101A500020917B0330917C032230310509F0F0C0E6
:101A6000209172032111ECC0FC01C080D180E28082
:101A7000F38080917603882309F4D3C08091820398
:101A800090918303892B09F4FDC02091820330914A
:101A9000830381E02230310509F080E02091820348
:101AA00030918303C1E02130310549F02091820358
:101AB00030918303C1E02230310509F0C0E0882372
:101AC00009F456C020918C0330918D0340918E0310
:101AD00050918F03C701B6010E94592C87FD14C095
:101AE00020918C0330918D0340918E0350918F0390
:101AF00060917703709178038091790390917A03D4
:101B00000E94EC2A87FD22C020918C0330918D0326
:101B100040918E0350918F03C701B6010E94592C4A
:101B2000181634F520918C0330918D0340918E036B
:101B300050918F03609177037091780380917903BE
:101B400090917A030E94EC2A811112C08091840343
:101B500090918503A0918603B0918703892B8A2BEE
:101B60008B2B19F481E08093730381E080937203DF
:101B7000CC2309F456C020918C0330918D03409101
:101B80008E0350918F03C701B6010E94EC2A87FF94
:101B900014C020918C0330918D0340918E0350919D
:101BA0008F0360917703709178038091790390910E
:101BB0007A030E94592C87FF22C020918C03309118
:101BC0008D0340918E0350918F03C701B6010E948F
:101BD000EC2A811126C020918C0330918D03409115
:101BE0008E0350918F0360917703709178038091F9
:101BF000790390917A030E94592C181694F48091DD
:101C0000840390918503A0918603B0918703892B6B
:101C10008A2B8B2B19F481E08093730381E08093EE
:101C2000720381E090917203911180E080937603BA
:101C3000C0927703D0927803E0927903F0927A030E
:101C4000012B09F067C180917B0390917C03892B64
:101C5000D9F4109281031092720380912C02882390
:101C600079F082E090E090937C0380937B03109264
:101C70002C0220917F033091800381E0232BE9F037
:101C800080E01BC081E00ACF10922C02809181037A
:101C9000882349F01092730310927C0310927B0307
:101CA00010928103EDCF80917F0390918003892B67
:101CB000E1F0809172031092720320917B033091C6
:101CC0007C032230310509F45EC088F4211531050A
:101CD00009F448C02130310509F4F3C010927303B0
:101CE000109272031092810338C081E0E6CF233056
:101CF000310509F4B1C02430310581F740916E03FC
:101D000050916F03609170037091710341155105FB
:101D10006105710561F041505109610971094093F4
:101D20006E0350936F03609370037093710340913F
:101D30006E0350916F036091700370917103452B96
:101D4000462B472BD9F420917D0330917E0321301F
:101D5000310509F046C01092730310927C03109273
:101D60007B030CC080912C02882341F082E090E03C
:101D700090937C0380937B0310922C0210926C034F
:101D800080917303CEC08823C9F38091840390911E
:101D90008503A0918603B0918703181619061A06C9
:101DA0001B060CF07DC080917F039091800301970A
:101DB00009F076C08091840390918503A0918603F9
:101DC000B091870380936E0390936F03A093700389
:101DD000B093710383E090E090937C0380937B0346
:101DE000CDCF409188035091890360918A0370910F
:101DF0008B03452B462B472BA9F010927303809140
:101E0000880390918903A0918A03B0918B038093FA
:101E10006E0390936F03A0937003B093710381E0FE
:101E200090E0DACF882399F080912D0290912E02D4
:101E3000A0912F02B091300280936E0390936F03B4
:101E4000A0937003B093710384E090E0C5CF10922B
:101E5000730382E090E0C0CF80916E0390916F0396
:101E6000A0917003B09171030097A105B10559F0DD
:101E70000197A109B10980936E0390936F03A0931A
:101E80007003B093710380916E0390916F03A091E2
:101E90007003B0917103892B8A2B8B2B09F06ECFC5
:101EA00080912D0290912E02A0912F02B0913002CC
:101EB000892B8A2B8B2B09F44ECF81E080937303FF
:101EC000B3CF40916E0350916F0360917003709196
:101ED0007103411551056105710561F041505109CA
:101EE0006109710940936E0350936F03609370030F
:101EF0007093710340916E0350916F036091700372
:101F000070917103452B462B472B09F037CF811178
:101F1000C7CF9FCF80916C03882309F431CF809184
:101F20006D03CF911F910F91FF90EF90DF90CF90B5
:101F3000089510927703109278031092790310920B
:101F40007A031092760310927C0310927B03109216
:101F500075031092740310929603109295031092D9
:101F600073031092720310926E0310926F0310921B
:101F700070031092710310926D0310926C03109213
:101F80009103109292031092930310929403109273
:101F9000900310928C0310928D0310928E03109276
:101FA0008F0388EE93E0A0E0B0E080932D02909341
:101FB0002E02A0932F02B093300210928803109249
:101FC000890310928A0310928B031092840310925B
:101FD0008503109286031092870310928303109258
:101FE000820381E080932C0210928103109280037F
:101FF00010927F0310927E0310927D0390E080E0A8
:10200000089580917F0390918003892B19F5809129
:102010002C02882351F080918103811106C081E058
:1020200080936D0380936C03089520918103309118
:102030002C0281E090E0332311F090E080E030E06A
:1020400082239323892B21F010926D0381E0EACF44
:1020500010926C03089582E090E0FA0191838083EE
:102060008FEF9FEF0895CF93DF93EA01009711F070
:102070000E94C4221982188290E080E0DF91CF9103
:102080000895DB01009719F48FEF8C9308952EEFDC
:102090002C93FC013F96EF30F10508F034C08827FF
:1020A000EB5AFF4E8F4F0C94323781107F107D100A
:1020B0007B10791075107710731071106F106C1001
:1020C000681064106A10831080E311968C93089551
:1020D00089E2FBCF82E2F9CF11961C92089583E248
:1020E000F4CF81E2F2CF81E1F0CF87E2EECF8AE256
:1020F000ECCF80E1EACF84E2E8CF88E2E6CF86E267
:10210000E4CF81E3E2CF80E2E0CF8091A30390911E
:10211000A40308959093A4038093A303089580914A
:10212000A20308959091A203892B8093A20308959E
:10213000982F90958091A20389238093A2030895FC
:102140008091A103089580919F039091A003089529
:102150006115710559F0FB0130E020E070E060E0AE
:102160002417350719F06115710511F0CB01089599
:10217000A081B181A817B90709F4BF012F5F3F4FB4
:102180003696EECF8091A50381111CC060D266D235
:1021900090939803809397030E94C21A0E94D41AC6
:1021A00090939C0380939B030E94511F0E94581F91
:1021B00090939A038093990381E08093A50390E024
:1021C00080E0089584EF9FEF08958F929F92AF92E1
:1021D000BF92CF92DF92EF92FF920F931F93CF9314
:1021E000DF9300D000D000D01F92CDB7DEB71A86A3
:1021F000198618861F821E821D821C821B821A82EB
:1022000019828091A50307EF1FEF882309F49CC072
:102210008E010D5F1F4F9E012B5F3F4FAE01495F47
:102220005F4FBE01675F7F4F90E080E00E94D52046
:102230008C01009721F00596029708F0DBC02985F4
:102240003A852115310509F402C1ED80FE804B81EC
:102250005C81B701640F751F8F819885861797077A
:1022600008F4F5C0E20EF31ED7019C91903C09F0F2
:102270007FC04230510508F47BC011968C9140918B
:10228000A3035091A403452B09F49CC0913F08F08F
:1022900071C02CE1290F2D3008F48BC02DE2290FDD
:1022A000203108F489C0903C21F48150823008F438
:1022B00083C088E3890F8B3008F481C091E4C92E74
:1022C00090E1D92EEBE2F0E16D817E81AE014F5FAE
:1022D0005F4F89859A8519955C01C114D104A1F1DC
:1022E00089809A808114910479F18B819C81881571
:1022F000990508F487C010E000E04B815C8170E034
:1023000060E0C7010E945C3701151105E9F44981BD
:102310005A8169857A858D819E81680F791FC501F3
:10232000F6011995E980FA800D811E812F8138858B
:1023300049855A856FEF7FEF81E090E00E94702021
:102340008C01892B09F056C0C8012A960FB6F89463
:10235000DEBF0FBECDBFDF91CF911F910F91FF90D8
:10236000EF90DF90CF90BF90AF909F908F900895A7
:1023700080E085CF30E020E0220F331FF901E956DD
:10238000FC4F0190F081E02D309709F497CF892F11
:1023900090E01995009709F491CFDC011296ED9128
:1023A000FC9113971496CD90DC90309709F08CCF68
:1023B0001FC021E030E0E0CF22E030E0DDCF23E0BD
:1023C00030E0DACFD12CC12CE3E3F0E19F3F09F0FC
:1023D0007BCFE0919703F0919803309721F4C901E6
:1023E00004EF1FEF0CC08FEF90E019950097A9F64E
:1023F00004EF1FEF89859A85009709F4A5CF0E9405
:10240000C422A2CF0E949F218C0189859A850E94B7
:10241000C42270E060E0C4010E94382198878F8355
:102420000E946D209E838D836F8178856115710573
:1024300059F0C8010E9450249A87898706EF1FEF40
:10244000892B09F058CF59CF08EF1FEF56CF08EF6F
:102450001FEFD0CF2091A503222319F020E00C9488
:10246000D91A87EF9FEF08958091A3039091A40359
:1024700008950E945D1F0E94B71EF5D0E7E9F3E0C2
:1024800088E0DF011D928A95E9F71092A50390E09C
:1024900080E008950C94151D21E040E050E0BA0161
:1024A0000C94D91A86E090E0FA019183808390E041
:1024B00080E0089547E050E064E572E049CEDF92A5
:1024C000EF92FF920F931F93CF93DF938A01EC015A
:1024D000C60FD71FE090A903F090AA03D9800E94ED
:1024E0008721D816190678F082E090E0F8019183F0
:1024F00080838EEF9FEFDF91CF911F910F91FF901F
:10250000EF90DF900895EF2841F482E090E0F80129
:102510009183808384EF9FEFEECF89818093A8031E
:1025200090E00196F8019183808390E080E0E3CF12
:10253000CF93DF93EA010E94C61D882321F00E94F9
:1025400094210E94C71D82E090E0998388838BEFDD
:102550009FEFDF91CF910895CF93DF93EB0186E05A
:10256000FB0111928A95E9F78FEF8883D8DD898383
:10257000E7DD8A83E8DD9D838C83DF91CF91089529
:10258000CF93DF93EA010E94C91D811109C082E047
:1025900090E09983888385EF9FEFDF91CF91089535
:1025A00090E080E0B7DD81E090E09983888390E05F
:1025B00080E0F3CF0F931F93CF93DF93EA018C0159
:1025C000060F171F0E94C91D81110BC082E090E009
:1025D0009983888385EF9FEFDF91CF911F910F91B2
:1025E0000895F8018181823038F082E090E099838B
:1025F00088838EEF9FEFF0CF81E090E08BDD88E065
:1026000090E09983888390E080E0E6CFCF93DF93DA
:102610000097D1F4EB01FB01329686E0DF011D92B9
:102620008A95E9F78FEF888385E089831A820E9473
:1026300087218B830E9486219D838C8381E08E83FA
:102640008F83DF91CF910895DF91CF911ACD8AE5E5
:1026500092E19093A7038093A60308958091A60327
:102660009091A70308951092A7031092A6030895CE
:102670008091A9039091AA030895411105C06115A5
:1026800071058105910561F06093A9037093AA0318
:102690008093AB039093AC034093AD0381E0089526
:1026A00080E00895FF920F931F93CF93DF938A01E9
:1026B000EC01C60FD71FF9800E948721F816190672
:1026C00068F082E090E0F801918380838EEF9FEFC5
:1026D000DF91CF911F910F91FF9008956C817D81C3
:1026E0008E819F814B81C9DF811108C082E090E01B
:1026F000F8019183808384EF9FEFEACF89818093F3
:10270000A80390E00196F8019183808390E080E037
:10271000DFCFCF93DF93EA01FC01E60FF71F64815F
:102720007581868197814381A8DF811109C082E08C
:1027300090E09983888384EF9FEFDF91CF91089594
:1027400081E090E09983888390E080E0F6CFE9EA29
:10275000F3E04081518162817381480F511D611DF9
:10276000711D40835183628373830895CF93C09119
:10277000A8034C2F50E06091A9037091AA03019621
:102780000E9453378C2FE3DF1092A803CF91089556
:10279000009799F48091A9039091AA032FEFFB0170
:1027A0002083892B59F02091A80330E02F5F3F4F01
:1027B0002417350719F4CB01D9CF63CC08950097BE
:1027C00099F48091A9039091AA032FEFFB01208334
:1027D000892B59F02091A80330E02F5F3F4F241739
:1027E000350719F4CB01C2CF4CCC089523E1AC01DD
:1027F000249FC001259F900D1124E091B203F09118
:10280000B303E80FF91F238134812250310981E09D
:102810002230310508F080E008950F931F93CF9385
:10282000DF930091B4031091B503D0E0C0E080E0E5
:102830000C171D0749F491E0811190E0892FDF9179
:10284000CF911F910F9108958111F5CFCE01CEDF69
:102850002196EECFA091B203B091B303109729F166
:102860002091B4033091B50382179307F0F453E13C
:10287000589F9001599F300D1124A20FB31FED9165
:10288000FC911197309789F012968C91681768F433
:102890008DE0689FE00DF11D112480819181892BCD
:1028A00021F081E09281491708F080E008959C01B1
:1028B00043E1429FC001439F900D1124E091B20378
:1028C000F091B303E80FF91F8385823091F481E022
:1028D00090E0658176814091310250913202641717
:1028E000750711F490E080E0892B19F081E0232B2B
:1028F00009F080E00895FC01A081B1818DE0689F1E
:10290000A00DB11D112413964D915C91858596857E
:10291000489F9001499F300D589F300D1124C901E7
:102920000196611103C0478144FD04960895EF921A
:10293000FF920F931F93CF93DF93EA01FC01E60F01
:10294000F71F02811381E480F5804F2D6E2DC801A1
:1029500081DF81110DC082E090E0998388838EEF42
:102960009FEFDF91CF911F910F91FF90EF9008950E
:10297000C8013CDF882339F082E090E099838883A6
:1029800088EF9FEFEECF1093380200933702E0926A
:102990003902F0923A0281E090E09983888390E0D6
:1029A00080E0DFCFCF92DF92EF92FF920F931F93E1
:1029B000CF93DF937A01EC01C60FD71FC090370287
:1029C000D09038020091390210913A02412F602FC5
:1029D000C60140DF811110C082E090E0F7019183D1
:1029E00080838AEF9FEFDF91CF911F910F91FF902E
:1029F000EF90DF90CF900895C601F8DE882341F074
:102A000082E090E0F7019183808388EF9FEFEBCF26
:102A10004C815D816E817F819A8189818F3F41F0F8
:102A200082E090E0F701918380838EEF9FEFDBCF10
:102A3000E3E1EC9D9001ED9D300D1124E091B20396
:102A4000F091B303E20FF31F0190F081E02D2DE030
:102A5000029FE00DF11D11240190F081E02D27E08F
:102A6000129FE00DF11D1124808391838B8182835D
:102A700043835483658376831F5F10933A0281E01A
:102A800090E0F7019183808390E080E0ACCFEF92FB
:102A9000FF920F931F93CF93DF937A018C01060F60
:102AA000171FC091B203D091B303209781F021E0AA
:102AB00030E0F801828193814091B4035091B503D5
:102AC0008417950710F030E020E0232B71F482E0AA
:102AD00090E0F701918380838EEF9FEFDF91CF919C
:102AE0001F910F91FF90EF90089543E1489F90014F
:102AF000499F300D1124C20FD31F78DE882341F087
:102B000082E090E0F7019183808388EF9FEFE6CF2A
:102B1000F8012481358120383105C8F6878181117B
:102B2000D6CF4181842F90E08F7E009741F082E0E4
:102B300090E0F7019183808386EF9FEFCFCF4F83A3
:102B40003E832D83268128871986223010F421E0C8
:102B5000288721E030E0F70131832083BFCF88E070
:102B600090E0FA019183808390E080E00895FB017A
:102B70008FEF808381E181838FEF9FEF9383828347
:102B800080E890E095838483168217820895FB0184
:102B90008FEF808391E0918382839383848384E3A6
:102BA000858381E090E0978386830895DF92EF929A
:102BB000FF920F931F93CF93DF93EA01FC01E60F7F
:102BC000F71F8181813071F082E090E099838883E2
:102BD0008FEF9FEFDF91CF911F910F91FF90EF90BB
:102BE000DF90089582819381D4802581E680F780EB
:102BF0000091B2031091B3030115110539F482E07D
:102C000090E0998388838CEF9FEFE4CF4091B403E9
:102C10005091B5038417950738F082E090E09983CE
:102C200088838EEF9FEFD6CF892B39F082E090E03A
:102C30009983888386EF9FEFCDCF8D2D8D7FB1F760
:102C40002130A1F781E0D11006C091E0E916F1042E
:102C500031F080E004C0E2E0EE16F104D0F3882306
:102C600029F390E080E0C2DD882339F082E090E033
:102C70009983888388EF9FEFADCFF801D38681E0F9
:102C80008487F686E586108A178681E090E099832E
:102C9000888390E080E09ECF4CE050E06EE772E0E9
:102CA00057CA8F929F92BF92CF92DF92EF92FF927C
:102CB0000F931F93CF93DF93EA01FC01E60FF71FF9
:102CC000828193810481B580E091B203F091B303D6
:102CD000309791F482E090E0998388838CEF9FEFA6
:102CE000DF91CF911F910F91FF90EF90DF90CF90E8
:102CF000BF909F908F9008952091B4033091B503B9
:102D00008217930738F082E090E0998388838EEFF2
:102D10009FEFE6CF23E1289F6001299FD00C11246B
:102D2000EC0DFD1DE080F180E114F10499F2828147
:102D3000081748F78DE0089F80011124E00EF11E6E
:102D4000F70180819181892B29F6BB20E1F2F7E020
:102D5000BF9E40011124C4010E948B22F701918380
:102D60008083E091B203F091B303EC0DFD1D01905F
:102D7000F081E02DE00FF11F80819181009739F4FF
:102D800082E090E0998388838DEF9FEFA9CFA40123
:102D900070E060E00E945C378091B2039091B303D1
:102DA000C80ED91EF60180819181080F191FF80104
:102DB000B28281E090E09983888390E080E090CFB8
:102DC000AF92BF92CF92DF92FF920F931F93CF9358
:102DD000DF93EA01FC01E60FF71F82819381F48003
:102DE0000091B2031091B3030115110581F482E043
:102DF00090E0998388838CEF9FEFDF91CF911F91B3
:102E00000F91FF90DF90CF90BF90AF9008952091E9
:102E1000B4033091B5038217930738F082E090E055
:102E2000998388838EEF9FEFE8CF2FEF2F0D2C3FF4
:102E3000A8F723E1289F6001299FD00C11240C0DD5
:102E40001D1DF80180819181892B89F6FDE0FF9E8F
:102E500050011124C5010E948B22F80191838083C7
:102E6000E091B203F091B303EC0DFD1D80819181DF
:102E7000009739F482E090E0998388838DEF9FEF8B
:102E8000BCCFA50170E060E00E945C37E091B20326
:102E9000F091B303EC0DFD1DF28281E090E0998387
:102EA000888390E080E0A9CFCF92DF92EF92FF92EB
:102EB0000F931F93CF93DF93860F971FFC0102811F
:102EC00013818091B2039091B303892B81F082E04A
:102ED00090E0FA01918380838CEF9FEFDF91CF9197
:102EE0001F910F91FF90EF90DF90CF900895C80150
:102EF000B0E0A0E00197A109B1098F3F9F4FA10564
:102F0000B10540F082E090E0FA01918380838EEF7A
:102F10009FEFE4CF7A0183E1809F6001819FD00C15
:102F20001124C6010E948B22EC01009741F482E03B
:102F300090E0F701918380838DEF9FEFCFCFA601C3
:102F400070E060E00E945C37D093B303C093B2039B
:102F50001093B5030093B40390E080E02FEF3FEFB0
:102F600041E061E070E08017910741F481E090E07A
:102F7000F7019183808390E080E0B0CF3A8B298B7A
:102F80001B864C877E876D87188A1F8601966396FD
:102F9000EACFEF92FF921F93CF93DF93EC0110E003
:102FA000F12CE12C6A811617B0F083E0689FB00124
:102FB0001124AE014F5E5F4FC7010E94F0220097BF
:102FC00021F02FEF3FEF3A8B298BDF91CF911F91AB
:102FD000FF90EF900895612FCE018DDC61E070E0ED
:102FE0000E943821E816F90608F47C011F5FDACF49
:102FF000F8942091B0033091B10381E0211531059F
:1030000009F080E0232B09F0789408952F923F92E5
:103010004F925F926F927F928F929F92AF92BF92E8
:10302000CF92DF92EF92FF920F931F93CF93DF9394
:103030003C01660E771EF301828193814C01B12C15
:10304000A12CC091B203D091B303209769F021E085
:1030500030E06091B4037091B5038617970710F0C4
:1030600030E020E0232BD1F482E090E0FA0191835C
:1030700080838EEF9FEFDF91CF911F910F91FF9093
:10308000EF90DF90CF90BF90AF909F908F907F9008
:103090006F905F904F903F902F90089580923B02E9
:1030A00090923C02A0923D02B0923E0263E1689F82
:1030B0009001699F300D1124C20FD31FF30181814C
:1030C000833040F082E090E0FA019183808386EFC4
:1030D0009FEFD1CF2A012B813C81232BF1F4288152
:1030E00039819F8191FF2EC0232B09F46FC020915D
:1030F000B7039A81422F490F5527551FBA0141E066
:1031000050E06138710514F050E040E0452B09F4BF
:103110005DC02A87920F9093B7038150823008F4E4
:1031200081C066DF882309F4D8C0F3018181813032
:1031300009F48DC008F47BC0823009F4C6C090E069
:1031400080E0ADC0232B09F441C02091B6039A81E1
:10315000E22FE90FFF27FF1F41E050E0ED3FF105AF
:1031600014F050E040E0452B89F12A87920F9093AC
:10317000B603D3CFA081B181A20FB31F11966C917A
:10318000060F111D0196295F3F4F8417950794F391
:103190008D859E85089F1001099F300C189F300C6B
:1031A0001124C114D104D1F48F8184FF17C00E946F
:1031B0008621F5E02F0E311C21E08215930508F4DD
:1031C00020E0A701435F5F4F21110EC082E090E035
:1031D000F2019183808387EF9FEF4DCF0E9486217C
:1031E0002FEF221A320AE8CF88819981E80EF91E62
:1031F000F70114830383FFEFCF1ADF0A7A018A8174
:103200008C151D0409F00CF48CCFE881F981EE0DCA
:10321000FF1D428150E030E020E010E000E090E04F
:1032200080E0B3CFF12CE12CD12CC12CE8CF81E090
:1032300090E09C838B83F1DA882309F480CF81E0CE
:1032400090E00E948A1080E40E94981078CF8989CB
:103250009A89019661F083E090E09C838B8382E001
:1032600090E00E948A1080E40E94921068CF8D81C5
:103270009E81209131023091320282179307D1F45E
:103280006091350270913602AE014F5E5F4F8091C2
:103290003302909134020E940F240097E1F2789457
:1032A00022E030E0F20131832083892B99F08DEF09
:1032B0009FEFE1CE89288A288B2869F6892B59F659
:1032C000CE0167DE188A1F86E8CF82E090E09C83FB
:1032D0008B8335CF90E080E0CECE82E090E0F201AB
:1032E0009183808385EF9FEFC6CE8F929F92AF929E
:1032F000BF92CF92DF92EF92FF920F931F93CF93E3
:10330000DF93EA018C01060F171FF80181818330DA
:1033100098F082E090E09983888386EF9FEFDF91B9
:10332000CF911F910F91FF90EF90DF90CF90BF90C2
:10333000AF909F908F9008958091B2039091B303C6
:10334000892B61F081E090E02091B4033091B503C6
:10335000232B11F490E080E0892B39F482E090E097
:10336000998388838EEF9FEFDACF42DE882309F4BA
:10337000DFC0F8018181813009F495C0E8F0823026
:1033800099F42091B4033091B503E091B203F09128
:10339000B30390E080E041E050E02817390709F0DE
:1033A000BDC03BDA811117C0789481E090E0998329
:1033B000888390E080E0B3CF2091B4033091B503CF
:1033C000E091B203F091B30390E080E041E050E07F
:1033D0002817390741F481E090E00E948A1080E4C8
:1033E0000E949810E1CF63817481672B11F05483A0
:1033F000438301967396ECCFE091B203F091B3034F
:10340000E00FF11F2381348122303105D9F4218965
:1034100032892F3F3F4FB1F42581368140913102EF
:10342000509132022417350761F5AF014F5E5F4FAF
:10343000609135027091360280913302909134028E
:103440000E940F24EFEFCE1ADE0AEE0AFE0A0D5E8E
:103450001F4F4091B4035091B50370E060E0C41673
:10346000D506E606F7063CF5009731F27894892BED
:1034700009F49BCF82E090E0998388838DEF9FEFE2
:103480004ECFC114D104E104F104E1F6232BD1F6AF
:10349000CF017FDDE091B203F091B303E00FF11FA4
:1034A000108A1786CFCF10E000E090E080E0C12CBA
:1034B000D12C7601CECF0097C9F610E000E0812C28
:1034C000912C540183E0E82EF12C1AC0E091B20354
:1034D000F091B303E00FF11F83819481029749F4C7
:1034E000F482E38282E090E00E948A1080E40E94ED
:1034F0009210FFEF8F1A9F0AAF0ABF0A0D5E1F4F8F
:103500008091B4039091B503B0E0A0E088169906CD
:10351000AA06BB06DCF290E080E0A8CF638174814C
:103520006230710511F4548343830196739635CF4D
:1035300082E090E09983888385EF9FEFF0CE00973B
:10354000B9F48FEFFB01808320913B0230913C0264
:1035500043E1429FC001439F900D1124E091B203CB
:10356000F091B303E80FF91F8285FB018183089571
:103570000C94411088E090E0FA019183808390E000
:1035800080E008951092B1031092B003E2EBF3E0F3
:1035900086E0DF011D928A95E9F78CE496E190932D
:1035A000AF038093AE0308958091AE039091AF0373
:1035B00008952F923F924F925F926F927F928F92D7
:1035C0009F92AF92BF92CF92DF92EF92FF920F93B2
:1035D0001F93CF93DF93CDB7DEB72F970FB6F89435
:1035E000DEBF0FBECDBFF894E091B003F091B10300
:1035F0003196F093B103E093B00378944090B20316
:103600005090B3034114510409F40CC2E091B40387
:10361000F091B503EF2B09F405C22D8749875A872E
:103620006B877C8798878F831201B12CA12C10E0C7
:1036300000E08091B4039091B503A816B90618F480
:103640000115110529F1F8948091B0039091B1030F
:1036500001979093B1038093B0037894C8012F969B
:103660000FB6F894DEBF0FBECDBFDF91CF911F9193
:103670000F91FF90EF90DF90CF90BF90AF909F9011
:103680008F907F906F905F904F903F902F90089514
:103690007101E418F508D10117968C91179781FDF7
:1036A00054C013968D919C911497039709F04DC0C7
:1036B00015968D919C91EF81F8858E179F0709F0E3
:1036C00044C0B50190E080E07FD48A832091B203AA
:1036D0003091B3033D832C833D85332309F44CC0E3
:1036E0004C815D81452B09F49AC18091B40390917E
:1036F000B503A816B90608F092C1C501D8D8882329
:10370000E9F06C817D816E0D7F1D7D836C83DB0113
:103710001F968D919C91892B89F0D12CC12CF12C75
:10372000E12CAC81BD8112968C9112978E151F04ED
:1037300009F094F450961C921E921F972A8122231E
:1037400021F0B50190E080E041D43FEFA31AB30A25
:1037500043E1240E311C6DCFAC81BD81ED91FC9114
:10376000EC0DFD1D858196810FD7BFEFEB1AFB0A8B
:10377000EDE0CE0ED11CD5CFEC81FD81309709F460
:103780004EC18091B4039091B503A816B90608F014
:1037900046C1EE0DFF1DFF87EE87C50188D88B83DC
:1037A000882339F1AE85BF851F968D919C915097E6
:1037B000019621E01D964D915C918417950709F0C3
:1037C00020E02E831982712C10E000E0AE85BF85C9
:1037D00012968C91781608F45DC0EE85FF8587857A
:1037E00090890196658576850E94FC36908B878747
:1037F000A5CFB1E0BE83E6CF992493946BC08BD65E
:10380000F6019683858382C0D601ED90FC90B7E0E7
:103810006B9EE00CF11C1124F7016381748180819F
:103820008F3F61F121E030E002C0220F331F8A9503
:10383000E2F7C901092E000CAA0BBB0BFB0140816A
:1038400051816281738184239523A623B72321E0CC
:10385000892B8A2B8B2B09F420E0D4012C93D701E0
:1038600011968C91F60123853485820F932F911D3B
:10387000880E991E1486138663949BC0418150E084
:10388000C4010E945337EBCF998206EF1FEFC5C0EA
:103890001982C3C0F981F111A0CFEDE07E9E7001C5
:1038A0001124AE85BF85CD90DC90CE0CDF1C15D4E5
:1038B0009D838C83BB81BB2309F49ECF81E0EE8581
:1038C000FF8527853089232B09F080E0982E8823F7
:1038D00009F458C0672D8E859F850DD8D60118969E
:1038E0009C938E93179761E070E0C2D4EE85FF85BC
:1038F000218932892F3F320709F481CFBC01C901E8
:10390000CFD7D60116969C938E931597D601159610
:103910008D919C911697009709F4B6CFEC81FD81AB
:103920008E0F9F1F1A969C938E931997AE85BF8515
:10393000ED91FC911197EE0EFF1EF7012185328566
:10394000148613861A968C91870DD9018D93711068
:1039500016C0EE85FF85878184FF11C049855A8591
:103960006B857C85F9014183528363837483F701FE
:10397000838594850496A80FB91F14861386F701D2
:10398000B287A187D60115968D919C911697892BA8
:1039900009F443C0EE85FF8525813681809131028F
:1039A000909132022817390779F019968D909C90E2
:1039B000612CD60112968C911297681608F424CFC8
:1039C0001A969C928E921997BE81BB2309F460CF00
:1039D00061E070E0F601878190854AD4D6011796A0
:1039E000ED90FC90189715964D915C91E1E0F0E018
:1039F000BA81BB2311F0F0E0E0E00C811D819C0155
:103A0000B501882799278E1B9F0B6AD38C01892BC0
:103A100021F0F60185819681B7D57394D7CE0FEF4B
:103A20001FEF8CCE10E000E00ECE2F923F924F920F
:103A30005F926F927F928F929F92AF92BF92CF923E
:103A4000DF92EF92FF920F931F93CF93DF938091BA
:103A5000B2039091B30310E000E0892BA9F0C8DA1B
:103A60000AEF1FEF882381F02090B4033090B50354
:103A7000C091B203D091B303D12CC12C10E000E06F
:103A80002C143D04A9F47894C801DF91CF911F91C3
:103A90000F91FF90EF90DF90CF90BF90AF909F90ED
:103AA0008F907F906F905F904F903F902F900895F0
:103AB000C6010E945714882309F18B819C810397CA
:103AC000E9F48F859889892BC9F0B60190E080E0F0
:103AD0007BD221E030E0882311F030E020E0442464
:103AE0005524421A530AB12CA12C912C812C8A8185
:103AF0008815190409F038F4188A1F864FEFC41A84
:103B0000D40A6396BDCFE881F981EA0DFB1D85815A
:103B10009681892BA1F161E070E087819085A8D31F
:103B20003C01DBD28C01E881F981EA0DFB1D818526
:103B3000928525813681200F311FAC01421B530B2A
:103B40009A0147815085421B530B70E060E00E9450
:103B50005C37E881F981EA0DFB1DE780F08445813F
:103B600056819301B601C201BBD28C01892B39F079
:103B7000E881F981EA0DFB1D8581968105D55FEF0E
:103B8000851A950A8DE0A80EB11CB1CF31CA789480
:103B900008952F923F924F925F926F927F929F92E1
:103BA000AF92BF92CF92DF92EF92FF920F931F934B
:103BB000CF93DF9300D000D0CDB7DEB70091B20332
:103BC0001091B303992493940115110509F43EC093
:103BD000A090B403B090B5030BDA982E8823B1F10E
:103BE0001092B3031092B2031092B5031092B40373
:103BF0001092B6031092B7038FEF9FEFDC01809312
:103C00003B0290933C02A0933D02B0933E02789415
:103C10007FD31E830D83C12CD12C7601C501B0E06A
:103C2000A0E089839A83AB83BC8322242A94322C1C
:103C300089819A81AB81BC81C816D906EA06FB0648
:103C4000F4F0C801A1D480E40E949810892D269632
:103C50000FB6F894DEBF0FBECDBFDF91CF911F919D
:103C60000F91FF90EF90DF90CF90BF90AF909F901B
:103C70007F906F905F904F903F902F900895AD810F
:103C8000BE8115968D919C911697209131023091AD
:103C9000320282179307D1F451968D919C91EED503
:103CA000ED81FE8180819181B12CA12C412C512C80
:103CB0003201892B89F5BFEFCB1ADB0AEB0AFB0A2D
:103CC000ED81FE817396FE83ED83B2CFC114D104E2
:103CD000E104F10429F7892B19F7ED81FE8181892F
:103CE00092898F3F980709F029D5AD81BE81529600
:103CF0003C922E925197D4CF8A0D9B1DDC018D9161
:103D00009C91009709F040D4BFEF4B1A5B0A6B0AF5
:103D10007B0AEDE0AE0EB11CAD81BE818D919C9110
:103D2000119712964C9150E070E060E044165506F1
:103D3000660677060CF328D4BECFCF93DF93EA0153
:103D400028DF811109C082E090E09983888385EFA4
:103D50009FEFDF91CF91089581E090E00E948A105B
:103D600081E090E09983888390E080E0F2CF11DFDA
:103D70001092AF031092AE03089542E050E066EC5B
:103D800072E00C94A810FF920F931F93CF93DF93D0
:103D90008A01EC01C60FD71FF980B9D20897F8162F
:103DA000190671F068F082E090E0F8019183808359
:103DB0008EEF9FEFDF91CF911F910F91FF900895AC
:103DC0006C817D818E819F814B810E943D13811189
:103DD00008C082E090E0F8019183808384EF9FEF38
:103DE000E9CFF9800E9438134F2D50E0BE01685F83
:103DF0007F4F0E94533789810E94A71381E090E092
:103E0000F8019183808390E080E0D4CFDF92EF923D
:103E1000FF920F931F93CF93DF938A01EC01C60F9C
:103E2000D71F0E9438137C01D98071D2DD2059F050
:103E3000029721E030E0D816190619F010F030E0B2
:103E400020E0232B79F482E090E0F80191838083D5
:103E50008EEF9FEFDF91CF911F910F91FF90EF9029
:103E6000DF900895EF2841F482E090E0F80191831B
:103E7000808384EF9FEFEECFF9800E9438134F2D9F
:103E800050E0BE016E5F7F4F0E94533789810E94D0
:103E9000A71381E090E0F8019183808390E080E0B7
:103EA000D9CF8DEB9EE19093B9038093B803089529
:103EB0008091B8039091B90308950895FC0111828F
:103EC0001082938382830895DB011D921C92DC0192
:103ED0001296ED91FC9113977183608313967C93F6
:103EE0006E9312970895FC0180819181DB018D937F
:103EF0009C93A081B181109741F08D919C91918309
:103F00008083892B11F4F383E2830895FC0180817F
:103F10009181DB018D939C93892B11F473836283D0
:103F2000718360830895FC011182108293838283E0
:103F30000895CF93DF931F921F92CDB7DEB71A82F9
:103F40001982F894BE016F5F7F4F8FEB93E0CBDF58
:103F500089819A81009709F017D389819A81892BE9
:103F600089F7BE016F5F7F4F83EC93E0BCDF8981EF
:103F70009A81009709F008D389819A81892B89F762
:103F800078940F900F90DF91CF910895CF93DF93A6
:103F90001F921F92CDB7DEB71A821982F894BE0124
:103FA0006F5F7F4F8BEB93E09EDF89819A81009753
:103FB00009F0EAD289819A81892B89F778940F9048
:103FC0000F90DF91CF91089581E0089590E080E017
:103FD0000895EF92FF920F931F93CF93DF931F9259
:103FE0001F92CDB7DEB71A8219828091BA0307EF0C
:103FF0001FEF8823A1F1F894BE016F5F7F4F83EC20
:1040000093E071DF789489819A81EE24E394F12C16
:10401000892B51F4F894BE016F5F7F4F8FEB93E0D3
:1040200062DF7894F12CE12C89819A810EEF1FEFE9
:104030000097A9F0FC014281538164E070E076D6DC
:104040008C01892B61F0F89469817A81C701880F0E
:10405000991F880F991F81549C4F58DF7894C8018D
:104060000F900F90DF91CF911F910F91FF90EF90E4
:1040700008950F931F93CF93DF9300D01F92CDB776
:10408000DEB71C821B821A8219828091BA0307EF65
:104090001FEF8823C1F0AE014D5F5F4F64E070E019
:1040A000CE010196B6D68C01892B69F4E981FA819B
:1040B0008B819C8193838283F89469817A818BEBD5
:1040C00093E002DF7894C8010F900F900F900F904B
:1040D000DF91CF911F910F910895BBD7049608955A
:1040E0008F929F92AF92BF92CF92DF92EF92FF9208
:1040F0000F931F93CF93DF931F921F92CDB7DEB71D
:104100001A821982BC016F5F7F4F6330710598F08E
:10411000AA24AA94BA2CC5010F900F90DF91CF91D9
:104120001F910F91FF90EF90DF90CF90BF90AF90D5
:104130009F908F9008954115510551F34801590101
:104140008A016C01CADF8815990511F7E114F104A1
:10415000F9F28E0D9F1DA816B906D0F28091BA0310
:104160008823F1F0F894B501645071099701AE010C
:104170004F5F5F4FC8010496E1D65C01892B71F453
:1041800089819A81F80193838283C601880F991FE0
:10419000880F991FB80181549C4F96DE7894BBCF4D
:1041A00087EFA82EBB24BA94B6CFAF92BF92CF921E
:1041B000DF92EF92FF920F931F93CF93DF931F92A3
:1041C0001F92CDB7DEB71A821982892B09F047C03A
:1041D0006115710509F443C04115510509F43FC04B
:1041E0002115310509F43BC001151105C1F180917C
:1041F000BA038823B9F179016A015B01F894BE0121
:104200006F5F7F4F8BEB93E06EDE789489819A81AC
:10421000009759F1DC0112966D917C91A8010496EA
:10422000A6D68C01E981FA81D501ED93FC938281B8
:1042300093810496F601918380834FDFD7018D939C
:104240009C93C8010F900F90DF91CF911F910F9118
:10425000FF90EF90DF90CF90BF90AF9008950FEF59
:104260001FEFEFCF07EF1FEFECCF0EEF1FEFE9CF00
:10427000CF93DF93EC01672B71F4F4D68C179D0775
:1042800060F0E7D62496C80FD91FE6D68C0F9D1F85
:10429000DF91CF910895E3D6F1CF90E080E0F8CFA1
:1042A0000F931F93CF93DF932091BA0321112BC05B
:1042B0008B01EC018FEB93E001DE83EC93E0FEDDFC
:1042C0008BEB93E0FBDD97D00097C1F4CBD670E089
:1042D00060E0CEDF4FE352E062E070E081D1009712
:1042E00069F480913F0290914002CED6B801CE0190
:1042F00003D5009719F421E02093BA03DF91CF9101
:104300001F910F91089584EF9FEFF8CFA8C6AAC61A
:10431000CF93DF93AAD6EC01892B11F40ADE36DEA7
:10432000CE01DF91CF910895CF93DF939ED6EC011C
:10433000892B09F4FEDDCE01DF91CF9108958091A4
:104340003F02909140020895CF93DF938091BA038A
:10435000D0E0C0E08823D1F09CD6EC01892BB1F4E9
:10436000E8DD14DE80913F0290914002E7D1E8D26F
:10437000EC01892B59F48FEB93E0D5DD83EC93E0CE
:10438000D2DD8BEB93E0CFDD1092BA03CE01DF914B
:10439000CF910895EF92FF920F931F93CF93DF93E6
:1043A000EC017A018B010F5F1F4F0E9DA0010F9D45
:1043B000500D1E9D500D112470E060E00E945C378E
:1043C00090E080E0F0E0E0E02FEFE816F90639F445
:1043D000DF91CF911F910F91FF90EF9008951A8276
:1043E00019822883309711F0D283C1830196FE0190
:1043F000C00FD11FEACFCF92DF92EF92FF920F93BF
:104400001F93CF93DF930CEC14E00C7F43E050E05C
:1044100061E472E087E492E01CD481E4E82E82E05B
:10442000F82E97E4C92E92E0D92ECBE3D5E0D70140
:104430004D915D917D01F601619171916F0119833B
:1044400008835D834C835B834A837F836E839B01F8
:104450002F5F3F4F249FC001259F900D349F900DEB
:104460001124998788870115110511F0C80192DF81
:1044700088859985080F191F2A96F7E4EF16F2E050
:10448000FF06A9F6E9ECF3E080E091E0DF019C0192
:104490001D9221503040E1F71092C8031092C703DB
:1044A00010925A051092590510925E0510925D0502
:1044B00010925C0510925B051092600510925F05EA
:1044C00010926205109261051092640510926305C6
:1044D00010926805109267051092660510926505A6
:1044E00010926A051092690510926C0510926B0586
:1044F000109238051092370510923A05109239053E
:1045000090E080E0DF91CF911F910F91FF90EF90AD
:10451000DF90CF9008950097F1F0F894A7E4B2E00F
:10452000EBE3F5E030E020E04D915D91481759074D
:10453000A8F0428153814115510581F08AE0829FA4
:10454000F001839FF00D1124E55CFA4F8081918189
:10455000009759F4789490E080E008952F5F3F4FE2
:104560003A962330310501F7F5CFDC0111966D91B4
:104570007C91718360834150510953834283FC01D4
:104580002193CF0178940895009749F1DC018E9131
:10459000853041F4E0913905F0913A053097F9F012
:1045A000CD0119948530D8F4282F30E0F8948FEF9E
:1045B0008C938AE0829FF001839FF00D1124E55CCB
:1045C000FA4F8081918112969C938E931197B183BB
:1045D000A083828193810196938382837894089546
:1045E000CF92DF92EF92FF920F931F93CF93DF93BF
:1045F0009C018CEC93E08C7F4115510509F49BC024
:104600002115310509F497C06115710509F493C0AE
:104610007A01AB01B9016D5F7F4F6C7F9B012F5F0A
:104620003F4F249F8001259F100D349F100D1124B2
:10463000F8942091590530915A05232B59F4209173
:104640006105309162052115310569F120173107A7
:1046500008F058C02091630530916405232B91F434
:104660002091610530916205820F931F20916B05A7
:1046700030916C052115310509F441C0201731072F
:1046800008F056C07894CFEFDFEF86EF9FEFF70189
:10469000D183C083DF91CF911F910F91FF90EF9055
:1046A000DF90CF900895C3E0D0E0C090C703D090D2
:1046B000C8032DEF30E02C193D092017310710F306
:1046C0002AE02C9FF0012D9FF00D1124E55CFA4F9C
:1046D00091838083558344835383428377836683A6
:1046E00011870087009709F055DE0C0D1D1D1093F2
:1046F000C8030093C703789490E080E0C8CFC4E07B
:10470000D0E0D3CFC3E0D0E02AE02C9FF0012D9F72
:10471000F00D1124E55CFA4F918380835583448327
:104720005383428377836683009729F333DEE3CF95
:10473000C4E0D0E0E9CF8FEF9FEFACCF9C010397AF
:10474000029708F069C0F89484E09AE0482F50E09E
:10475000241735070CF44DC091E08AE0829FF001E8
:10476000839FF00D1124E55CFA4F118210821582AF
:10477000148213821282178216829923B1F18091DA
:10478000590590915A05892BA9F420916105309122
:1047900062052115310571F08091C7039091C8031E
:1047A000821B930B9093C8038093C70310926205FA
:1047B000109261058091630590916405892BA9F49D
:1047C00020916B0530916C052115310571F08091B8
:1047D000C7039091C803821B930B9093C8038093E7
:1047E000C70310926C0510926B05789490E080E0FE
:1047F0000895949FF001959FF00D1124E55CFA4F08
:1048000040815181452B31F440855185452B11F470
:1048100081509CCF90E0A1CF8FEF9FEF089541157D
:10482000510549F1009739F16115710521F1F894AD
:104830002091370530913805232BB9F420913905A3
:1048400030913A05232B89F49093380580933705EE
:1048500070933A0560933905789425E030E090E054
:1048600080E0FA0131832083089578942FEF3FEFA1
:1048700086EF9FEFF6CF8FEF9FEF0895059769F4CE
:10488000F894109238051092370510923A0510925C
:104890003905789490E080E008958FEF9FEF0895B8
:1048A0006115710519F4F0E0E0E011C08530910563
:1048B00081F4E0913705F09138053097A1F3CB01F1
:1048C00001961995009779F3FC0185E08193CF015A
:1048D00008959C01235031092230310520F72AE048
:1048E000289FD001299FB00D1124A55CBA4F2D91AE
:1048F0003C911197232BB9F216962D913C91179765
:104900002617370780F2F89412962D913C91139751
:104910002115310529F0ED91FC911197309711F493
:104920007894C1CF4181528111965C934E9321506E
:10493000310913963C932E93129781937894C7CFA5
:10494000E9ECF4E08EE6DF011D928A95E9F7E9ECE7
:10495000F3E080E091E0DF019C011D9221503040A6
:10496000E1F71092C8031092C703EBE3F5E082E38E
:10497000DF011D928A95E9F7E7E3F5E084E0DF01C6
:104980001D928A95E9F790E080E00895CF93DF9338
:10499000C0914D02D0914E02CF3FDC0759F40BD4A9
:1049A00090934E0280934D0297FF09C0D0934E0220
:1049B000C0934D0284EF9FEFDF91CF91089590E077
:1049C00080E0FACF8230910528F480936D0590E065
:1049D00080E008958FEF9FEF08954F925F926F925E
:1049E0007F92AF92BF92CF92DF92EF92FF920F939E
:1049F0001F93CF93DF931F921F92CDB7DEB71A821A
:104A00001982009709F479C06115710509F475C020
:104A100020914D0230914E0207EF1FEF2F3F3F4F85
:104A200009F445C06B015C01412C512C3201F12C81
:104A3000E12C10E000E09E012F5F3F4FA6014E19D0
:104A40005F09B5016E0D7F1D80914D0290914E0260
:104A500017D4892B09F04BC089819A81009741F4C2
:104A6000E114F10429F420916D05222309F442C0D8
:104A7000E80EF91EEC14FD04D0F480E8481684E832
:104A800058068EE16806710420F560E070E0CB0105
:104A90000E9449322AE0420E511C611C711C0A3FDF
:104AA0004FEF140721F0043F8FEF1807A1F4C8015E
:104AB0000F900F90DF91CF911F910F91FF90EF908A
:104AC000DF90CF90BF90AF907F906F905F904F90AE
:104AD000089501EF1FEF81E090E0013F2FEF1207F3
:104AE00011F090E080E0892B09F4A5CFE0CF04EF2E
:104AF0001FEFDDCF0AEF1FEFDACF0FEF1FEFD7CF9A
:104B00004F925F926F927F92AF92BF92CF92DF925D
:104B1000EF92FF920F931F93CF93DF931F921F92F9
:104B2000CDB7DEB71A821982009709F479C06115F2
:104B3000710509F475C020914D0230914E0207EFC6
:104B40001FEF2F3F3F4F09F445C06B015C01412C23
:104B5000512C3201F12CE12C10E000E09E012F5F7E
:104B60003F4FA6014E195F09B5016E0D7F1D809163
:104B70004D0290914E0237D3892B09F04BC08981A9
:104B80009A81009741F4E114F10429F420916D0514
:104B9000222309F442C0E80EF91EEC14FD04D0F4FF
:104BA00080E4481682E458068FE06806710420F518
:104BB00060E070E0CB010E9449322AE0420E511CB5
:104BC000611C711C0E3F4FEF140721F0043F8FEF63
:104BD0001807A1F4C8010F900F90DF91CF911F919A
:104BE0000F91FF90EF90DF90CF90BF90AF907F90AC
:104BF0006F905F904F90089502EF1FEF81E090E07B
:104C0000023F2FEF120711F090E080E0892B09F4AA
:104C1000A5CFE0CF04EF1FEFDDCF0EEF1FEFDACF10
:104C20000FEF1FEFD7CF80914D0290914E028F3F33
:104C3000980749F0B7D2892B49F48FEF9FEF9093F3
:104C40004E0280934D0290E080E0089584EF9FEF44
:104C50000895CF92DF92EF92FF920F931F93CF931D
:104C6000DF9321E04115510509F020E04150510941
:104C700021112CC0DC01FB01D12CC12C21E022C070
:104C80003FEFC31AD30A7D010D911D91E701EA8020
:104C9000FB80E016F106A8F420813181E280F380E8
:104CA000F182E08233832283ED90FC9011979D0185
:104CB00022503109E901F982E88211961C930E9382
:104CC00020E03296C416D506D8F2D2CFDF91CF912C
:104CD0001F910F91FF90EF90DF90CF900895FC010E
:104CE000680F791F90E080E0E617F70709F4089550
:104CF0002191820F911DF8CF20916E05211113C0D3
:104D000045DE009791F4109274051092730510928D
:104D10007205109271051092700510926F0521E0D6
:104D200020936E05089584EF9FEF0895AF92BF9290
:104D3000CF92DF92EF92FF920F931F93CF93DF9367
:104D4000009709F460C04630510508F45CC020911A
:104D50006E05C7EFDFEF222309F449C08C01060F6F
:104D6000171FF801C080D180C114D10409F44EC0CE
:104D700096012A5F3F4F4217530708F447C07C0152
:104D8000809173059091740593838283B6016C5F63
:104D90007F4F5801A60EB71EC801A1DFF501918310
:104DA000808364E070E0C80118DEEC01892BF9F41F
:104DB00081E090E007DEB601C80104960EDEEC014A
:104DC000892B91F462E070E0C50107DEEC01892BCC
:104DD00059F4C701D9DB8091730590917405019650
:104DE000909374058093730590E080E0EBDDCE0135
:104DF000DF91CF911F910F91FF90EF90DF90CF90B7
:104E0000BF90AF900895CFEFDFEFF1CFC9EFDFEFA5
:104E1000EECF6F927F928F929F92AF92BF92CF927E
:104E2000DF92EF92FF920F931F93CF93DF9300D007
:104E30001F92CDB7DEB7009709F47AC0411551052E
:104E400009F476C020916E0507EF1FEF222309F4C5
:104E50004DC03A017B015C0164E070E0CE01019637
:104E60004FDE8C01892B09F041C009811A8101159F
:104E7000110509F45AC0480186E0880E911CB7015B
:104E8000680D791D80914F029091500209DD6C01EF
:104E9000009709F450C0A70170E060E00E945C3701
:104EA00089819A81AB81BC81EC0CFD1CF701819357
:104EB0009193A193B1937F0181E090E083DDB801EC
:104EC000C7011EDE892B31F562E070E0C701800F5B
:104ED000911F16DE8C01892BE9F490E080E072DDF1
:104EE000F501D182C082F30191828082C8010F90C6
:104EF0000F900F900F90DF91CF911F910F91FF9026
:104F0000EF90DF90CF90BF90AF909F908F907F9069
:104F10006F90089590E080E055DDF50111821082D8
:104F2000F30111821082C6012FDB09EF1FEFDECFE4
:104F30000FEF1FEFDBCF06EF1FEFD8CF0097A1F0E9
:104F40004115510589F02115310571F0F9013696A9
:104F50006E177F0748F0DC012D933C93DA01ED9347
:104F6000FC9390E080E008958FEF9FEF0895AF925B
:104F7000BF92CF92DF92EF92FF920F931F93CF9346
:104F8000DF93009709F45FC04115510509F45BC038
:104F90006530710508F457C020916E05C7EFDFEF4B
:104FA000222391F1DC01CD90DC9011971296ED91C6
:104FB000FC9196012A5F3F4FC9EFDFEF26173707B5
:104FC00019F5C0916F05D0917005209749F521E042
:104FD00030E03093700520936F057A018C01F093D7
:104FE0007205E09371055601B4E0AB0EB11CB5013A
:104FF00076DE0A0D1B1DF80120813181821793078F
:1050000029F5D701CD92DC92CE01DF91CF911F918E
:105010000F91FF90EF90DF90CF90BF90AF900895E9
:1050200020917105309172052F5F3F4FCCEFDFEF7C
:10503000E217F30790F2CBEFDFEF2E173F0768F28E
:10504000D0E0C0E0CACFCFEFDFEFDECFC3EFDFEFBE
:10505000DBCF84E090E0089582E090E008958CEF4B
:105060009FEF089580E290E00895109274051092E9
:1050700073051092720510927105109270051092CE
:105080006F0590E080E008959093500280934F0266
:10509000089580916E05882391F0C5DD009789F40D
:1050A000109274051092730510927205109271059A
:1050B0001092700510926F0510926E05089590E0A1
:1050C00080E00895009749F06115710531F0FC0109
:1050D00011821082FB01118210820895F3CF26E025
:1050E00030E040E855E260E070E090E080E00C9451
:1050F00019021F920F920FB60F9211240BB60F9246
:105100002F933F934F935F936F937F938F939F93CF
:10511000AF93BF93EF93FF938BEC93EF90932501A5
:1051200080932401C1D0FF91EF91BF91AF919F91E6
:105130008F917F916F915F914F913F912F910F9040
:105140000BBE0F900FBE0F901F9018958BEC93EF36
:105150009093250180932401A3E7B0E08C918E7F8A
:105160008C93E0E2F1E080818C7F8083E1E2F1E0EA
:105170008081877E808380818460808380818C7F32
:1051800080838C9181608C930895E3E7F0E08081C7
:1051900090819E7F90838170089581E008951092A0
:1051A0007505089568EE73E080E090E00E94493252
:1051B00090E080E0089526E030E040E855E260E0CD
:1051C00070E090E080E00E9419028CE496E00E947A
:1051D0007433892B29F08CE496E00E948E33F5CF4E
:1051E00090E080E00895CF92DF92EF92FF920F93CC
:1051F0001F93CF93DF936B017A01E9011982188223
:105200008CE496E00E947433892B79F18601CC24DA
:10521000C39482E0D82E80917505811111C08CE471
:1052200096E00E948E330297B1F7C0927505F8019F
:10523000D1928F0188819981019699838883EBCFE0
:10524000888199818E159F0580F48CE496E00E94F8
:105250008E338F3F9807A1F3F80181938F018881E6
:105260009981019699838883EBCF90E080E0DF916C
:10527000CF911F910F91FF90EF90DF90CF90089505
:105280000F931F93CF93DF93EA0189018CE496E09B
:105290000E94CE36F801D183C08390E080E0DF9198
:1052A000CF911F910F910895CF92DF92EF92FF92CD
:1052B000CF93DF938091760591E0980F90937605D8
:1052C000882379F021E030E030937805209377054A
:1052D00080937605DF91CF91FF90EF90DF90CF9094
:1052E00008957894C0915202D09153026E8D7F8DB3
:1052F00088A199A107D220E030E040E85FE4E4D241
:105300006B017C016A8D7B8D8C8D9D8DFBD19B010A
:10531000AC01C701B6019AD0C9D16B017C010E94D2
:105320007C04B701A60190E080E00E945603F89447
:10533000809176058150CCCF0F931F93CF93DF934D
:1053400010920809109207090E947F32C8DEC091AE
:105350005202D0915302198218826FEF7FEFCB0176
:105360000E94DA0370E060E090E080E00E94570263
:10537000009709F03AC00E94AD06F8947894BE01F7
:105380006A5D7F4F8A819B810E945A02892B59F462
:105390006FEF7FEFCB010E94EB020E94D4038823C2
:1053A00011F081E08AA7F894D1DE0E94D703882308
:1053B00011F080E008C00E94D4038111FACF81E08F
:1053C0009AA59111F6CF8093070978940E948510D1
:1053D0008C0178948091070981110CC00E948E097C
:1053E0000E94B803F89490E080E0DF91CF911F9184
:1053F0000F9108950E94B6030E94D7038823D9F025
:1054000081E0809308099091080981E0911180E082
:1054100080930709809108098111B7DE01301105D9
:1054200029F40E948510892B09F4B9DE0E948510A9
:105430008C01B3DECFCF0E94D4038111E1CF81E094
:105440009AA59111DECF80E0DCCF5058BB27AA2768
:105450000ED0F5C1E6D130F0EBD120F031F49F3F12
:1054600011F41EF4B6C10EF4E095E7FBACC1E92FD0
:10547000F7D180F3BA17620773078407950718F00E
:1054800071F49EF50FC20EF4E0950B2EBA2FA02DED
:105490000B01B90190010C01CA01A0011124FF27E1
:1054A000591B99F0593F50F4503E68F11A16F040DC
:1054B000A22F232F342F4427585FF3CF46953795DB
:1054C0002795A795F0405395C9F77EF41F16BA0BA0
:1054D000620B730B840BBAF09150A1F0FF0FBB1F4E
:1054E000661F771F881FC2F70EC0BA0F621F731F97
:1054F000841F48F4879577956795B795F7959E3FF4
:1055000008F0B3CF9395880F08F09927EE0F979581
:105510008795089586D158F080E891E009F49EEFD0
:1055200087D128F040E851E059F45EEF09C051C13D
:10553000B9C1E92FE07894D168F3092E052AC1F3A7
:10554000261737074807590738F00E2E07F8E025C9
:1055500069F0E025E0640AC0EF6307F8009407FAF9
:10556000DB01B9019D01DC01CA01AD01EF9345D01A
:1055700066D10AD05F91552331F02BED3FE049E42D
:1055800050FD49EC63CF0895DF93DD27B92FBF7736
:1055900040E85FE31616170648075B0710F4D92F9B
:1055A0008CD19F938F937F936F93F1D1E4EEF0E0D2
:1055B00013D145D12F913F914F915F9191D1DD232F
:1055C00049F09058A2EA2AED3FE049EC5FE3D07839
:1055D0005D274DDFDF9133C1D2D008F481E008951B
:1055E00027D140F01ED130F021F45F3F19F0EBC01D
:1055F000511159C1EEC034D198F39923C9F3552301
:10560000B1F3951B550BBB27AA27621773078407B5
:1056100038F09F5F5F4F220F331F441FAA1FA9F36B
:1056200033D00E2E3AF0E0E830D091505040E6955D
:10563000001CCAF729D0FE2F27D0660F771F881FBE
:10564000BB1F261737074807AB07B0E809F0BB0BAD
:10565000802DBF01FF2793585F4F2AF09E3F5105D1
:1056600068F0B1C020C15F3FECF3983EDCF3869553
:1056700077956795B795F7959F5FC9F7880F911D47
:105680009695879597F90895E1E0660F771F881F33
:10569000BB1F621773078407BA0720F0621B730BE6
:1056A000840BBA0BEE1F88F7E0950895E1D088F0DF
:1056B0009F5790F0B92F9927B751A0F0D1F0660FFE
:1056C000771F881F991F1AF0BA95C9F712C0B13019
:1056D00081F0E8D0B1E00895E5C0672F782F8827E2
:1056E000B85F39F0B93FCCF3869577956795B39558
:1056F000D9F73EF490958095709561957F4F8F4FC7
:105700009F4F0895E89409C097FB3EF490958095CB
:10571000709561957F4F8F4F9F4F9923A9F0F92F77
:1057200096E9BB279395F695879577956795B795F5
:10573000F111F8CFFAF4BB0F11F460FF1BC06F5FDB
:105740007F4F8F4F9F4F16C0882311F096E911C0ED
:10575000772321F09EE8872F762F05C0662371F00E
:1057600096E8862F70E060E02AF09A95660F771F22
:10577000881FDAF7880F9695879597F90895990FFE
:105780000008550FAA0BE0E8FEEF16161706E8070B
:10579000F907C0F012161306E407F50798F0621B2C
:1057A000730B840B950B39F40A2661F0232B242B01
:1057B000252B21F408950A2609F4A140A6958FEF20
:1057C000811D811D089597F99F6780E870E060E072
:1057D00008959FEF80EC0895DF93CF931F930F936D
:1057E000FF92EF92DF927B018C01689405C0DA2E64
:1057F000EF0176D0FE01E894A59125913591459170
:105800005591AEF3EF0133DEFE019701A801DA9462
:1058100079F7DF90EF90FF900F911F91CF91DF917B
:10582000089500240A941616170618060906089506
:1058300000240A9412161306140605060895092E6C
:105840000394000C11F4882352F0BB0F40F4BF2BDB
:1058500011F460FF04C06F5F7F4F8F4F9F4F08951B
:1058600057FD9058440F551F59F05F3F71F0479511
:10587000880F97FB991F61F09F3F79F087950895F6
:10588000121613061406551FF2CF4695F1DF08C015
:10589000161617061806991FF1CF86957105610532
:1058A00008940895E894BB2766277727CB0197F9DA
:1058B000089565DF08F48FEF08959B01AC0160E067
:1058C00070E080E89FE366C00BD0B9CFAADF28F074
:1058D000AFDF18F0952309F076CF7BCF1124E3CF0B
:1058E000BFDFA0F3959FD1F3950F50E0551F629F46
:1058F000F001729FBB27F00DB11D639FAA27F00D29
:10590000B11DAA1F649F6627B00DA11D661F829F4F
:105910002227B00DA11D621F739FB00DA11D621F34
:10592000839FA00D611D221F749F3327A00D611D51
:10593000231F849F600D211D822F762F6A2F112433
:105940009F5750408AF0E1F088234AF0EE0FFF1F86
:10595000BB1F661F771F881F91505040A9F79E3FBD
:10596000510570F030CF9FCF5F3FECF3983EDCF3F2
:10597000869577956795B795F795E7959F5FC1F7FA
:10598000FE2B880F911D9695879597F908959B0199
:10599000AC019ACF30DE53CF90E080E00895809143
:1059A000AD059091AE05891B990B08959091AE05B8
:1059B0008091AD052FEF3FEF981748F4E92FF0E005
:1059C000E155FA4F208130E09F5F9093AE05C90109
:1059D0000895E091AE058091AD05E81730F4F0E050
:1059E000E155FA4F808190E008958FEF9FEF089581
:1059F0000895CF93DF93EC01E0918505F091860542
:105A00003097F1F09091AE058091AD059817C0F0F8
:105A100090E0292F30E02617370754F4DE01A20F5B
:105A2000B31F4C9121553A4FD9014C939F5FF1CF51
:105A30001092AE056093AD05CB01DF91CF91199423
:105A4000DF91CF910895E0918705F0918805309717
:105A500029F010928B0510928A0519940895CF931E
:105A6000DF931F92CDB7DEB769832091890522238A
:105A7000F9F020918A05203258F021E030E0FC0155
:105A80003383228390E080E00F90DF91CF910895DF
:105A900080918B05E82FF0E0E457FA4F99819083CD
:105AA0008F5F80938B0580938A0581E090E0ECCF37
:105AB00061E0CE01019607D1F8CFCF92DF92EF924D
:105AC000FF920F931F93CF93DF937C01CB018A0149
:105AD00020918905222389F0EB016B01C40ED51EAC
