:1000000079C10000A8C10000A6C10000A4C1000081
:10001000A2C10000A0C100009EC100009CC1000060
:100020009AC1000098C1000096C1000094C1000070
:1000300092C1000090C100008EC100008CC1000080
:100040008AC100000C94002286C1000084C1000017
:100050000C94191280C100007EC100000C940D2484
:100060007AC100000C940D270C94432774C1000042
:1000700072C1000070C100006EC100006CC10000C0
:100080000C942D2268C1000066C1000064C100000C
:100090000C9499270C94CF275EC100005CC100002E
:1000A0005AC1000058C100000C945A2254C10000EB
:1000B00052C1000050C100004EC100000C948722C4
:1000C0004AC1000048C1000046C100000C94252828
:1000D0000C945B2840C100000C94B1280C94E728D4
:1000E0003AC10000001D3A2774694E53E8F5D2CF9B
:1000F0009C81A6BBCDD0F7EAB9A4839E25381F0208
:10010000514C6B76879ABDA0F3EEC9D46F725548F7
:100110001B06213C4A57706D3E230419A2BF9885E7
:10012000D6CBECF1130E2934677A5D40FBE6C1DCD7
:100130008F92B5A8DEC3E4F9AAB7908D362B0C11C7
:10014000425F78659489AEB3E0FDDAC77C61465BB7
:100150000815322F5944637E2D30170AB1AC8B96A7
:10016000C5D8FFE2263B1C01524F6875CED3F4E997
:10017000BAA7809DEBF6D1CC9F82A5B8031E392487
:10018000776A4D50A1BC9B86D5C8EFF24954736E77
:100190003D20071A6C71564B1805223F8499BEA367
:1001A000F0EDCAD735280F12415C7B66DDC0E7FA57
:1001B000A9B4938EF8E5C2DF8C91B6AB100D2A3747
:1001C00064795E43B2AF8895C6DBFCE15A47607D37
:1001D0002E3314097F6245580B16312C978AADB027
:1001E000E3FED9C400000A0B02090C0D0E08070338
:1001F00004010000000000000000000000000000FA
:1002000000000000000000000000000000000000EE
:1002100012111000000000000000000000000000AB
:100220000000000000000000000001021020200873
:100230000810204010204080020102010804020141
:1002400001020408102040808040201008040201B0
:100250008004020180402010080402010804020109
:100260000102040810204080010204081020408090
:1002700005050505070508080808020202020A0A22
:100280000808040404040101010101010101030340
:10029000030303030303040707070C0C0C0C0C0CEB
:1002A0000C0C0202020206060606060606060B0BE8
:1002B0000B0B0B0B0B0B00002200250028002B0062
:1002C0002E003100340002010000050108010B017D
:1002D00000002100240027002A002D0030003300F8
:1002E00001010000040107010A01BE016C27F82783
:1002F0008428102911241FBECFEFD1E2DEBFCDBF6D
:1003000000E00CBF13E0A0E0B2E0EAE4F7E500E0B3
:100310000BBF02C007900D92AE3CB107D9F727E0A2
:10032000AEECB3E001C01D92A73FB207E1F711E0C8
:10033000CAE7D1E000E006C021970109802FFE0145
:100340000E94162AC537D10780E00807A9F70E9446
:10035000431E0C94A32B54CE70E023E0829FC00177
:10036000112482539C4F0C94782370E023E0829FE9
:10037000C001112482539C4F0C94B4238EEC93E063
:100380000C94B4222F923F924F925F926F927F9281
:100390008F929F92AF92BF92CF92DF92EF92FF9295
:1003A0000F931F93CF93DF9300D000D0CDB7DEB76C
:1003B00069837A838B839C835E834D831901470114
:1003C00058019B01AC01ED81FE81608171818281C8
:1003D00093810E94E12087FFBFC0F701EE0FFF1F4E
:1003E000EE0FFF1F2D813E81E20FF31F29813A811D
:1003F0004B815C8160817181828193810E94E120C7
:1004000018160CF09BC02701380176946794579416
:100410004794C12CD12C7601D501C4018C199D09BA
:10042000AE09BF090297A105B10508F05FC0C6017A
:10043000880F991F880F991FED81FE81E80FF91F22
:10044000FE83ED8380809180A280B380A50194011A
:1004500069817A818B819C810E94CC1E2B013C0199
:10046000A5019401ED81FE8164817581868197816A
:100470000E94CC1E9B01AC01C301B2010E94481F27
:100480004B015C01CC0CDD1CCC0CDD1CF101EC0D36
:10049000FD1D4080518062807380A30192016481C0
:1004A0007581868197810E94CC1EA50194010E94CE
:1004B000E520A30192010E94CD1E26960FB6F89466
:1004C000DEBF0FBECDBFDF91CF911F910F91FF9087
:1004D000EF90DF90CF90BF90AF909F908F907F90E4
:1004E0006F905F904F903F902F900895F201EE0F24
:1004F000FF1FEE0FFF1F8D819E81E80FF91F2981DD
:100500003A814B815C8160817181828193810E94FB
:10051000E120181624F07301620124013501D7018E
:10052000C601840D951DA61DB71D530142012C0166
:100530003D0176946794579447946ECF7801640197
:10054000F1E0CF1AD108E108F108812C912C90E854
:10055000A92E9FE3B92E96CFC12CD12C7601812CE8
:10056000912C54018FCFCF92DF92EF92FF926B01CB
:100570007C019F7720E030E040E859E50E94441F6D
:1005800087FF2BC020E030E040E05FE3C701B60109
:100590000E94E12087FD0EC020E030E040E05FE3F4
:1005A000C701B6010E94CD1EFF90EF90DF90CF9063
:1005B0000C94192020E030E040E05FEBC701B60169
:1005C0000E94E120181684F420E030E0A901C70160
:1005D000B6010E94E5206B017C01C701B601FF90C6
:1005E000EF90DF90CF90089520E030E040E05FE3AF
:1005F000C701B6010E94CC1EFF90EF90DF90CF9014
:100600000C94311F4F925F926F927F928F929F92C4
:10061000AF92BF92CF92DF92EF92FF920F931F9310
:100620006091EF0770E090E080E00E94DC1F209175
:10063000C3023091C4024091C5025091C6020E948B
:10064000E52017E0E12EF12C00E010E022E832E096
:1006500042EA52E097DE20E030E044EB52E40E94B0
:10066000CD1E6B017C0120E030E0A9010E94441FF7
:1006700087FDF9C020E030E044E353E4C701B60150
:100680000E94E12064EB1816DCF0C701B6016BDFB5
:100690006B017C0120E030E040E853E40E94441FFD
:1006A0006FEF87FF0DC020E030E0A901C701B60160
:1006B0000E94E12087FDD7C0C701B6010E94B01F8C
:1006C00080E053DE8091EF079091C902890F8093FB
:1006D000EF079091C202981720F48091C70280938F
:1006E000EF0781E090E00E94A31140910D0450912A
:1006F0000E0460910F047091100490E080E00E945D
:100700009F1180901D0490901E04A0901F04B09033
:10071000200420E030E040E85FEBC501B4010E9416
:10072000441F882331F1C0900D04D0900E04E09056
:100730000F04F0901004A7019601C501B4010E94B6
:10074000CC1E4B015C0120E030E040E054E3C701E7
:10075000B6010E94E5209B01AC01C501B4010E94D5
:10076000E120181634F08EEC92E09093F803809319
:10077000F70380912104882331F08EEC92E090936E
:10078000F8038093F703C0901104D0901204E09016
:100790001304F09014048FEFC81AD80AE80AF80A74
:1007A000C0921104D0921204E0921304F092140447
:1007B000C114D104E104F10499F4809115049091DD
:1007C0001604A0911704B09118040196A11DB11D43
:1007D0008093150490931604A0931704B093180403
:1007E0008090190490901A04A0901B04B0901C04EF
:1007F000609115047091160480911704909118046B
:100800000E94DC1FA50194010E94E52020E030E059
:1008100040E85FE40E94E5202B013C01C701B601DE
:100820000E94DC1FA50194010E94E5209B01AC0100
:10083000C301B2010E94CD1E60930D0470930E049B
:1008400080930F04909310041F910F91FF90EF90ED
:10085000DF90CF90BF90AF909F908F907F906F90E0
:100860005F904F90089560E02BCFCF93DF93E7EF39
:10087000F3E08BE2DF011D928A95E9F780E090E0DA
:10088000A0E8BFEB86A397A3A0A7B1A78FE692E14C
:10089000A3E8BAE382A393A3A4A3B5A386E490E557
:1008A000A7E5B4E084839583A683B78385EF90EEB4
:1008B000A7EAB9E680879187A287B3878CE196E49F
:1008C000A7E3B7E684879587A687B7878AE791E687
:1008D000A3ECBAEF808B918BA28BB38BABEEB3E022
:1008E000B383A283C5EED3E01196DC93CE9382EE60
:1008F00092E0998388839B838A839D838C838BE09A
:1009000094E015969C938E9314978BEF93E0139637
:100910009C938E9312978DE094E017969C938E9300
:1009200016971092F0071092EF07ABEDB3E08AE054
:10093000ED0119928A95E9F7A1EDB3E0B58BA48B8F
:100940008FE090E011969C938E9384E692E013964C
:100950009C938E93129786E492E015969C938E93C7
:1009600014978AE292E017969C938E93169786E0EE
:1009700092E019969C938E931897CBEED7E081E086
:100980008D8381E090E0A0E0B0E088839983AA8322
:10099000BB8369E080E0E0DC8091C8028C83DF915A
:1009A000CF9108950895EF92FF920F931F93CF93E5
:1009B000DF93EA01F901DC011496ED90FC901597A4
:1009C00012964D915C9113974E0D5F1D28813981D0
:1009D00018960D911C9119970217130730F00D917D
:1009E0001C911197012B09F441C08A01021B130BC2
:1009F000DC0118968D919C918E199F09800F911F93
:100A000086179707DCF1C901860F971F8417950792
:100A100078F4718360833383228315821482178272
:100A2000168288819981680F791F7983688316C03F
:100A30001183008333832283601B710B758364836E
:100A400090E080E01616170614F49E2D8F2D9683E5
:100A50008783D701A60FB71FB983A88380E0DF91F2
:100A6000CF911F910F91FF90EF90089518968D915F
:100A70009C91821B930B861797075CF681E0EFCF62
:100A8000CF92DF92EF92FF92CF93DF936B0184E4DA
:100A9000869FE001879FD00D1124CE5DDB4F8AA990
:100AA0009BA9009721F00E94012B1BAA1AAA84E49B
:100AB0008C9DF0018D9DF00D1124EE5DFB4F86A9FC
:100AC00097A9009711F00E94012B84E48C9DF001FE
:100AD0008D9DF00D1124EE5DFB4F138A128A168A4C
:100AE000178A108E118E128E138E148E158E168EFE
:100AF000178E10A211A281E090E093A382A315A209
:100B000014A216A217A210A611A613A612A615A625
:100B100014A616A617A610AA11AA13AA12AA15AAF5
:100B200014AA17AA16AA11AE10AE12AE13AE14AEC6
:100B300015AEDF01DE961D921D921D921C92139739
:100B4000EE5BFF4F11821082DF91CF91FF90EF900B
:100B5000DF90CF900895CF93DF93FB01DC016D917F
:100B60007C91DB011696CD91DC918081918123E00F
:100B7000880F991F2A95E1F7AA81BB81A80FB91F99
:100B80008D919C91119724853585220F331FEB01A0
:100B90006A817B81EB01C20FD31F0990D881C02DE0
:100BA00014962D913C9161E070E0232B11F062E0EE
:100BB00070E0C69F9001C79F300DD69F300D112465
:100BC000A085B1852A9FB0012B9F700D3A9F700DB3
:100BD0001124A481B5812A9FF0012B9FF00D3A9F2B
:100BE000F00D11248E0F9F1FFA0191838083738370
:100BF0006283DF91CF9108952F923F924F925F923F
:100C00006F927F928F929F92AF92BF92CF92DF921C
:100C1000EF92FF920F931F93CF93DF9300D000D0FA
:100C2000CDB7DEB7DC011496ED91FC910190F08117
:100C3000E02D808591859A838983A281B381BC83CD
:100C4000AB83FB0181909190A190B190C12CD12CEC
:100C50007601C814D904EA04FB04CCF026960FB63A
:100C6000F894DEBF0FBECDBFDF91CF911F910F91E2
:100C7000FF90EF90DF90CF90BF90AF909F908F90BC
:100C80007F906F905F904F903F902F900895448099
:100C90005580668077804085518562857385CF0158
:100CA00040969E838D83A081B1819D0183E0220FB8
:100CB000331F8A95E1F7A981BA8112968D919C9193
:100CC000D901A80FB91F2D903C9011970484F58588
:100CD000E02DEE0FFF1F8B819C81E80FF91F019023
:100CE000F081E02D14968D919C91892B41F581E046
:100CF00090E0E89F9001E99F300DF89F300D11249E
:100D0000249F8001259F100D349F100D1124249DD8
:100D1000C001259D900D349D900D1124A8016D8179
:100D20007E81820D931D0E948A2BED81FE81E00F52
:100D3000F11F9FEFC91AD90AE90AF90A8ACF82E09E
:100D400090E0D7CFCF93DF93DB01A653BD4F2C911B
:100D5000222369F024E4269FF001279FF00D11243F
:100D6000EE5DFB4FEF0119922A95E9F71C9224E4FE
:100D7000269FF001279FF00D1124EE5DFB4F14829A
:100D80001582168217821186108613861286118AA2
:100D9000108A17861686DF91CF9172CE2F923F92DE
:100DA0004F925F926F927F928F929F92AF92BF927B
:100DB000CF92DF92EF92FF920F931F93CF93DF9327
:100DC00000D000D01F921F92CDB7DEB724E4269F3B
:100DD000F001279FF00D1124EE5DFB4F048115817A
:100DE00026813781012B022B032B09F4B7C02A017E
:100DF0006B017C0110E000E0812C912C54013F013B
:100E00009F01285F3F4F3C832B83CF0104969E8335
:100E10008D83AB81BC818D919C91ED81FE81408160
:100E200051816281738184169506A606B706E4F1A6
:100E30000E94012BD3011A968D919C91892B09F068
:100E40007EC084E48C9DD0018D9DB00D1124AE5DDB
:100E5000BB4FBC83AB8350968D919C910E94012B1C
:100E6000EB81FC81868597850E94012BC701B60125
:100E700007DEC701B60128960FB6F894DEBF0FBE95
:100E8000CDBFDF91CF911F910F91FF90EF90DF9039
:100E9000CF90BF90AF909F908F907F906F905F901A
:100EA0004F903F902F904ECFFC01E00FF11F9281A9
:100EB0009983A381AA839F83A887312C212C241492
:100EC000350464F089819A810E94012BEFEF8E1A1C
:100ED0009E0AAE0ABE0A0C5F1F4F9BCFAF81B8853A
:100EE000ED91FD91B887AF83309759F0848195815A
:100EF0000E94012BEF81F8853297808191810E94B9
:100F0000012BBFEF2B1A3B0ADACF800F911FFC0198
:100F1000848195810E94012B2B813C812F5F3F4F63
:100F20003C832B83025F1F4FF501808191812B81D0
:100F30003C81241535054CF30E94012B82CF10E033
:100F400000E01C821B8224E42C9DC0012D9D900D8D
:100F50001124DC01A45DBB4F5D01E6CF28960FB6DE
:100F6000F894DEBF0FBECDBFDF91CF911F910F91DF
:100F7000FF90EF90DF90CF90BF90AF909F908F90B9
:100F80007F906F905F904F903F902F90089524E452
:100F9000269FF001279FF00D1124EE5DFB4F828903
:100FA00093890497029758F485E090E0938B828BA5
:100FB0008FEF9FEFDC01828F938FA48FB58F089501
:100FC0002F923F924F925F926F927F928F929F9259
:100FD000AF92BF92CF92DF92EF92FF920F931F9347
:100FE000CF93DF93CDB7DEB7AA970FB6F894DEBFE5
:100FF0000FBECDBF9AA389A37E8B6D8B1A01098B7F
:101000001A8B2B8B3C8B84E429893A89829F60015F
:10101000839FD00C112486010E5D1B4F89899A890C
:10102000AB89BC89F80180839183A283B383AB0130
:10103000BC01CD01B3DED601AA5DBB4F84E0F10156
:1010400001900D928A95E1F7F4E02F0E311C64E0D7
:1010500070E0D80114968D919C910E944B2AF80162
:1010600091878087892B09F0F5C04D895E89698950
:101070007A898B899C8992DE81E0AA960FB6F894D2
:10108000DEBF0FBECDBFDF91CF911F910F91FF90BB
:10109000EF90DF90CF90BF90AF909F908F907F9018
:1010A0006F905F904F903F902F900895A9A5BAA59B
:1010B0008D919C91E98DFA8DE80FF91FF88FEF8BD8
:1010C000D1018D919C91880F991FA9A1BAA1ED9191
:1010D000FC91E80FF91F80819181EF89F88D918350
:1010E0008083D10114962D913D914D915C9117977C
:1010F0002BA33CA34DA35EA362E070E08D899E8983
:101100000E944B2AEF89F88D93838283892B09F4FF
:10111000ACCFF8E02F0E311C412C512C32012BA109
:101120003CA14DA15EA142165306640675069CF0D3
:101130002B8D3C8D4D8D5E8D2F5F3F4F4F4F5F4F01
:101140002B8F3C8F4D8F5E8F498D5A8D4C5F5F4F3B
:101150005A8F498F90C0610124E0C20ED11CD10189
:10116000ED90FC90EE0CFF1CEF89F88D828193814D
:10117000E80EF91E68E070E081E090E00E944B2AE2
:101180008C01D7018D939C93892B09F46ECF84E059
:10119000F601D80101900D928A95E1F7B8E02B0E87
:1011A000311CF80180819181A281B3811816190642
:1011B0001A061B06DCF464E070E00E944B2AD8019A
:1011C00015969C938E931497892B09F44ECFD12CAE
:1011D000C12C812C912C5401F80180819181A28134
:1011E000B38188169906AA06BB0634F0FFEF4F1AA2
:1011F0005F0A6F0A7F0A93CFF801E480F580EC0C58
:10120000FD1C80E1F101DE01119601900D928A959D
:10121000E1F7F0E12F0E311CA701BE016F5F7F4F98
:10122000A9A1BAA114968D919C9195DCF8018681B3
:101230009781D70112962D913C91820F931F97832E
:101240008683BFEF8B1A9B0AAB0ABB0AE4E0CE0E83
:10125000D11CC2CF1A8E198E1B8E1C8E1D8E1E8E17
:1012600018A30F8FA8014C5F5F4F58A74FA3C80169
:1012700008969AA789A7EFA1F8A580819181A281FC
:10128000B3812B8D3C8D4D8D5E8D281739074A0714
:101290005B070CF40BCF6EE070E08D899E890E9495
:1012A0004B2AAF8DB8A11B969C938E931A97B12CA5
:1012B000A12CD12CC12CF12CE12C24E4E989FA8950
:1012C0002E9FC0012F9F900D11249C01245D3B4F48
:1012D000388F2F8B88248394912C4D895E89C41676
:1012E000D50654F184E4A989BA898A9F80018B9F2D
:1012F000100D11240E5D1B4FF80115861486C701D1
:1013000033E0880F991F3A95E1F70E94652AD801CA
:1013100051969C938E935097892B09F4A6CEC701C2
:10132000880F991F0E94652AF80197878687892B65
:1013300009F49BCE80E0A1CED1014D905D906D90DF
:101340007D901D0177FC91CEEF89F88D0081118190
:101350000A0D1B1DD80111969C928E9241145104C6
:101360006104710429F1C2010E94652AF801958384
:101370008483892B09F479CEF801538242828481D7
:10138000958197838683918780871386128681E073
:1013900090E045284628472811F490E080E0E80EC8
:1013A000F91EFFEFCF1ADF0A2EE0A20EB11C95CF77
:1013B00015961C921E921497DFCF2F923F924F9258
:1013C0005F926F927F928F929F92AF92BF92CF92D5
:1013D000DF92EF92FF920F931F93CF93DF93CDB7DE
:1013E000DEB76A970FB6F894DEBF0FBECDBF9E8BF7
:1013F0008D8B49015A0184E4829F7001839FF00C18
:10140000112497012E5D3B4F6901FB018081918181
:10141000F901958B848BD701A85CBB4FFB013496F7
:1014200084E001900D928A95E1F7D701A45CBB4F4F
:10143000FB01389684E001900D928A95E1F7D7017F
:10144000A05CBB4FFB013C9684E001900D928A9515
:10145000E1F7D701A05BBB4FFB01709684E00190E0
:101460000D928A95E1F78B010C5E1F4FF90186A55D
:1014700097A5A0A9B1A918161906DCF5880F991F20
:10148000880F991F0E94652AF60193AB82AB892BC6
:1014900009F4D3C0312C212C412C512C320196015E
:1014A000225D3F4F388F2F8BC601C2969A8F898F4E
:1014B000F496FC8BEB8BB301A2012FEF421A520A78
:1014C000620A720AEF89F88D80819181A281B381CD
:1014D000481759076A077B070CF47BC0F60184A9FB
:1014E00095A90E94652AF60197AB86AB892B09F472
:1014F000A4C0F80180819181A281B38124E4289D58
:10150000F001299DF00D1124EE5DFB4FAC01BD01F2
:101510004D7F21E030E0452B462B472B11F030E08A
:1015200020E033A322A324E4289DF001299DF00D9F
:101530001124EE5DFB4F0197A109B10921E030E0D4
:101540000297A105B10510F030E020E035A324A3F7
:10155000D701A85BBB4FF801349684E001900D924F
:101560008A95E1F784E4889DF001899DF00D1124AE
:10157000EE5DFB4F868D978DA0A1B1A1B7FF58C03E
:10158000B095A095909581959F4FAF4FBF4F82AF7B
:1015900093AFA4AFB5AF168E178E10A211A280E044
:1015A0006A960FB6F894DEBF0FBECDBFDF91CF9124
:1015B0001F910F91FF90EF90DF90CF90BF90AF9071
:1015C0009F908F907F906F905F904F903F902F9063
:1015D0000895E98DFA8D808191819C01220D331D42
:1015E0003A8B298B80E1F801DE01119601900D9272
:1015F0008A95E1F7005F1F4F49895A89BE016F5FE5
:101600007F4FED89FE8984819581A5DAEB89FC897C
:1016100080819181E989FA8922813381820F931F28
:10162000EB89FC8991838083F4E02F0E311C43CF3A
:1016300012AE13AE14AE15AEB2CFC501B40120DAAE
:1016400081E0AECFCF92DF92EF92FF92CF93DF9304
:101650001092AA0424E4269FF001279FF00D112484
:10166000EE5DFB4F15A614A630E020E0D12CC12C76
:10167000DF011A96C1E0D0E0C416D506F4F024E4E8
:10168000269FF001279FF00D1124EE5DFB4F13A65E
:1016900012A611AE10AEDF01DE961D921D921D92B4
:1016A0001C92139782E090E0938B828BDF91CF9115
:1016B000FF90EF90DF90CF900895ED91FC911197FE
:1016C000E20FF31FE280F3801E141F0454F4E48041
:1016D000F580F782E682F186E08613861286D18352
:1016E000C083EFEFCE1ADE0A225F3F4FC5CF24E45E
:1016F000269FF001279FF00D1124EE5DFB4F138A0A
:10170000128A4CCB24E4269FF001279FF00D112470
:10171000EE5DFB4F8289938981309105C8F0853059
:10172000910518F0059769F008958FEF9FEFDC01A0
:10173000828F938FA48FB58F85E090E0938B828BFF
:1017400008958FEF9FEFDC01828F938FA48FB58F69
:10175000089524E4249FD001259FB00D1124AE5D8F
:10176000BB4F2EE0AC01249FC001259F900D11249A
:101770001A96ED91FC91E80FF91F81E08093AA047D
:101780008285938591878087408551852681378121
:1017900081E090E04217530711F090E080E09183E0
:1017A000808308952F923F924F925F926F927F9223
:1017B0008F929F92AF92BF92CF92DF92EF92FF9261
:1017C0000F931F93CF93DF93CDB7DEB7C055D109E9
:1017D0000FB6F894DEBF0FBECDBF9EAF8DAF4BA747
:1017E0005CA76DA77EA76801790184E4809FF00162
:1017F000819FF00D1124EE5DFB4F228533852396EA
:101800003FAF2EAF239782899389029761F486A513
:1018100097A5A0A9B1A9892B8A2B8B2BC9F584E0A8
:1018200090E0938B828B84E48C9DF0018D9DF00D74
:101830001124EE5DFB4F828993898230910509F076
:1018400037C282AD93ADA4ADB5AD22242394312C23
:10185000181619061A061B060CF42FC2C05BDF4FC0
:101860000FB6F894DEBF0FBECDBFDF91CF911F91B1
:101870000F91FF90EF90DF90CF90BF90AF909F902F
:101880008F907F906F905F904F903F902F90089532
:10189000848995894DAD5EAD8417950721F606A91B
:1018A00017A918AE1FAA1BAA1CAA1DAA1EAA1F01AF
:1018B000CF018E9627969FAF8EAF2797DF01D296E6
:1018C0002996BFAFAEAF2997F8962B96FFAFEEAF34
:1018D0002B9791012A5D3F4F2D963FAF2EAF2D974D
:1018E000A1014E5D5F4F2F965FAF4EAF2F970A97C6
:1018F00061969FAF8EAF61972796EEADFFAD2797AC
:1019000080819181A281B3812BA93CA94DA95EA9B7
:10191000281739074A075B0744F081E090E0D101BE
:10192000D9969C938E93D8977ECF2996AEADBFADB6
:101930002997ED91FC912FA938ADE20FF31F428159
:1019400053815AAF49AF50815FAF818121968FAFEC
:1019500021972B96AEADBFAD2B978D919C91892B86
:1019600021F12D96EEADFFAD2D9780809180A28064
:10197000B3801AAB09AB5FA72196FFAD2197F8ABF7
:1019800029AD3AAD369527953695279525963FAFE3
:101990002EAF25971CAE1BAE2596AEADBFAD2597DD
:1019A000EBADFCADEA17FB070CF149AD5AAD6FADDD
:1019B00021967FAD2197C8010E948A2B89AD9AADEF
:1019C0008C7F080F191F2BA93CA94DA95EA92F5F79
:1019D0003F4F4F4F5F4F2BAB3CAB4DAB5EAB4FA977
:1019E00058AD4C5F5F4F58AF4FAB86CF2F96AEAD23
:1019F000BFAD2F978D919C91892B71F1EFA5F8A91F
:101A00004080518062807380A3019201C501B401BE
:101A10000E94441F181664F0A9A9BAA92D913D91FE
:101A20004D915C91C501B4010E94E1201816BCF1F2
:101A3000A3019201C501B4010E94441F87FF0CC09D
:101A4000E9A9FAA92081318142815381C501B401FC
:101A50000E94441F882319F16196AEADBFAD619716
:101A60008D919C91892B09F445C0EFA5F8A9408080
:101A7000518062807380A3019201C501B4010E946C
:101A8000E12018161CF5A9A9BAA92D913D914D91F7
:101A90005C91C501B4010E94441F18165CF184E4F6
:101AA0008C9DF0018D9DF00D1124EE5DFB4F868D18
:101AB000978DA0A1B1A1892B8A2B8B2B69F183E093
:101AC00090E0938B828B81E090E02CC0A301920187
:101AD000C501B4010E94441F81110CC0E9A9FAA9F3
:101AE0002081318142815381C501B4010E94441F8C
:101AF00087FDD5CF2BAD3CAD2F5F3F4F3CAF2BAF1C
:101B000049A95AA94C5F5F4F5AAB49AB8FA598A919
:101B1000049698AB8FA740CF84E090E0938B828BA4
:101B200086AD97AD93A782A77ECEEBADFCAD80814D
:101B30009181F401EE0FFF1FEE0FFF1FE80FF91F59
:101B4000A081B1818C9181110AC0FFEF8F1A9F0A89
:101B5000AF0ABF0A8DA29EA2AFA2B8A68FC18330E2
:101B6000A1F30280F381E02D2FA938ADE20FF31F1E
:101B7000808191819AAB89AB892B39F34F5F5F4F9D
:101B80006F4F7F4F49875A876B877C879E01235E03
:101B90003F4FAE01475D5F4F64E070E0C8010E94B7
:101BA000D3048111D0C18D819E81AF81B885049607
:101BB000A11DB11D8D839E83AF83B8874D8D5E8D32
:101BC000BE016B5D7F4F8F8D98A10E948A2B8BA1E8
:101BD0009CA1009761F06D8D7E8DA5E2B0E0AC0F09
:101BE000BD1F6A0F7B1F49A15AA10E948A2B1CAA04
:101BF0001BAA412C512C3201E9A9FAA980819181BB
:101C0000A281B381481659066A067B060CF09DCF67
:101C1000E9A9FAA9848195812BA93CA9280F391F2C
:101C200038AB2FA7D90112966D917C919E01235E4E
:101C30003F4FAE01475D5F4FC8010E94D304811141
:101C400082C1EFA5F8A982819381092E000CAA0B0D
:101C5000BB0B4D815E816F817885840F951FA61F18
:101C6000B71F8D839E83AF83B887608171814D8D4F
:101C70005E8D8F8D98A10E948A2B8BA19CA10097CD
:101C800061F0AFA5B8A96D917C912D8D3E8D620F4D
:101C9000731F49A15AA10E948A2BBFEF4B1A5B0AFE
:101CA0006B0A7B0AEBA9FCA93496FCABEBABA4CF87
:101CB000312C212C049709F0D1CD8EE0EDADFEAD95
:101CC0008E9F80018F9F100D112423962EAD3FAD66
:101CD0002397020F131FD80112964D915C91139711
:101CE0004115510509F4BACD16968D919C919AA78C
:101CF00089A780E1FE013196DF011D928A95E9F7FF
:101D0000C98ADA8AEB8AFC8A2114310409F458C0A2
:101D100084E48C9DF0018D9DF00D1124EE5DFB4F50
:101D2000DF01DE968D909D90AD90BC9082AD93AD1D
:101D3000A4ADB5AD88169906AA06BB0609F040C049
:101D4000F801848195810084F185E02D349624E0AA
:101D5000DE01559601900D922A95E1F72D893E8975
:101D6000285F3F4F3E8B2D8BD80118966D917C914B
:101D70001997260F371F19963C932E93189718968C
:101D80002D913C911997480F591F241B350B37FD96
:101D900006C0820F931F19969C938E93189784E424
:101DA0008C9DF0018D9DF00D1124E05AFB4FB1E0A8
:101DB0008B1A9108A108B10880829182A282B38215
:101DC0009E012B5E3F4FAE01475D5F4F64E170E0C7
:101DD000C8010E94D3048111B6C08CE090E0A0E05D
:101DE000B0E08D839E83AF83B8879E01235E3F4F13
:101DF000AE01475D5F4F64E070E0C8010E94D3040C
:101E00008111A1C080E190E0A0E0B0E08D839E83CD
:101E1000AF83B8874D8D5E8DBE01655D7F4F8F8D21
:101E200098A10E948A2B8BA19CA1009761F06D8DD7
:101E30007E8DEBE2F0E0EC0FFD1F6E0F7F1F49A1DE
:101E40005AA10E948A2B1DA21EA21FA218A62DAD68
:101E50003EAD220F331F38AF2FAB24E42C9DC001C1
:101E60002D9D900D11248E5D9B4FAC014C5F5F4FFB
:101E70005AAF49AFDC011896BCAFABAF8DA09EA0A6
:101E8000AFA0B8A449855A856B857C85E9ADFAADCC
:101E900080819181A281B38188169906AA06BB062A
:101EA0000CF443CE452B462B472B09F4D7CC8AE1C3
:101EB00090E0A0E0B0E089839A83AB83BC832DAD32
:101EC0003EADC901330FAA0BBB0B8D879E87AF8731
:101ED000B88B4D895E89BE016F5F7F4F8F89988D6A
:101EE0000E948A2B8B8D9C8D009761F06D897E8975
:101EF00041E050E04C0F5D1F640F751F498D5A8DF6
:101F00000E948A2B89A59AA5D80117969C938E9337
:101F1000169711961C921E92232809F49FCC84E4F4
:101F20008C9DF0018D9DF00D1124E05AFB4F8081B6
:101F30009181A281B3810196A11DB11D80839183FE
:101F4000A283B3838BCC232809F088CC84E48C9DB6
:101F5000F0018D9DF00D1124EE5DFB4F81E090E0CE
:101F600095A784A785E090E0938B828B77CCCF9266
:101F7000DF92EF92FF920F931F9324E4269FF001CC
:101F8000279FF00D1124EE5DFB4F22893389211527
:101F9000310509F452C06B017C0121303105B1F4E7
:101FA00082A593A59C012F5F3F4F33A722A7092E3F
:101FB000000CAA0BBB0B028D138D248D358D801761
:101FC0009107A207B307C9F5C7013CDB84E48C9DE8
:101FD000F0018D9DF00D1124EE5DFB4F82899389F8
:101FE000039759F582A593A59C012F5F3F4F33A717
:101FF00022A7092E000CAA0BBB0B468D578D60A1A2
:1020000071A184179507A607B707BCF086AD97ADF9
:1020100093A782A784E090E0938B828B82AD93ADEF
:10202000A4ADB5AD181619061A061B0634F4EE5BFE
:10203000FF4F81E090E0918380831F910F91FF908B
:10204000EF90DF90CF90089524E4269FF001279F22
:10205000F00D1124EE5DFB4F828993890497B1F452
:1020600082A593A5019693A782A7092E000CAA0B1F
:10207000BB0B46895789608D718D84179507A6071C
:10208000B70721F485E090E0938B828B08952F921F
:102090003F924F925F926F927F928F929F92AF92F8
:1020A000BF92CF92DF92EF92FF920F931F93CF9345
:1020B000DF93CDB7DEB72E970FB6F894DEBF0FBE15
:1020C000CDBFDC0149835A836B837C83290184E47F
:1020D000849FF001859FF00D1124EE5DFB4F228857
:1020E0003388C1010497029708F0D5C011961C925D
:1020F0001E9213961C921E92129715861486912C8E
:10210000812C90E080E08F019F01205F3F4F388756
:102110002F833F013CE0630E711CBF01625F7F4F64
:102120007A8769873A96FC87EB87EF81F88520816B
:102130003181F30140815181E985FA85A080B18028
:10214000841595050CF445C011965C934E93139637
:102150003C932E9312971596BC92AE921497452BF2
:10216000F9F4F5E02F163104D9F41092AA04F8011D
:10217000828D938DA48DB58DAE014F5F5F4F64E06E
:1021800070E08F3F9F4FAF4FBF4F09F079C080E2A3
:1021900090E0F6D469817A818B819C81A201A7DAD3
:1021A0002E960FB6F894DEBF0FBECDBFDF91CF9154
:1021B0001F910F91FF90EF90DF90CF90BF90AF9065
:1021C0009F908F907F906F905F904F903F902F9057
:1021D0000895EB85FC8560817181FB01E80DF91D97
:1021E000FE87ED8760817181672B89F5E084F1843A
:1021F000628173817E836D83668177816A01E3E00A
:10220000CC0CDD1CEA95E1F72C0D3D1D440F551F4C
:102210004A0D5B1DFA0191838083F3014081518156
:102220004F5F5F4F51834083F901F382E282ED8576
:10223000FE8573876287E616F70670F46E197F09CC
:10224000F9017183608315821482178216820196C8
:10225000FEE08F0E911C69CFED85FE85C480D58090
:102260004D815E814C0D5D1D4E195F09F901518351
:1022700040836C197D0975836483D782C682E7CF5A
:102280008FE190E07DD4F80113A612A681E090E0E2
:10229000938B828B85CF1586148611961C921E9285
:1022A00013961C921E9212977BCFEF92FF920F9380
:1022B0001F93CF93DF937C018B01EA013DD5811100
:1022C0001BC08091CC029091CD020497F9F4DF916C
:1022D000CF911F910F91FF90EF90089528ED38EB6B
:1022E00045E050E060E070E0CB01DCD7AE01B80122
:1022F000C701E6D7C801AFD78091AB049091AC0479
:10230000892BF9F68881882349F3DBCF83E090E0BD
:102310009093CD028093CC02DACFCF93DF932091BC
:10232000CC023091CD022430310531F0EB01C8D719
:10233000CE01DF91CF918FC7DF91CF9108950C949B
:102340005E1D0C94531D0C94411D95C70C94E51C07
:10235000089570E060E090E080E0C9C40895AF9215
:10236000BF92CF92DF92EF92FF920F931F93CF9382
:10237000DF931F921F92CDB7DEB75C018B0169011D
:102380007A0190E080E0C114D104E104F10469F421
:102390000F900F90DF91CF911F910F91FF90EF90D1
:1023A000DF90CF90BF90AF9008959C2D8D2DC114DC
:1023B000D10421E0E206F10410F09FEF8FEF9E01BF
:1023C0002F5F3F4F492F582FB801C5010E94ED1DC7
:1023D0008F3F9807E9F229813A81C21AD30AE108AE
:1023E000F108020F131FCFCF40E855E260E070E024
:1023F00090E080E000C08130910579F01CF4892BD9
:1024000039F008958230910561F0039771F00895D5
:1024100026E087E795E00C94AD2626E084E196E07F
:10242000FACF26E081EB96E0F6CF26E08EE497E047
:10243000F2CF1F920F920FB60F9211240BB60F928C
:102440002F933F934F935F936F937F938F939F93BC
:10245000AF93BF93EF93FF9386E09FEF9093850038
:10246000809384000E94271EFF91EF91BF91AF914E
:102470009F918F917F916F915F914F913F912F919C
:102480000F900BBE0F900FBE0F901F90189586E017
:102490009FEF9093850080938400AFE6B0E08C912D
:1024A0008E7F8C93E0E8F0E080818C7F8083E1E890
:1024B000F0E08081877E808380818360808380815B
:1024C0008B7F80838C9181608C93089581E0089547
:1024D0008F929F92AF92BF92CF92DF92EF92FF9234
:1024E0000F931F93CF93DF935C017B018A01C1E0BF
:1024F000D0E0CE15DF05CCF081E0F5018083B80196
:10250000C7010E94881DF5019283818390E080E0DD
:10251000DF91CF911F910F91FF90EF90DF90CF90BF
:10252000BF90AF909F908F9008956E018FEFC81A63
:10253000D80AFE01EE0FFF1FE00FF11F808091808F
:102540008114910469F061E773E0C4010E949A2B41
:10255000892B41F4CC0FDD1FC00FD11F19821882C7
:10256000E601C7CF64E773E0C4010E949A2B892B70
:10257000B9F7EC14FD04A1F36E01E2E0CE0ED11C1C
:10258000CC0FDD1FC00FD11F198218821B821A8247
:10259000E7CF8DEA94E0089580E008950F931F93AC
:1025A000CF93DF938B01BA01E90119821882980158
:1025B000012E000C440B550BFC0181819281CFDE72
:1025C000019641F01983088380E0DF91CF911F913C
:1025D0000F91089581E0F9CF0F931F93CF93DF936D
:1025E0001F921F92CDB7DEB7FB018A01B9019E0190
:1025F0002F5F3F4FAF01FC01818192810E949F1D9F
:10260000019669F089819A81F8019183808380E045
:102610000F900F90DF91CF911F910F91089581E05E
:10262000F7CFFC01808108950895089581E0FB01B2
:10263000808380E0089508951092D5040895FC01E8
:10264000818192810C94801DCF93DF9300D000D0C4
:1026500000D01F92CDB7DEB7B0E0A0E089839A83A7
:10266000AB83BC83CB01770FAA0BBB0B8D839E83FF
:10267000AF83B8879E01275F3F4FAE014F5F5F4F2B
:1026800068E070E08091C4049091C50487DF8111F7
:1026900010C081E029853A852830310509F480E0B1
:1026A0002A960FB6F894DEBF0FBECDBFDF91CF9153
:1026B000089581E0F5CF0F931F93CF93DF931F927F
:1026C0001F92CDB7DEB78B019E012F5F3F4FAC014C
:1026D0008091C4049091C50461DF81110EC081E036
:1026E00029813A812017310709F480E00F900F907B
:1026F000DF91CF911F910F91089581E0F7CFCF9394
:10270000DF93EC011092C8041092C7041092D40415
:102710001092D304AC0160E070E0CB010E94770B13
:10272000AE0161E070E080E090E00E94770B809164
:10273000C4049091C504DF91CF917DCF4F925F92F9
:102740006F927F928F929F92AF92BF92CF92DF92C1
:10275000EF92FF920F931F93CF93DF931F921F92DD
:10276000CDB7DEB78C017C0197FF03C087E0E80E90
:10277000F11C23E0F594E7942A95E1F7C80168E09D
:1027800070E00E94C5296C010E5F1F4F8091C2044A
:102790009091C30480179107D4F48091C004909164
:1027A000C104009731F00E94012B1092C3041092D3
:1027B000C204C8010E94652A9093C1048093C0049A
:1027C000892B09F482C01093C3040093C20410E063
:1027D00000E047C1412C512C3201B12CA12C9501B4
:1027E00027533B4FAE014F5F5F4F61E070E0809138
:1027F000C4049091C504F0DE811149C0EFEF4E1A78
:102800005E0A6E0A7E0AF0E94F16FFE55F06F1E008
:102810006F06710444F06091D3047091D4048DEE7E
:1028200090E012DFD7CF89819A81A80EB91E8AE085
:10283000A816B10409F043C049E050E070E060E040
:1028400089EC94E00E94191E6091D3047091D40425
:10285000882391F18091D10490E08617970781F445
:10286000BC018EEE90E0F0DE8091D3049091D40410
:10287000019699279093D4048093D3040F5F1F4F40
:102880000E151F050CF4A6CFCD2809F07CC090E0F2
:1028900080E00F900F90DF91CF911F910F91FF90EB
:1028A000EF90DF90CF90BF90AF909F908F907F90F0
:1028B0006F905F904F9008958FEE90E0B2CFEAE076
:1028C000AE16B1040CF48BCFDBCF10E000E0D8CF14
:1028D0000A30110531F549E050E070E060E089EC24
:1028E00094E00E94191E6091D3047091D40488234F
:1028F000A9F08091D10490E08617970741F6BC01BA
:102900008EEE90E0A1DE8091D3049091D4040196E4
:1029100099279093D4048093D304B9CF8FEE90E09D
:102920002BC00A3011050CF0B2CF980127533B4F52
:10293000AE014F5F5F4F61E070E08091C404909101
:10294000C5044ADE8111A3CF89819A81080F191F1E
:10295000FFEFCF1ADF0AEF0AFF0A80E9C8168FE5FA
:10296000D80681E0E806F1040CF4B2CF6091D304FC
:102970007091D4048DEE90E067DE10E000E0C12C91
:10298000D12C7601D2CFC12CD12C760110E000E001
:10299000CCCF412C512C3201B12CA12C480193E019
:1029A000880C991C9A95E1F72091C0043091C104DC
:1029B000C501880D991D280F391FAE014F5F5F4F6C
:1029C00061E070E08091C4049091C50405DE81113E
:1029D0005ECFEFEF4E1A5E0A6E0A7E0A6091D30454
:1029E0007091D4048DEE90E0F0E94F16FFE55F069C
:1029F000F1E06F0671040CF043C089819A81A80E42
:102A0000B91E8AE0A816B10409F041C049E050E0BF
:102A1000B4018091C0049091C1040E94191E60917C
:102A2000D3047091D404882349F18091C00490911B
:102A3000C104880E991EF401808590E086179707DF
:102A400081F4BC018EEE90E0FFDD8091D304909183
:102A5000D404019699279093D4048093D3040F5FF4
:102A60001F4F0E151F050CF494CFC114D10409F0AB
:102A700081C08091C0049091C1040BCF8FEE90E093
:102A8000E3DD412C512C3201B12CA12C8DCFFAE089
:102A9000AF16B1040CF488CFE4CF8FEE90E0D4DD14
:102AA000F12CE12C812C912C5401970127533B4FA1
:102AB000AE014F5F5F4F61E070E08091C404909180
:102AC000C5048ADD8111E3CE8FEF881A980AA80A1F
:102AD000B80A6091D3047091D4048DEE90E0E0E9DF
:102AE0008E16EFE59E06E1E0AE06B104C4F68981DC
:102AF0009A81E80EF91EFAE0EF16F104A9F549E013
:102B000050E070E060E089EC94E00E94191E609152
:102B1000D3047091D404882309F4BFCF8091D104E9
:102B200090E08617970709F0A4CFBC018EEE90E0E5
:102B30008BDD83E0000F111F8A95E1F78091C004BF
:102B40009091C104A60169EC74E0800F911F0E946E
:102B50008A2B8091D3049091D40401969927909365
:102B6000D4048093D30485CF8AE0E816F1040CF4F2
:102B70009CCF7FCF812C912C5401F12CE12C95CF4F
:102B8000CF92DF92EF92FF920F931F93CF93DF9339
:102B90001F92CDB7DEB76C017B018A01452B39F05E
:102BA000AB0170E060E0C8010E94151E8983B70187
:102BB000C6014ADD81110DC00115110551F0B701A3
:102BC000C80179DD811105C061E070E0CE01019698
:102BD00072DD0F90DF91CF911F910F91FF90EF90D9
:102BE000DF90CF900895CF92DF92EF92FF92CF9334
:102BF000DF9300D000D01F921F92CDB7DEB76B01DC
:102C0000F12CE12CC982DA82EB82FC822D833E8397
:102C10004F835887AE014F5F5F4F68E070E0B0DFD1
:102C200028960FB6F894DEBF0FBECDBFDF91CF91CF
:102C3000FF90EF90DF90CF9008958F929F92AF9288
:102C4000BF92CF92DF92EF92FF920F931F93CF9399
:102C5000DF937C01EB01CA01690170DD0097B1F4DB
:102C60002FEF3FEFA90161E070E0C701BCDFC1E0D9
:102C70008C2FDF91CF911F910F91FF90EF90DF90FC
:102C8000CF90BF90AF909F908F900895FC0181905E
:102C90009190A190B190BF01FCE1EF16F10479F49D
:102CA000A5019401CE010E94DD09C82FA501940160
:102CB000882369F061E070E0C70195DFD9CF950105
:102CC0008401AB01B601CE010E94E007EECF70E0B7
:102CD00060E0C701DF91CF911F910F91FF90EF90BE
:102CE000DF90CF90BF90AF909F908F907CCF0F934D
:102CF0001F93CF93DF93EC018B014BDC9093C504C2
:102D00008093C4040097A9F0A801BE01E1DBEC01A7
:102D1000892B49F08091C4049091C50485DC109200
:102D2000C5041092C404CE01DF91CF911F910F9181
:102D30000895C0E8D3E0EECF8091C4049091C5041B
:102D400070CC2F923F924F925F926F927F928F92B0
:102D50009F92AF92BF92CF92DF92EF92FF920F932A
:102D60001F93CF93DF93CDB7DEB769970FB6F89473
:102D7000DEBF0FBECDBF2091C8042223F1F05B8BD4
:102D80004A8B6E877F87888B998B9A01AB01BC0138
:102D9000CE0101967C017BD910E048E0242E312C35
:102DA000E88EF98E89819A81181619060CF450C2A2
:102DB000112319F08A899B89A2DC69960FB6F894D1
:102DC000DEBF0FBECDBFDF91CF911F910F91FF905E
:102DD000EF90DF90CF90BF90AF909F908F907F90BB
:102DE0006F905F904F903F902F900895EB81FC8102
:102DF0008C859D8533E0880F991F3A95E1F7E80FA0
:102E0000F91F808191819093BF048093BE04248137
:102E10003581428153815093BD044093BC04468167
:102E200057815093BB044093BA04820F931F9C01B7
:102E3000990F440B550B2C8B3D8B4E8B5F8B812C4C
:102E4000912C54018C899D89AE89BF898816990679
:102E5000AA06BB0638F18C859D85880F991FED81E8
:102E6000FE81E80FF91F4E855F8568897989808129
:102E700091810E94A90BAC85BD851196BD87AC8759
:102E800089819A81EC85FD85E817F9070CF4AECFAE
:102E90002A893B894E855F8568897989888D998DD6
:102EA000F6D880CF1F826091BE047091BF04CB0121
:102EB000072E000CAA0BBB0B84017501640134E0E2
:102EC000C30ED11CE11CF11CC816D906EA06FB068C
:102ED00008F0B3C02091BC043091BD04A4014C5F44
:102EE0005F4F240F351FF901C080D12CF12CE12C4C
:102EF00024013501F5E04F0E511C611C711C481670
:102F000059066A067B0608F0A3C02091BC043091E4
:102F1000BD04F8013596E20FF31F2081D22A240167
:102F2000350126E0420E511C611C711C48165906E1
:102F30006A067B0608F097C02091BC043091BD045E
:102F4000F8013696E20FF31F2081E22A24013501B1
:102F500037E0430E511C611C711C481659066A0665
:102F60007B0608F08BC02091BC043091BD04F801B1
:102F70003796E20FF31F208126013701722A75016F
:102F8000640148E0C40ED11CE11CF11C8C159D05A8
:102F9000AE05BF0508F41DC188169906AA06BB0632
:102FA00008F077C08091BC049091BD04800F911F00
:102FB00068E070E080DBE091BE04F091BF049F0107
:102FC0000F2E000C440B550BD301C2018C0D9D1D1F
:102FD000AE1DBF1D281739074A075B0708F478C0E4
:102FE000C216D306E406F50608F05DC08091BC0465
:102FF0009091BD049801285F3F4F820F931FB2014B
:103000005ADB8091BE049091BF04AC01092E000CE4
:10301000660B770BC416D506E606F70608F04DC01A
:10302000085F1F4F8091BC049091BD04800F911FD9
:10303000A20170E060E0F9D5A7C044E050E0461B73
:10304000570B480D591D2091BA043091BB0449CF4C
:10305000E5E0F0E0E61BF70BE00FF11F2091BA046A
:103060003091BB0458CFE6E0F0E0E61BF70BE00F31
:10307000F11F2091BA043091BB0464CFE7E0F0E087
:10308000E61BF70BE00FF11F2091BA043091BB044F
:1030900070CF9801261B370B8091BA049091BB0426
:1030A000820F931F85CF91012E1B3F0B200F311FE5
:1030B0008091BA049091BB04A0CFD101A81BB90B99
:1030C000CD01080F191F8091BA049091BB04AECFB7
:1030D000BF0168507109601B710BC216D306E4066C
:1030E000F50608F062C08091BC049091BD0498017F
:1030F000285F3F4F820F931FDEDA8091BE049091CC
:10310000BF04B101681B790B600F711F640D751D41
:103110008091BA049091BB04CEDA8091BE04909164
:10312000BF04AC0148505109FA01E01BF10BAC019E
:10313000092E000C660B770BC416D506E606F706BB
:1031400008F03DC08091BC049091BD049801285FB7
:103150003F4F820F931FAF0170E060E066D58F8311
:103160002091BE043091BF04F101E21BF30B9F01DB
:10317000200F311F240D351D50E040E0682F809155
:10318000BA049091BB043DD58F8361E070E0CE011D
:10319000079691DA182F38E0430E511C611C711C00
:1031A000840C951CA61CB71C4DCE91012E1B3F0B09
:1031B000200F311F8091BA049091BB049BCF9101E5
:1031C000281B390B200F311F8091BA049091BB044A
:1031D000C0CF88169906AA06BB0668F5601B710B5E
:1031E0008091BC049091BD04800F911F64DA80919E
:1031F000BE049091BF04B101681B790B600F711F71
:10320000640D751D8091BA049091BB0454DA8091CD
:10321000BE049091BF04AC01092E000C660B770B25
:10322000C416D506E606F70608F4FACE9101281B67
:10323000390BC90146CFC801861B970B2091BA04F0
:103240003091BB04B201685F7F4F820F931FDECFC6
:103250001D861C8615CECF93DF93EC01AC0160E098
:1032600070E0CB016EDDAE0161E070E080E090E0E7
:10327000DF91CF9166CDCF938091C4049091C50426
:103280008BD9C82F81110BC060E070E0CB010E9488
:10329000A20661E070E080E090E00E94A2068C2F20
:1032A000CF9108950F931F9389019A01AB01BC013F
:1032B0008091C4049091C504B8D91F910F910895CD
:1032C0004F925F926F927F928F929F92AF92BF9236
:1032D000CF92DF92EF92FF920F931F93CF93DF93E2
:1032E000CDB7DEB763970FB6F894DEBF0FBECDBF84
:1032F0006C018B015A018091C804882309F43DC0F8
:103300008091C804882309F442C08091C7041A82BE
:103310001982882309F4C0C0F0E94F2EFFE55F2E23
:1033200066246394712CF12CE12C970120553B4FBE
:10333000AE014F5F5F4F61E070E08091C4049091F7
:10334000C5044AD9982E811169C089819A81E80EF5
:10335000F91EE114F10409F461C081E0481A510832
:103360006108710859F56091D3047091D4048DEE11
:1033700090E06AD91A82198251C068EC74E0809199
:10338000C4049091C50452D9882309F4B9CF639637
:103390000FB6F894DEBF0FBECDBFDF91CF911F9166
:1033A0000F91FF90EF90DF90CF90BF90AF909F90E4
:1033B0008F907F906F905F904F900895AAE0EA16EB
:1033C000F10409F063C049E050E070E060E080EB98
:1033D00094E02FD46091D3047091D404882309F42D
:1033E00052C08091B80490E08617970719F6BC0187
:1033F0008EEE90E029D988E0E0EBF4E0DE0119964A
:1034000001900D928A95E1F78091D3049091D404B4
:10341000019699279093D4048093D30481E0298165
:103420003A81121613060CF080E09110CAC288236C
:1034300009F4ADCF8091C704811104C019861A86A2
:103440001B861C8689859A85AB85BC858031910554
:10345000A105B10508F09BCFFC018827ED5CF54E76
:103460008F4F0C94162AB31A721CE11CC719B71B94
:10347000EA1BA31AAB1A871AC61CB51CC21CC719B3
:10348000C719C719721A8FEE90E073CFBAE0EB1626
:10349000F1040CF44ACFC2CFF12CE12CE8E06E2EFF
:1034A000712C29E030E02C0F3D1F2E0D3F1DAE0189
:1034B0004F5F5F4FB3016E197F098091C4049091F3
:1034C000C5048AD8982E29813A81811109C0E20E5B
:1034D000F31EE114F10421F0E8E0EE16F1040CF320
:1034E00081E09FCFD6011696ED91FC91808191816C
:1034F000A281B38189839A83AB83BC83AE014F5F82
:103500005F4F64E070E085E190E03ADB40CF8D856D
:103510009E8514D92FEF3FEFA90161E070E000977D
:1035200071F0FC01C080D180E280F380A801C70166
:10353000B6010E94220BA701960170E060E08DE1C8
:1035400090E051DB24CF4D855E859801B6018BE17B
:1035500090E073DB1CCF4D855E852FEF3FEFB6010A
:103560008CE190E0F6CFD6011496ED91FC910081AC
:103570001181F80182809380A080B18070E1472E94
:10358000512C612C712C49825A826B827C8288E09A
:1035900090E0A0E0B0E08D839E83AF83B8879E016A
:1035A0002F5E3F4FAE014F5F5F4F68E070E080914C
:1035B000C4049091C5040E94CE128823D9F010E073
:1035C00000E0C80163960FB6F894DEBF0FBECDBF12
:1035D000DF91CF911F910F91FF90EF90DF90CF90EF
:1035E000BF90AF909F908F907F906F905F904F9023
:1035F0000C94012B89899A89089709F7D801ED90D5
:10360000FC90B8E0EB0EF11CEE0CFF1CEE0CFF1C66
:10361000C7010E94652A8C01892B89F249825A824E
:103620006B827C82C7010F2C000CAA0BBB0B8D8315
:103630009E83AF83B8879E012F5E3F4FAE014F5FE1
:103640005F4F68E070E08091C4049091C5040E94CF
:10365000CE128111B6CF89899A89089709F0B1CF26
:10366000D6011296ED91FC91408151816281738166
:10367000D8014D935D936D937C931397448155814D
:103680006681778114964D935D936D937C93179724
:10369000408551856285738518964D935D936D9332
:1036A0007C931B9784859585A685B785F8018487CB
:1036B0009587A687B787108A118A128A138A84E0B1
:1036C00090E0A0E0B0E0848B958BA68BB78B8091C7
:1036D000CC029091CD02B0E0A0E0808F918FA28FBC
:1036E000B38FC5010B2C000CAA0BBB0B848F958FDD
:1036F000A68FB78FF401D801909690E080E08A15EC
:103700009B055CF19E012F5E3F4FA801B7018091A0
:10371000C4049091C5040E94CE12811152CF8989B0
:103720009A89E816F90609F04CCFA70170E060E02D
:10373000C8017BD28B8B9E012F5E3F4FAE014D5E49
:103740005F4F61E070E08091C4049091C5040E94D5
:10375000CE1281E08093C70434CF4191519170E043
:1037600060E04D935D936D937D930196C8CF8D85F9
:103770009E85AF85B8890097A105B10521F481E048
:103780008093C60404CE0E949E13009781F481E0CA
:1037900090E0A0E0B0E089839A83AB83BC83AE0164
:1037A0004F5F5F4F64E070E082E190E0AECEBC011D
:1037B000C6010E94FC0519821A821B821C82AE017E
:1037C0004F5F5F4F64E070E082E190E0D9D98823D9
:1037D000B1F2DDCDD6011496ED91FC910190F0810E
:1037E000E02DE084F1848FEF8983E114F10409F482
:1037F00072C0D7016D907C90C280D38070E060E091
:1038000090E080E08615970594F083E190E00E94B7
:10381000241310E000E08111BACD061517055CF104
:1038200061E070E0CE0101960E945B13B0CD9C0177
:1038300043E0220F331F4A95E1F7F701A281B381DC
:10384000A20FB31F1296ED91FC911397EE0FFF1F7D
:10385000EC0DFD1D0190F081E02D16964D915C91CF
:10386000E49F9001E59F300DF49F300D1124620F0D
:10387000731F0196C7CFD7011296ED91FC91C80135
:1038800023E0880F991F2A95E1F7E80FF91FA08020
:10389000B180A281B381AA0FBB1FAC0DBD1D2D91BC
:1038A0003C9186819781289F4001299F900C389FE9
:1038B000900C1124B401C5010E945B13582E940191
:1038C00050E040E06981C5019CD1898351105FCDF2
:1038D0000F5F1F4FA2CF70E060E083E190E00E9495
:1038E000241355CD50E040E070E060E081E190E0CD
:1038F00047D981114CCD60E070E0CB010E94C70731
:103900008091AA04882329F0A80160E070E0CB012F
:1039100018DAA80160E070E0CB010E94CE0661E0F9
:1039200070E080E090E00E94C7078091AA0488239D
:1039300031F0A80161E070E080E090E002DAA801D7
:1039400061E070E080E090E00E94CE061092C80432
:103950001092C7041092D4041092D3048091C4042E
:103960009091C5040E941C1312CD81E090E09093C9
:10397000AC048093AB0450E040E070E060E086E18E
:1039800090E0C3CD81E0F501808301CD8D859E85DA
:103990000E949E132FEF3FEFA90161E070E00097B6
:1039A00069F0DC01CD90DD90ED90FC90C701B6018F
:1039B0000E94820BA701960170E060E08EE190E02A
:1039C000C0CDC8010E947F13E2CCCF92DF92EF926C
:1039D000FF92CF93DF93EC01C12CD12C7601C7016C
:1039E000B6010E94C707AE01C701B601AAD9AE0150
:1039F000C701B6010E94CE068091C0049091C10417
:103A0000009731F00E94012B1092C1041092C00463
:103A1000CA94CD28CE28CF2879F58091C704F12CFF
:103A2000882351F050E040E070E060E084E190E0F5
:103A3000A7D8F82E1092C7048091C804882341F0BB
:103A40001092C80481E090E09093CD028093CC0264
:103A50008091C4049091C5040E941F138091C404F6
:103A60009091C5040E9414138F2DDF91CF91FF9088
:103A7000EF90DF90CF900895C12CD12C7601C394A4
:103A8000AECFCF93DF93EC01AC0160E070E0CB01EF
:103A90000E94B70FAE0161E070E080E090E0DF913E
:103AA000CF910C94B70F60E070E0CB010E9424101E
:103AB00061E070E080E090E00C942410CF92DF92FF
:103AC000EF92FF920F931F93CF93DF93EC016A0164
:103AD0007B0100E010E098010E94D20B01E010E0B1
:103AE00020E030E0B701A601CE010E94D20BDF91A9
:103AF000CF911F910F91FF90EF90DF90CF9008959D
:103B000068EE73E080E090E0F7D690E080E0089502
:103B100026E040E855E260E070E087E795E00E942B
:103B2000AD2687E795E00E94E325892B29F087E7FA
:103B300095E00E94FD25F5CF90E080E00895CF92BA
:103B4000DF92EF92FF920F931F93CF93DF936B015E
:103B50007A01E9011982188287E795E00E94E3253E
:103B6000892B81F18601CC24C39485E6D82E8091DF
:103B7000D504811112C087E795E00E94FD258536A6
:103B80009105A9F7C092D504F801D1928F018881DF
:103B90009981019699838883EACF888199818E15CE
:103BA0009F0580F487E795E00E94FD258F3F9807E9
:103BB000A1F3F80181938F018881998101969983FE
:103BC0008883EBCF90E080E0DF91CF911F910F9140
:103BD000FF90EF90DF90CF9008950F931F93CF93B6
:103BE000DF93EA01890187E795E00E943D29F8010A
:103BF000D183C08390E080E0DF91CF911F910F913E
:103C00000895DC01A40FB51F420F531F9D01281B0F
:103C1000390B2417350710F0862F0895ED91E6270C
:103C2000F0E0EC51FF4F6491F1CF9A01AB016FEFDF
:103C3000E8CFCF93FC01E60FF71FE40FF51FC0811B
:103C4000F4DF91E0C81390E0892FCF91089580911F
:103C5000D60491E0980F9093D604882349F021E090
:103C600030E03093D8042093D7048093D60408958D
:103C700078940E940203F8948091D6048150809336
:103C8000D6040C94A111FF920F931F93CF93DF934F
:103C90001F92CDB7DEB71092F2071092F10762D6ED
:103CA0000E94F4110091E3021091E402F8011182E4
:103CB000108270E060E090E080E00E94A9110E9414
:103CC0003504F8947894C80186960E94A81181E082
:103CD00090E00E94A5111982AE014F5F5F4F61E035
:103CE00070E0F801828193810E94551189818823B7
:103CF00019F081E0F80182A70E94AE11F8940E94A9
:103D00004712F80180819181892B19F481E092A5F5
:103D1000911180E08093F10778947894FF24F394D4
:103D20008091F107811110C00E94D20481E090E0DF
:103D30000E94A611F89490E080E00F90DF91CF915F
:103D40001F910F91FF9008951982AE014F5F5F4F51
:103D500061E070E0F801828193810E948D11898178
:103D6000882311F0F801F2A6F80180819181892B56
:103D700089F481E092A5911101C080E08093F2075F
:103D80009091F20781E0911180E08093F1070E9409
:103D90006612C6CF81E0F2CF5058BB27AA270ED0BB
:103DA000BFC1B0D130F0B5D120F031F49F3F11F454
:103DB0001EF4A5C10EF4E095E7FB72C1E92FC1D155
:103DC00080F3BA17620773078407950718F071F438
:103DD0009EF5F0C10EF4E0950B2EBA2FA02D0B012D
:103DE000B90190010C01CA01A0011124FF27591B40
:103DF00099F0593F50F4503E68F11A16F040A22F46
:103E0000232F342F4427585FF3CF469537952795B6
:103E1000A795F0405395C9F77EF41F16BA0B620BB5
:103E2000730B840BBAF09150A1F0FF0FBB1F661FFC
:103E3000771F881FC2F70EC0BA0F621F731F841F3F
:103E400048F4879577956795B795F7959E3F08F065
:103E5000B3CF9395880F08F09927EE0F9795879524
:103E6000089591D180F09F3740F491110EF4A3C1D1
:103E700060E070E080E89FE3089526F01B16611D66
:103E8000711D811D13C12DC1E7D008F481E0089593
:103E90000CD046C13ED140F035D130F021F45F3F27
:103EA00019F0FEC0511187C12AC14BD198F3992353
:103EB000C9F35523B1F3951B550BBB27AA276217EE
:103EC0007307840738F09F5F5F4F220F331F441F33
:103ED000AA1FA9F333D00E2E3AF0E0E830D091506B
:103EE0005040E695001CCAF729D0FE2F27D0660F58
:103EF000771F881FBB1F261737074807AB07B0E897
:103F000009F0BB0B802DBF01FF2793585F4F2AF0AC
:103F10009E3F510568F0C4C04EC15F3FECF3983E30
:103F2000DCF3869577956795B795F7959F5FC9F709
:103F3000880F911D9695879597F90895E1E0660F92
:103F4000771F881FBB1F621773078407BA0720F00B
:103F5000621B730B840BBA0BEE1F88F7E095089574
:103F6000F8D088F09F5790F0B92F9927B751A0F05B
:103F7000D1F0660F771F881F991F1AF0BA95C9F7FD
:103F800012C0B13081F016D1B1E0089513C1672F8E
:103F9000782F8827B85F39F0B93FCCF386957795AD
:103FA0006795B395D9F73EF4909580957095619596
:103FB0007F4F8F4F9F4F0895E89409C097FB3EF4C1
:103FC00090958095709561957F4F8F4F9F4F992366
:103FD000A9F0F92F96E9BB279395F69587957795E4
:103FE0006795B795F111F8CFFAF4BB0F11F460FFA4
:103FF0001BC06F5F7F4F8F4F9F4F16C0882311F0FC
:1040000096E911C0772321F09EE8872F762F05C00F
:10401000662371F096E8862F70E060E02AF09A95AA
:10402000660F771F881FDAF7880F9695879597F99F
:104030000895A9D080F09F3740F491110EF0BBC0D5
:1040400060E070E080E89FEB089526F41B16611D88
:10405000711D811D2BC045C0990F0008550FAA0B7B
:10406000E0E8FEEF16161706E807F907C0F012168B
:104070001306E407F50798F0621B730B840B950B8E
:1040800039F40A2661F0232B242B252B21F40895E3
:104090000A2609F4A140A6958FEF811D811D089580
:1040A00097F99F6780E870E060E00895882371F4D5
:1040B000772321F09850872B762F07C0662311F4C1
:1040C00099270DC09051862B70E060E02AF09A95F8
:1040D000660F771F881FDAF7880F9695879597F9EF
:1040E00008959F3F31F0915020F48795779567951B
:1040F000B795880F911D9695879597F908959FEF2D
:1041000080EC089500240A9416161706180609066E
:10411000089500240A94121613061406050608953D
:10412000092E0394000C11F4882352F0BB0F40F4C5
:10413000BF2B11F460FF04C06F5F7F4F8F4F9F4F05
:10414000089557FD9058440F551F59F05F3F71F087
:104150004795880F97FB991F61F09F3F79F08795EE
:104160000895121613061406551FF2CF4695F1DF77
:1041700008C0161617061806991FF1CF8695710507
:10418000610508940895E5DFA0F0BEE7B91788F44B
:10419000BB279F3860F41616B11D672F782F88272C
:1041A000985FF7CF869577956795B11D939596396A
:1041B000C8F30895E894BB2766277727CB0197F9C2
:1041C00008954ADF08F48FEF08950BD0A9CF9ADF46
:1041D00028F09FDF18F0952309F062CF90CF1124CB
:1041E000EACFAFDFA0F3959FD1F3950F50E0551FB5
:1041F000629FF001729FBB27F00DB11D639FAA273C
:10420000F00DB11DAA1F649F6627B00DA11D661F8A
:10421000829F2227B00DA11D621F739FB00DA11DAB
:10422000621F839FA00D611D221F749F3327A00D65
:10423000611D231F849F600D211D822F762F6A2F01
:1042400011249F5750408AF0E1F088234AF0EE0F86
:10425000FF1FBB1F661F771F881F91505040A9F793
:104260009E3F510570F01CCFA6CF5F3FECF3983E08
:10427000DCF3869577956795B795F795E7959F5FFA
:10428000C1F7FE2B880F911D9695879597F9089594
:10429000CF92DF92EF92FF920F931F93CF93DF9312
:1042A0006B017A01EC01C652DB4F28813CE0389F5C
:1042B0008001399F100D112427FF24C0FB011182BA
:1042C000108288818F5F888388819801280F311D33
:1042D00087FD3A95C9012091D904F60128171906DE
:1042E00029F024F088818C300CF43BC080819181CE
:1042F000049680349C4908F473C0F6018081918152
:10430000049670C088819801280F311D87FD3A9569
:10431000C9012091D9042817190699F294F28881CD
:10432000A801480F511D87FD5A95FA01EE0FFF1F96
:10433000E40FF51FE252FB4F808186FFC2CF8881D8
:10434000F801E80FF11D87FDFA95CF01EE0FFF1F71
:10435000E80FF91FE252FB4F808160E08F7306D4B3
:10436000B0CF808191812881A801420F511D27FD86
:104370005A959A01FA01EE0FFF1FE20FF31FE25266
:10438000FB4F21813281820F931FF701918380833C
:1043900088819801280F311D87FD3A95F901EE0FAC
:1043A000FF1FE20FF31FE252FB4F808186FF1FC009
:1043B0008881080F111D87FD1A95F801EE0FFF1F68
:1043C000E00FF11FE252FB4F808161E08F73DF91BC
:1043D000CF911F910F91FF90EF90DF90CF90C6C3C8
:1043E00080E49CE9F701918380838FEF8883DF91DC
:1043F000CF911F910F91FF90EF90DF90CF90089594
:104400001F920F920FB60F9211240BB60F922F939B
:104410003F934F935F936F937F938F939F93AF934C
:10442000BF93EF93FF9348E850E064E870E081E0C9
:1044300090E02EDFFF91EF91BF91AF919F918F910F
:104440007F916F915F914F913F912F910F900BBE94
:104450000F900FBE0F901F9018951F920F920FB6DE
:104460000F9211240BB60F922F933F934F935F93AC
:104470006F937F938F939F93AF93BF93EF93FF932C
:1044800048E950E064E970E082E090E001DFFF91EC
:10449000EF91BF91AF919F918F917F916F915F91BC
:1044A0004F913F912F910F900BBE0F900FBE0F9029
:1044B0001F9018951F920F920FB60F9211240BB6F2
:1044C0000F922F933F934F935F936F937F938F93AD
:1044D0009F93AF93BF93EF93FF9348EA50E064EA52
:1044E00070E083E090E0D4DEFF91EF91BF91AF9157
:1044F0009F918F917F916F915F914F913F912F91FC
:104500000F900BBE0F900FBE0F901F9018951F922B
:104510000F920FB60F9211240BB60F922F933F9369
:104520004F935F936F937F938F939F93AF93BF93BB
:10453000EF93FF9348E251E064E271E090E080E0A5
:10454000A7DEFF91EF91BF91AF919F918F917F91E6
:104550006F915F914F913F912F910F900BBE0F90F4
:104560000FBE0F901F901895FC019091D9049033C5
:1045700098F481E0890F8093D9049083892F90E08B
:10458000FC01EE0FFF1FE80FF91FE252FB4F88EB13
:104590009BE09283818308958FEF80830895DF925B
:1045A000EF92FF920F931F93CF93DF93EC01D62EE0
:1045B0007A0189018881803308F065C061E08D2D22
:1045C00099D28881282F30E0F901EE0FFF1FE20F0A
:1045D000F31FE252FB4F9D2D9F736081607C692B1E
:1045E000608320E232E02E193F0937FF02C02D5FC1
:1045F0003F4F3595279535952795298320E639E056
:10460000201B310B37FF02C02D5F3F4F359527959B
:10461000359527952A832CE0622FABD6829FB00177
:10462000112430E020E0AB01420F531FFA01EE0FDE
:10463000FF1FE40FF51FE252FB4F908196FD16C05D
:104640002F5F3F4F2C30310571F7813029F51092E3
:10465000800082E080938100109285001092840097
:10466000B19A80916F00826080936F00E8818E2FF5
:1046700090E0FC01EE0FFF1FE80FF91FE252FB4F25
:104680008081806480838881DF91CF911F910F9119
:10469000FF90EF90DF900895823061F410929000C7
:1046A00080939100109295001092940088BB8093A3
:1046B0007100DCCF833069F41092A00082E0809317
:1046C000A1001092A5001092A40089BB80937200F3
:1046D000CDCF8111CBCF1092200182E080932101B8
:1046E00010922501109224018ABB80937300BECFE3
:1046F00020E639E040E252E052CFDC01EC91E033B9
:1047000090F511968C91119728E830E0281B31091B
:1047100087FD3395220F331F220F331F6217730754
:1047200084F012968C9128E532E0281B310987FD30
:104730003395220F331F220F331F621773070CF4B8
:104740009B0122503109220F331F4FB7F8948E2F4F
:1047500090E0FC01EE0FFF1FE80FF91FE252FB4F44
:10476000328321834FBF0895AF92BF92CF92DF92E1
:10477000EF92FF920F931F93CF93DF93EC01603280
:1047800082E078070CF03DC0653B710514F064EBE6
:1047900070E0898148E8A42EB12CA81AB10887FDE1
:1047A000B394AA0CBB1CAA0CBB1C0B2C000CCC0891
:1047B000DD0877FF02C070E060E0072E000C880B78
:1047C000990B2A8108E512E0021B110927FD1395B8
:1047D000000F111F000F111F012E000C220B330BB5
:1047E0003F932F931F930F9314EBE12EF12C00E0D6
:1047F00010E020E030E0A9016DD50F900F900F90F0
:104800000F90CE01DF91CF911F910F91FF90EF900C
:10481000DF90CF90BF90AF9070CF1F920F920FB6E6
:104820000F9211242F933F938F939F93AF93BF9336
:1048300080916F0590917005A0917105B0917205FE
:1048400030916E0523E0230F2D3758F50196A11DF9
:10485000B11D20936E0580936F0590937005A09312
:104860007105B09372058091730590917405A091C4
:104870007505B09176050196A11DB11D8093730554
:1048800090937405A0937505B0937605BF91AF9191
:104890009F918F913F912F910F900FBE0F901F907E
:1048A000189526E8230F0296A11DB11DD2CF3FB760
:1048B000F8948091730590917405A0917505B0915D
:1048C000760526B5A89B05C02F3F19F00196A11DBE
:1048D000B11D3FBFBA2FA92F982F8827BC01CD014A
:1048E000620F711D811D911D42E0660F771F881FA9
:1048F000991F4A95D1F708958F929F92AF92BF92D8
:10490000CF92DF92EF92FF926B017C01D0DF4B01DF
:104910005C01C114D104E104F104D9F01AD5C7DF58
:10492000681979098A099B09683E734081059105D8
:1049300080F321E0C21AD108E108F10888EE880E60
:1049400083E0981EA11CB11CC114D104E104F10440
:1049500031F7FF90EF90DF90CF90BF90AF909F9096
:104960008F900895789484B5826084BD84B5816009
:1049700084BD85B5826085BD85B5816085BDEEE667
:10498000F0E0808181608083E1E8F0E01082808146
:1049900082608083808181608083E0E8F0E08081B4
:1049A00081608083E1EBF0E0808184608083E0EBD4
:1049B000F0E0808181608083E1E9F0E080818260C5
:1049C0008083808181608083E0E9F0E08081816084
:1049D0008083E1EAF0E08081826080838081816071
:1049E0008083E0EAF0E0808181608083E1E2F1E0B1
:1049F000808182608083808181608083E0E2F1E059
:104A0000808181608083EAE7F0E080818460808338
:104A100080818260808380818160808380818068E2
:104A200080831092C10008958150823108F059C0EE
:104A3000E82FF0E08827E15EFA4D8F4FF7C43F255D
:104A40004325312537253B25712546254C25502505
:104A500056255A255E256425682571256C25722505
:104A60007625809180008F778093800008958091D3
:104A700080008F7DF9CF80918000877FF5CF84B54E
:104A80008F7784BD089584B58F7DFBCF8091B00072
:104A90008F778093B00008958091B0008F7DF9CF1B
:104AA000809190008F77809390000895809190007E
:104AB0008F7DF9CF80919000877FF5CF8091A00006
:104AC0008F778093A00008958091A0008F7DF9CF0B
:104AD0008091A000877FF5CF809120018F77809310
:104AE00020010895809120018F7DF9CF80912001D0
:104AF000877FF5CFCF93DF9390E0FC01E65DFD4F1C
:104B0000249180599D4FFC0184918823C9F090E045
:104B1000880F991FFC01E053FD4FA591B491FC0152
:104B2000EA54FD4FC591D49161110DC09FB7F8941F
:104B30008C91209582238C938881282328839FBF82
:104B4000DF91CF910895623051F49FB7F8943C9172
:104B5000822F809583238C93E8812E2BEFCF8FB704
:104B6000F894EC912E2B2C938FBFEACF1F93CF9309
:104B7000DF93282F30E0F901EC51FE4F8491F901C9
:104B8000E65DFD4FD491F901E059FD4FC491CC236E
:104B9000A1F0162F811148DFEC2FF0E0EE0FFF1F80
:104BA000EA54FD4FA591B4918FB7F894EC9111118F
:104BB00008C0D095DE23DC938FBFDF91CF911F918A
:104BC0000895DE2BF8CFFC01918D228D892F90E086
:104BD000805C9F4F821B91098F7399270895FC0178
:104BE000918D828D981731F0828DE80FF11D858DA2
:104BF00090E008958FEF9FEF0895FC01918D828DD5
:104C0000981761F0A28DAE0FBF2FB11D5D968C91EC
:104C1000928D9F5F9F73928F90E008958FEF9FEF2B
:104C20000895FC01538D448D252F30E0842F90E0B2
:104C3000821B930B541710F0CF9608950197089597
:104C4000FC01A48DA80FB92FB11DA35ABF4F2C9101
:104C5000848D90E001968F739927848FA689B789F8
:104C60002C93A089B1898C91837080648C93938DEF
:104C7000848D981306C00288F389E02D80818F7D92
:104C800080830895CF93DF93EC01888D8823B1F062
:104C9000AA89BB89E889F9898C9185FD03C0808147
:104CA00086FD0CC00FB607FCF7CF8C9185FFF2CFC5
:104CB000808185FFEDCFCE01C3DFEACFDF91CF91B9
:104CC0000895EF92FF920F931F93CF93DF93EC0120
:104CD00081E0888F9B8D8C8D98131AC0E889F989A3
:104CE000808185FF15C09FB7F894EE89FF896083A6
:104CF000E889F98980818370806480839FBF81E027
:104D000090E0DF91CF911F910F91FF90EF90089568
:104D1000F62E0B8D10E00F5F1F4F0F731127E02E43
:104D20008C8D8E110BC00FB607FCFACFE889F9897C
:104D3000808185FFF5CFCE0183DFF2CFEB8DEC0FC5
:104D4000FD2FF11DE35AFF4FF0829FB7F8940B8FB0
:104D5000EA89FB8980818062D0CFCF92DF92EF9287
:104D6000FF921F93CF93DF93EC016A017B01122F17
:104D7000E889F98982E08083C11481EED806E104D4
:104D8000F10499F060E079E08DE390E0A7019601ED
:104D90000FD321503109410951095695479537954F
:104DA0002795211580E1380790F0E889F98910826C
:104DB00060E874E88EE190E0A7019601F9D22150F5
:104DC0003109410951095695479537952795EC8545
:104DD000FD853083EE85FF852083188EEC89FD8963
:104DE0001083EA89FB89808180618083EA89FB895D
:104DF000808188608083EA89FB89808180688083E4
:104E0000EA89FB8980818F7D8083DF91CF911F911B
:104E1000FF90EF90DF90CF9008951F920F920FB602
:104E20000F9211240BB60F922F938F939F93EF93B2
:104E3000FF93E0918705F09188058081E0918D05D1
:104E4000F0918E0582FD1DC09081809190058F5F4D
:104E50008F7320919105821741F0E0919005F0E069
:104E6000E958FA4F958F80939005FF91EF919F91AC
:104E70008F912F910F900BBE0F900FBE0F901F9030
:104E800018958081F2CF1F920F920FB60F921124C6
:104E90000BB60F922F933F934F935F936F937F9334
:104EA0008F939F93AF93BF93EF93FF9387E795E023
:104EB000C7DEFF91EF91BF91AF919F918F917F914D
:104EC0006F915F914F913F912F910F900BBE0F907B
:104ED0000FBE0F901F901895E7E7F5E0138212823E
:104EE00088EE93E0A0E0B0E084839583A683B78347
:104EF0008FEB93E09183808385EC90E095878487A6
:104F000084EC90E09787868780EC90E0918B808B93
:104F100081EC90E0938B828B82EC90E0958B848B7C
:104F200086EC90E0978B868B118E128E138E148EEA
:104F300008951F920F920FB60F9211240BB60F9285
:104F40002F938F939F93EF93FF93E0912406F0911B
:104F500025068081E0912A06F0912B0682FD1DC076
:104F6000908180912D068F5F8F7320912E0682177E
:104F700041F0E0912D06F0E0EC5EF94F958F8093C3
:104F80002D06FF91EF919F918F912F910F900BBE66
:104F90000F900FBE0F901F9018958081F2CF1F9237
:104FA0000F920FB60F9211240BB60F922F933F93CF
:104FB0004F935F936F937F938F939F93AF93BF9321
:104FC000EF93FF9384E196E03BDEFF91EF91BF9179
:104FD000AF919F918F917F916F915F914F913F9191
:104FE0002F910F900BBE0F900FBE0F901F90189532
:104FF000E4E1F6E01382128288EE93E0A0E0B0E0F4
:1050000084839583A683B7838FEB93E0918380831A
:105010008DEC90E0958784878CEC90E0978786876D
:1050200088EC90E0918B808B89EC90E0938B828B65
:105030008AEC90E0958B848B8EEC90E0978B868B3E
:10504000118E128E138E148E08951F920F920FB62A
:105050000F9211240BB60F922F938F939F93EF9380
:10506000FF93E091C106F091C2068081E091C706EE
:10507000F091C80682FD1DC090818091CA068F5FA5
:105080008F732091CB06821741F0E091CA06F0E0C1
:10509000EF54F94F958F8093CA06FF91EF919F913E
:1050A0008F912F910F900BBE0F900FBE0F901F90FE
:1050B00018958081F2CF1F920F920FB60F92112494
:1050C0000BB60F922F933F934F935F936F937F9302
:1050D0008F939F93AF93BF93EF93FF9381EB96E0F2
:1050E000AFDDFF91EF91BF91AF919F918F917F9134
:1050F0006F915F914F913F912F910F900BBE0F9049
:105100000FBE0F901F901895E1EBF6E0138212820C
:1051100088EE93E0A0E0B0E084839583A683B78314
:105120008FEB93E09183808385ED90E09587848772
:1051300084ED90E09787868780ED90E0918B808B5F
:1051400081ED90E0938B828B82ED90E0958B848B48
:1051500086ED90E0978B868B118E128E138E148EB7
:1051600008951F920F920FB60F9211240BB60F9253
:105170002F938F939F93EF93FF93E0915E07F091AE
:105180005F078081E0916407F091650782FD1DC093
:105190009081809167078F5F8F73209168078217D6
:1051A00041F0E0916707F0E0E25BF84F958F809364
:1051B0006707FF91EF919F918F912F910F900BBEF9
:1051C0000F900FBE0F901F9018958081F2CF1F9205
:1051D0000F920FB60F9211240BB60F922F933F939D
:1051E0004F935F936F937F938F939F93AF93BF93EF
:1051F000EF93FF938EE497E023DDFF91EF91BF9152
:10520000AF919F918F917F916F915F914F913F915E
:105210002F910F900BBE0F900FBE0F901F901895FF
:10522000EEE4F7E01382128288EE93E0A0E0B0E0B3
:1052300084839583A683B7838FEB93E091838083E8
:1052400085E391E09587848784E391E0978786875B
:1052500080E391E0918B808B81E391E0938B828B53
:1052600082E391E0958B848B86E391E0978B868B2C
:10527000118E128E138E148E0895AF92BF92CF921C
:10528000DF92EF92FF920F931F93CF93DF936C0106
:105290007B018B01040F151FEB015E01AE18BF08E7
:1052A000C017D10759F06991D601ED91FC91019099
:1052B000F081E02DC6011995892B79F7C501DF91A1
:1052C000CF911F910F91FF90EF90DF90CF90BF9003
:1052D000AF9008954F925F926F927F92AF92BF927C
:1052E000CF92DF92EF92FF920F931F93CF93DF93B2
:1052F000CDB7DEB729013A019B01AC01241935096C
:10530000460957098A899B89AC89BD89BC01CD01B1
:105310006A197B098C099D091DD0A80197012419E0
:1053200035094609570966D0CA01B9016A0D7B1DC6
:105330008C1D9D1DDF91CF911F910F91FF90EF90DC
:10534000DF90CF90BF90AF907F906F905F904F9025
:1053500008950895DB018F939F9370D0BF91AF9113
:10536000A29F800D911DA39F900DB29F900D1124BF
:105370000895991B79E004C0991F961708F0961BB1
:10538000881F7A95C9F78095089597FB072E16F424
:10539000009406D077FD08D05BD007FC05D03EF422
:1053A000909581959F4F0895709561957F4F0895D1
:1053B000A1E21A2EAA1BBB1BFD010DC0AA1FBB1F19
:1053C000EE1FFF1FA217B307E407F50720F0A21B8B
:1053D000B30BE40BF50B661F771F881F991F1A94F8
:1053E00069F760957095809590959B01AC01BD0122
:1053F000CF010895052E97FB16F400940FD057FDAA
:1054000005D0D6DF07FC02D046F408C05095409581
:10541000309521953F4F4F4F5F4F08959095809560
:10542000709561957F4F8F4F9F4F0895EE0FFF1F2F
:10543000881F8BBF0790F691E02D19941DD0A59F72
:10544000900DB49F900DA49F800D911D112408957F
:10545000AA1BBB1B51E107C0AA1FBB1FA617B7079A
:1054600010F0A61BB70B881F991F5A95A9F78095B6
:105470009095BC01CD010895A29FB001B39FC001DA
:10548000A39F700D811D1124911DB29F700D811D70
:105490001124911D08950F931F93CF93DF93869F3F
:1054A0008001879F100D969F100D1124C8010DD00B
:1054B000EC01009721F0A80170E060E034D1CE014A
:1054C000DF91CF911F910F9108950F931F93CF9369
:1054D000DF938230910510F482E090E0E091F507CF
:1054E000F091F60730E020E0B0E0A0E0309799F4CA
:1054F0002115310509F44AC0281B390B2430310528
:10550000D8F58A819B816115710589F1FB0193832F
:105510008283FE0111C040815181028113814817AD
:105520005907E0F04817590799F4109761F012965F
:105530000C93129713961C933296CF01DF91CF9163
:105540001F910F9108950093F5071093F607F4CF7C
:105550002115310551F04217530738F0A901DB013D
:105560009A01BD01DF01F801C1CFEF01F9CF90939E
:10557000F6078093F507CDCFFE01E20FF31F81936D
:1055800091932250310939832883D7CF2091F30793
:105590003091F407232B41F4209102023091030251
:1055A0003093F4072093F307209100023091010219
:1055B0002115310541F42DB73EB7409104025091B9
:1055C0000502241B350BE091F307F091F407E21775
:1055D000F307A0F42E1B3F0B2817390778F0AC0116
:1055E0004E5F5F4F2417350748F04E0F5F1F5093F3
:1055F000F4074093F307819391939FCFF0E0E0E0AD
:105600009CCFCF93DF930097E9F0FC013297138290
:105610001282A091F507B091F607ED0130E020E08D
:105620001097A1F420813181820F931F2091F307FD
:105630003091F4072817390709F061C0F093F40797
:10564000E093F307DF91CF910895EA01CE17DF07CA
:10565000E8F54A815B819E0141155105B1F7E901E9
:10566000FB83EA8349915991C40FD51FEC17FD07BD
:1056700061F4808191810296840F951FE9019983DD
:105680008883828193819B838A83F0E0E0E0129695
:105690008D919C9113970097B9F52D913C9111979D
:1056A000CD010296820F931F2091F3073091F407EA
:1056B0002817390739F6309751F51092F6071092EE
:1056C000F507B093F407A093F307BCCFD383C2834D
:1056D00040815181840F951FC817D90761F44E5F2F
:1056E0005F4F88819981480F591F518340838A8178
:1056F0009B81938382832115310509F0B0CFF0930C
:10570000F607E093F5079ECFFD01DC01C0CF1382C1
:105710001282D7CFFB01DC0102C001900D924150F3
:105720005040D8F70895DC0101C06D9341505040BE
:10573000E0F70895FB01DC018D91019080190110C3
:0A574000D9F3990B0895F894FFCFF8
:10574A000000F707800004000A028202000000003D
:10575A001000C202030000000100C30200000000A2
:10576A000100C70203000000030003002E02EB073A
:10577A000E0000000100EF07030000000100F0071F
:10578A00080000000100E502EC02F602F502FE0242
:10579A00FD02070306030F03190324032A03340334
:1057AA003D0351030400040001000100020002004D
:1057BA0004000400010004000200020004000800C2
:1057CA00040000000000000000000000204100006A
:1057DA00A0410000A041000020410000000000009C
:1057EA000000000000006F12033B6F12833BA69B70
:1057FA00C43B0AD7233CA69B443C4260653C6F12DB
:10580A00833C106F12833A000001010101005369C1
:10581A006D756C6174696F6E2066696E697368650F
:10582A00640001F7037265616C5F54007265616C14
:10583A0033325F540075696E74385F540075696E4F
:10584A007431365F540075696E7433325F54006286
:10585A006F6F6C65616E5F540066636E5F63616C47
:10586A006C5F5400696E745F5400706F696E746582
:10587A00725F5400616374696F6E5F540074696D7E
:10588A0065725F75696E7433325F706169725F54F5
:10589A0000636F6465727461726765745F617264D4
:1058AA0075696E6F626173655F696E7465725F5464
:1058BA00002D77002D69676E6F72652D6172670022
:1058CA00436F756C64206E6F7420637265617465D2
:1058DA002065787465726E616C206D6F64652075E1
:1058EA0073657220646174612E20204F7574206F75
:1058FA0066206D656D6F72792E0A000000000061E6
:0E590A00263D2911264226E325FD25EF250026
:00000001FF
