:1000000091C10000C0C10000BEC10000BCC1000021
:10001000BAC10000B8C10000B6C10000B4C1000000
:10002000B2C10000B0C10000AEC10000ACC1000010
:10003000AAC10000A8C10000A6C10000A4C1000020
:10004000A2C100000C94442F9EC100009CC100007E
:100050000C94511998C1000096C100000C945131C4
:1000600092C100000C945D340C9493348CC1000058
:100070008AC1000088C1000086C1000084C1000060
:100080000C94712F80C100007EC100007CC1000073
:100090000C94E9340C941F3576C100000C946B2D40
:1000A00072C1000070C100000C949E2F6CC1000052
:1000B0006AC1000068C1000066C100000C94CB2F2B
:1000C00062C1000060C100005EC100000C94753583
:1000D0000C94AB3558C100000C9401360C943736A3
:1000E00052C10000084AD73B3BCE016E84BCBFFD25
:1000F000C12F3D6C74319ABD56833DDA3D00C77FF8
:1001000011BED9E4BB4C3E916BAAAABE0000008090
:100110003F00001D3A2774694E53E8F5D2CF9C8109
:10012000A6BBCDD0F7EAB9A4839E25381F02514C57
:100130006B76879ABDA0F3EEC9D46F7255481B0643
:10014000213C4A57706D3E230419A2BF9885D6CB37
:10015000ECF1130E2934677A5D40FBE6C1DC8F9227
:10016000B5A8DEC3E4F9AAB7908D362B0C11425F17
:1001700078659489AEB3E0FDDAC77C61465B08150B
:10018000322F5944637E2D30170AB1AC8B96C5D8F7
:10019000FFE2263B1C01524F6875CED3F4E9BAA7A3
:1001A000809DEBF6D1CC9F82A5B8031E3924776AD7
:1001B0004D50A1BC9B86D5C8EFF24954736E3D20CB
:1001C000071A6C71564B1805223F8499BEA3F0EDB7
:1001D000CAD735280F12415C7B66DDC0E7FAA9B4A7
:1001E000938EF8E5C2DF8C91B6AB100D2A37647997
:1001F0005E43B2AF8895C6DBFCE15A47607D2E3383
:1002000014097F6245580B16312C978AADB0E3FE76
:10021000D9C400000A0B02090C0D0E0807030401E3
:1002200000000000000000000000000000000000CE
:10023000000000000000000000000000000012119B
:10024000100000000000000000000000000000009E
:10025000000000000000000001021020200808102B
:100260002040102040800201020108040201010226
:1002700004081020408080402010080402018004FF
:10028000020180402010080402010804020101025A
:100290000408102040800102040810204080050559
:1002A0000505070508080808020202020A0A0808EC
:1002B000040404040101010101010101030303031A
:1002C00003030303040707070C0C0C0C0C0C0C0CA9
:1002D0000202020206060606060606060B0B0B0BBA
:1002E0000B0B0B0B00002200250028002B002E001A
:1002F0003100340002010000050108010B0100007B
:100300002100240027002A002D00300033000101C5
:100310000000040107010A01D601D42ABC34483583
:10032000D435603611241FBECFEFD1E2DEBFCDBF82
:1003300000E00CBF13E0A0E0B2E0EAEEF1E700E07D
:100340000BBF02C007900D92AC3FB107D9F729E06F
:10035000ACEFB3E001C01D92A335B207E1F711E0A5
:10036000C2E9D1E000E006C021970109802FFE011B
:100370000E946637CC38D10780E00807A9F70E94B1
:10038000E4250C94F3383CCE70E023E0829FC0015A
:10039000112484509C4F0C94BC3070E023E0829F69
:1003A000C001112484509C4F0C94F8308CEF93E0E2
:1003B0000C94F82FCF92DF92EF92FF926B017C01A9
:1003C000C114D104E104F10469F4809106028111A1
:1003D00009C080910802909109020E94452A81E09B
:1003E00080930602C601880F991F880F991F8A5FA4
:1003F0009D4FFF90EF90DF90CF900895009781F090
:10040000FC012181211104C040EA56E861E070E05E
:10041000FC01828193810E94542A90E080E008953B
:1004200088E090E008954F925F926F927F928F9252
:100430009F92AF92BF92CF92DF92EF92FF920F9373
:100440001F93CF93DF930097C9F1280139017A01F7
:10045000EC01402F8A819B810E94D22A8A819B8154
:10046000DC01ED91FC910084F185E02D1995892B3B
:1004700001F16701812C912C54018A819B81DC015F
:10048000ED91FC910084F185E02D1995892B91F176
:1004900084149504A604B70469F18A819B81DC0168
:1004A000ED91FC910284F385E02D19958F3F98071B
:1004B000C1F484E0F70111928A95E9F788E090E0B1
:1004C000DF91CF911F910F91FF90EF90DF90CF9030
:1004D000BF90AF909F908F907F906F905F904F9064
:1004E0000895FFEF8F1A9F0AAF0ABF0AD6018D93B6
:1004F0006D01C3CF90E080E0E3CF8F929F92AF92E7
:10050000BF92CF92DF92EF920F931F93CF93DF931F
:100510000097F1F06A01EC018A819B810E94572AC1
:100520008A819B81DC01ED91FC910280F381E02DB9
:10053000A801B60119958A819B8160E0E11001C094
:1005400061E00E94612A882389F08250823088F01D
:1005500088E090E0DF91CF911F910F91EF90DF90B5
:10056000CF90BF90AF909F908F90089590E080E0E3
:10057000F1CF84E090E0EECF08958130910579F0DD
:100580001CF4892B39F008958230910561F00397AE
:1005900071F0089526E08AE896E00C94FD3326E099
:1005A00087E297E0FACF26E084EC97E0F6CF26E0EA
:1005B00081E698E0F2CF8F929F92AF92BF92CF9256
:1005C000DF92EF92FF926B017C010E949B314B0105
:1005D0005C010E949B31681979098A099B09C6163A
:1005E000D706E806F906A8F7FF90EF90DF90CF90C6
:1005F000BF90AF909F908F90089521E040915D044F
:1006000050915E04452B09F020E0FC01218321E09C
:1006100040915F0450916004452B09F020E0FC01FB
:1006200022830895CF92DF92EF92FF926B017C01BB
:100630009F7720E030E040E859E50E94552787FF8A
:100640002BC020E030E040E05FE3C701B6010E942C
:10065000152987FD0EC020E030E040E05FE3C701D0
:10066000B6010E947C26FF90EF90DF90CF900C9413
:10067000282820E030E040E05FEBC701B6010E948F
:100680001529181684F420E030E0A901C701B6014D
:100690000E9420296B017C01C701B601FF90EF90F9
:1006A000DF90CF90089520E030E040E05FE3C701A5
:1006B000B6010E947B26FF90EF90DF90CF900C94C4
:1006C00042278F929F92AF92BF92CF92DF92EF928A
:1006D000FF92CF93DF936B017C0149015A010E9485
:1006E000270C882399F0609141097091420980910B
:1006F000430990914409DF91CF91FF90EF90DF90F3
:10070000CF90BF90AF909F908F900895C501B40196
:100710000E94270C8111E7CFC701B6010E94E20BAE
:100720008823E1F1C501B4010E94E20B8823B1F1F5
:1007300020E030E0A901C701B6010E941529CFEFE2
:10074000DFEF181614F4C1E0D0E020E030E0A9019A
:10075000C501B4010E9415296FEF7FEF181614F43C
:1007600061E070E0072E000C880B990B0E94ED27CA
:100770006B017C01BE01DD0F880B990B0E94ED27F8
:10078000A7019601DF91CF91FF90EF90DF90CF907E
:10079000BF90AF909F908F900C94EF2620E030E0B8
:1007A000A901C501B4010E945527811116C020E09E
:1007B00030E0A901C701B6010E941529181694F06E
:1007C00020E030E0A901C701B6010E94552787FD4E
:1007D0000EC060E070E0CB018ECFA5019401C7018F
:1007E000B601D0CF6BED7FE089EC9FE384CF6BED5A
:1007F0007FE089EC9FEB7FCF4F925F926F927F9269
:100800008F929F92AF92BF92CF92DF92EF92FF9220
:1008100080915D0490915E0401968A30910508F004
:10082000D2C090935E0480935D0480915F049091A8
:1008300060040196843F21E0920708F0C9C09093BC
:10084000600480935F0483E090E00E94F818409178
:100850003B0450913C0460913D0470913E0490E053
:1008600080E00E94F4188090610490906204A0904F
:100870006304B090640420E030E040E85FEBC50121
:10088000B4010E945527882331F1C0903B04D090D9
:100890003C04E0903D04F0903E04A7019601C501A0
:1008A000B4010E947B264B015C0120E030E040E077
:1008B00054E3C701B6010E9420299B01AC01C50188
:1008C000B4010E941529181634F08AEC92E0909336
:1008D00026048093250480916504882331F08AECF6
:1008E00092E09093260480932504C0903F04D0901A
:1008F0004004E0904104F09042048FEFC81AD80AF7
:10090000E80AF80AC0923F04D0924004E092410401
:10091000F0924204C114D104E104F10499F48091ED
:10092000430490914404A0914504B091460401967B
:10093000A11DB11D8093430490934404A0934504EA
:10094000B09346048090470490904804A0904904D6
:10095000B0904A046091430470914404809145042E
:10096000909146040E94EB27A50194010E94202942
:1009700020E030E040E85FE40E9420292B013C01A8
:10098000C701B6010E94EB27A50194010E9420290E
:100990009B01AC01C301B2010E947C2660933B0421
:1009A00070933C0480933D0490933E04FF90EF903D
:1009B000DF90CF90BF90AF909F908F907F906F907F
:1009C0005F904F90089510925E0410925D042DCFB9
:1009D0001092600410925F0436CF4F925F926F9234
:1009E0007F928F929F92AF92BF92CF92DF92EF92BF
:1009F000FF92C0902B09D0902C09E0902D09F09027
:100A00002E09C701B6010E94ED272B013C01209160
:100A1000A2023091A3024091A4025091A5020E942B
:100A2000552787FFC6C0F7FCC4C080909A029090FB
:100A30009B02A0909C02B0909D0220E030E040E834
:100A40005FE360919E0270919F028091A00290915D
:100A5000A1020E947B269B01AC01C301B2010E944E
:100A6000152987FDAAC010922B0910922C0910920B
:100A70002D0910922E0920E030E044EB52E4C5012C
:100A8000B4010E947C266B017C0120E030E0A901CA
:100A90000E94552787FD9FC020E030E044E353E4E7
:100AA000C701B6010E94152964EB1816DCF0C701D6
:100AB000B601B8DD6B017C0120E030E040E853E492
:100AC0000E9455276FEF87FF0DC020E030E0A9019D
:100AD000C701B6010E94152987FD7DC0C701B60177
:100AE0000E94BF2780E059DC60914F047091500450
:100AF00080915104909152040E94EB2720E030E055
:100B000040E85FE40E9420296B017C0160914B0466
:100B100070914C0480914D0490914E040E94EB27FB
:100B20009B01AC01C701B6010E947C262FE632E191
:100B300043E85AE30E942029AB01BC0181E090E028
:100B40000E94F41880914B0490914C04A0914D04A4
:100B5000B0914E040196A11DB11D80934B0490935A
:100B60004C04A0934D04B0934E04892B8A2B8B2BFD
:100B700099F480914F0490915004A0915104B09148
:100B800052040196A11DB11D80934F04909350040F
:100B9000A0935104B0935204FF90EF90DF90CF9058
:100BA000BF90AF909F908F907F906F905F904F908D
:100BB0000895812C912C540140CF8FEFC81AD80A88
:100BC000E80AF80AC0922B09D0922C09E0922D096C
:100BD000F0922E0950CF60E085CF4F925F926F92D6
:100BE0007F928F929F92AF92BF92CF92DF92EF92BD
:100BF000FF920F931F93CF93DF93CDB7DEB761972B
:100C00000FB6F894DEBF0FBECDBFC0909602D09055
:100C10009702E0909802F0909902A70196016091E6
:100C20000C0970910D0980910E0990910F090E9495
:100C30005527882341F0C0920C09D0920D09E0920B
:100C40000E09F0920F09109220098BE38D87C12CB9
:100C5000EE24E39401E010E020E030E0AE01435FD9
:100C60005F4F68E670E0809115099091160945DCA8
:100C7000882389F01F82188619861A861B861C868F
:100C800090912109911182C09091200991111DC06C
:100C9000809320091AC0CC24C394E12C06E010E014
:100CA00020E030E0AE014F5F5F4F68E670E080917A
:100CB000150990911609B7DB86E0FE013196DE0139
:100CC000179601900D928A95E1F780912209812C67
:100CD000912C540124013501811132C06F81788536
:100CE000762767277627072E000C880B990B0E9422
:100CF000ED272AE038EE4CE151E40E94202920E063
:100D000030E040E858E30E9420294B015C016B85EC
:100D10007C85762767277627072E000C880B990B92
:100D20000E94ED272AE038EE4CE151E40E94202990
:100D300020E030E040E858E30E9420292B013C01EC
:100D400083E48D87C12CEE24E39401E010E020E0E1
:100D500030E0AE01435F5F4F68E670E080911509B7
:100D600090911609CADB8823A9F01F82188619867C
:100D70001A861B861C869091210991112DC1909194
:100D80002009911121C0809320091EC081E0809329
:100D900022099BCFCC24C394E12C06E010E020E094
:100DA00030E0AE014F5F5F4F68E670E0809115095B
:100DB0009091160938DB86E0FE013196DE01179628
:100DC00001900D928A95E1F780912209811108C165
:100DD0006F817885762767277627072E000C880B8A
:100DE000990B0E94ED2720E030E04AEF5BE30E9480
:100DF0002029C0909202D0909302E0909402F0904B
:100E000095022091AA023091AB024091AC02509120
:100E1000AD020E947B262091AE023091AF0240913C
:100E2000B0025091B1020E942029209123093091F3
:100E3000240940912509509126090E947C26A7018A
:100E400096010E9420296E877F87888B998BA3014A
:100E50009201C501B40135DC4B015C01A70196018B
:100E600060E070E080E89FE30E947B26A50194018A
:100E70000E9420292E853F85488959890E947C2619
:100E80006093230970932409809325099093260980
:100E90002091B6023091B7024091B8025091B90248
:100EA0000E947C262091BA023091BB024091BC0284
:100EB0005091BD020E9420296B017C01C092FE0866
:100EC000D092FF08E0920009F09201098090BE02E2
:100ED0009090BF02A090C002B090C102A501940101
:100EE0000E94152918160CF07FC08092020990927A
:100EF0000309A0920409B09205096091570470910A
:100F000058048091590490915A040E94EB2720E0E4
:100F100030E040E85FE40E9420296B017C01609191
:100F200053047091540480915504909156040E948A
:100F3000EB279B01AC01C701B6010E947C262DEC7A
:100F40003CEC4CE45DE30E942029AB01BC0182E053
:100F500090E00E94F4188091530490915404A09161
:100F60005504B09156040196A11DB11D8093530400
:100F700090935404A0935504B0935604892B8A2B64
:100F80008B2B99F48091570490915804A0915904A7
:100F9000B0915A040196A11DB11D809357049093FE
:100FA0005804A0935904B0935A0461960FB6F8946C
:100FB000DEBF0FBECDBFDF91CF911F910F91FF908C
:100FC000EF90DF90CF90BF90AF909F908F907F90E9
:100FD0006F905F904F90089581E080932209F4CE46
:100FE00060E070E0CB0105CF8090C2029090C30218
:100FF000A090C402B090C502A5019401C701B6013A
:101000000E94552787FD71CFC0920209D092030933
:10101000E0920409F092050970CF8F929F92AF92EF
:10102000BF92CF92EF92FF920F931F93CF93DF93D4
:1010300000D01F921F92CDB7DEB784E090E08BD333
:10104000E5E2F4E081E4DF011D928A95E9F780E0B2
:1010500090E0A0E8BFEB8093610490936204A093BA
:101060006304B093640487E197EBA1EDB8E3809348
:10107000470490934804A0934904B0934A048AE734
:1010800092E5A9E9BCEA8093290490932A04A093ED
:101090002B04B0932C0483EA94E0A1E8BEE980938A
:1010A0002D0490932E04A0932F04B093300489E074
:1010B00099E8AAE3B3EA8093310490933204A093B1
:1010C0003304B093340484EE91EFA7E5BDE8809338
:1010D000350490933604A0933704B093380489E123
:1010E00094E0909328048093270483E194E0909304
:1010F0001A04809319048EED92E090931404809367
:10110000130490931604809315049093180480930D
:10111000170489E394E090931E0480931D0489E2F0
:1011200094E090931C0480931B048BE394E09093D1
:10113000200480931F04EEEFF8E088E0DF011D92A9
:101140008A95E9F7E6E0F9E08FE2DF011D928A95E2
:10115000E9F7E9E0F4E08AE0DF011D928A95E9F71A
:101160008FEF93E090933A048093390480E190E00C
:10117000909300048093FF0382E792E0909302042F
:101180008093010482E592E0909304048093030429
:1011900086E192E090930604809305048AE092E051
:1011A0009093080480930704FF24F394F092340989
:1011B000812C912C5401839480922F0990923009B4
:1011C000A0923109B092320969E080E0DDD8109236
:1011D00020091092220980E090E5A3ECB8E4809306
:1011E0001B0990931C09A0931D09B0931E0910922E
:1011F00011091092120910921309109214091092F9
:101200001609109215091092100910920609F09211
:1012100033098091960290919702A0919802B09123
:10122000990280930C0990930D09A0930E09B09335
:101230000F0910920B098092070990920809A09259
:101240000909B0920A09F092210950E040E060E0FB
:1012500070E0CB01AFD8909316098093150940EA4E
:1012600056E861E070E040931709509318096093C5
:10127000190970931A09C2D880E88A838BE689839A
:1012800089819A819C838B83C12CE12C02E010E040
:1012900020E030E0AE014D5F5F4F68E670E0809186
:1012A00015099091160929D9882339F090912109BF
:1012B000992309F48BC1F092220961E070E080E08B
:1012C00090E079D91A8289819A819C838B83C12C81
:1012D000E12C02E010E020E030E0AE014D5F5F4F16
:1012E00068E670E0809115099091160906D9882367
:1012F00041F090912109992309F46FC181E0809315
:10130000220964E670E080E090E055D985E78D839E
:10131000C12CEE24E39401E010E020E030E0AE01C7
:101320004B5F5F4F68E670E0809115099091160958
:10133000E4D8811189C1CC24C394E12C01E010E0F0
:1013400020E030E0AE014B5F5F4F68E670E08091D7
:1013500015099091160967D89D8181E0983609F0AA
:1013600080E080931F09983609F0FCC089E18983E9
:1013700089819A819C838B83C12CE12C02E010E04F
:1013800020E030E0AE014D5F5F4F68E670E0809195
:10139000150990911609B1D8882341F0909121093F
:1013A000992309F426C181E0809322098CE18D8381
:1013B000C12CEE24E39401E010E020E030E0AE0127
:1013C0004B5F5F4F68E670E08091150990911609B8
:1013D00094D8811144C1CC24C394E12C01E010E0E5
:1013E00020E030E0AE014B5F5F4F68E670E0809137
:1013F00015099091160917D89D81977E9A838CE1E3
:10140000898389819A819C838B83C12CE12C02E0A2
:1014100010E020E030E0AE014D5F5F4F68E670E025
:10142000809115099091160968D8882341F0909110
:101430002109992309F4E9C081E0809322098BE115
:101440008D83C12CEE24E39401E010E020E030E035
:10145000AE014B5F5F4F68E670E080911509909197
:1014600016094BD8811106C1CC24C394E12C01E0AC
:1014700010E020E030E0AE014B5F5F4F68E670E0C7
:1014800080911509909116090E9413029D81977E03
:101490009A838BE1898389819A819C838B83C12C78
:1014A000E12C02E010E020E030E0AE014D5F5F4F44
:1014B00068E670E080911509909116091ED888237E
:1014C00041F090912109992309F4ABC081E0809308
:1014D00022098AE18D83C12CEE24E39401E010E01F
:1014E00020E030E0AE014B5F5F4F68E670E0809136
:1014F00015099091160901D88111C7C0CC24C39455
:10150000E12C01E010E020E030E0AE014B5F5F4FE6
:1015100068E670E080911509909116090E94130207
:101520009D81987F95609A838AE1898389819A81D8
:101530009C838B83C12CE12C02E010E020E030E0A2
:10154000AE014D5F5F4F68E670E0809115099091A4
:1015500016090E947D02882341F090912109992368
:1015600009F46BC081E0809322091092210981E087
:1015700080930B098FEF9FEFDC0180932B099093F1
:101580002C09A0932D09B0932E098091B20290915D
:10159000B302A091B402B091B50280932309909355
:1015A0002409A0932509B09326090F900F900F905E
:1015B0000F900F90DF91CF911F910F91FF90EF90BF
:1015C000CF90BF90AF909F908F90089590912009F9
:1015D000911173CE8093200970CE909120099111C2
:1015E00090CE809320098DCE81E08093220990E0F7
:1015F000B4CE909120099111D9CE80932009D6CEF6
:1016000081E08093220990E0F8CE90912009911119
:1016100016CF8093200913CF81E08093220990E0B8
:1016200036CF90912009911154CF8093200951CF4A
:1016300081E08093220990E074CF9091200991116C
:1016400094CF8093200991CF909121099111CCCF13
:10165000909120099111CBCF809320097ECE90915B
:1016600021099111CDCF909120099111CCCF809378
:101670002009C3CE909121099111CECF90912009DC
:101680009111CDCF8093200902CF90912109911122
:10169000CFCF909120099111CECF8093200941CFD7
:1016A00080910609811119C081E08093060980911B
:1016B000070990910809A0910909B0910A090197B9
:1016C000A105B10551F480910B09882331F0809177
:1016D0001509909116090E94BC0280911009811190
:1016E0001BC081E08093100980911109909112092B
:1016F000A0911309B09114090197A105B10561F4F6
:1017000082E090E0A0E0B0E080931109909312098C
:10171000A0931309B0931409089560E070E080E885
:101720009FE7089560E070E080E89FE7089560E03B
:1017300070E080E89FEF089560E070E080E89FEF40
:10174000089560E070E080EC9FEF089560E070E045
:1017500080EC9FEF0895F5DF609341097093420993
:101760008093430990934409F1DF609335097093A6
:1017700036098093370990933809CFDF60933D098C
:1017800070933E0980933F0990934009CBDF6093AB
:10179000390970933A0980933B0990933C09C7DF5C
:1017A00060934509709346098093470990934809CF
:1017B000C3DF6093490970934A0980934B09909362
:1017C0004C090895CF92DF92EF92FF92CF936B0175
:1017D0007C01AC019B0160913D0970913E098091B3
:1017E0003F09909140090E945527C1E0882371F07C
:1017F000A7019601609145097091460980914709BA
:10180000909148090E9455278111C0E08C2FCF91FB
:10181000FF90EF90DF90CF9008950F931F938B016F
:101820009C010027112720783F77011511052048DA
:101830003F4749F4AB01BC016F77772781E0452B27
:10184000462B472B09F480E01F910F910895E5CFB7
:10185000EF92FF920F931F93CF93DF93EA01F90169
:10186000DC011496ED90FC90159712964D915C91C9
:1018700013974E0D5F1D2881398118960D911C918B
:1018800019970217130730F00D911C911197012B36
:1018900009F441C08A01021B130BDC0118968D91DB
:1018A0009C918E199F09800F911F86179707DCF175
:1018B000C901860F971F8417950778F47183608399
:1018C000338322831582148217821682888199813C
:1018D000680F791F7983688316C01183008333836F
:1018E0002283601B710B7583648390E080E0161681
:1018F000170614F49E2D8F2D96838783D701A60F8C
:10190000B71FB983A88380E0DF91CF911F910F911A
:10191000FF90EF90089518968D919C91821B930BE8
:10192000861797075CF681E0EFCFCF92DF92EF92B8
:10193000FF92CF93DF936B0184E4869FE001879F42
:10194000D00D1124CA59DB4F8AA99BA9009721F019
:101950000E9451381BAA1AAA84E48C9DF0018D9D27
:10196000F00D1124EA59FB4F86A997A9009711F0B1
:101970000E94513884E48C9DF0018D9DF00D11245E
:10198000EA59FB4F138A128A168A178A108E118E13
:10199000128E138E148E158E168E178E10A211A213
:1019A00081E090E093A382A315A214A216A217A22D
:1019B00010A611A613A612A615A614A616A617A65B
:1019C00010AA11AA13AA12AA15AA14AA17AA16AA2B
:1019D00011AE10AE12AE13AE14AE15AEDF01DE9630
:1019E0001D921D921D921C921397EE5BFF4F118268
:1019F0001082DF91CF91FF90EF90DF90CF9008950C
:101A0000CF93DF93FB01DC016D917C91DB01169696
:101A1000CD91DC918081918123E0880F991F2A95D7
:101A2000E1F7AA81BB81A80FB91F8D919C911197F5
:101A300024853585220F331FEB016A817B81EB0101
:101A4000C20FD31F0990D881C02D14962D913C91BF
:101A500061E070E0232B11F062E070E0C69F90011E
:101A6000C79F300DD69F300D1124A085B1852A9FC8
:101A7000B0012B9F700D3A9F700D1124A481B58188
:101A80002A9FF0012B9FF00D3A9FF00D11248E0F2D
:101A90009F1FFA019183808373836283DF91CF91CB
:101AA00008952F923F924F925F926F927F928F9202
:101AB0009F92AF92BF92CF92DF92EF92FF920F93DD
:101AC0001F93CF93DF9300D000D0CDB7DEB7DC01FA
:101AD0001496ED91FC910190F081E02D8085918527
:101AE0009A838983A281B381BC83AB83FB018190FC
:101AF0009190A190B190C12CD12C7601C814D90439
:101B0000EA04FB04CCF026960FB6F894DEBF0FBEB5
:101B1000CDBFDF91CF911F910F91FF90EF90DF909C
:101B2000CF90BF90AF909F908F907F906F905F907D
:101B30004F903F902F900895448055806680778025
:101B40004085518562857385CF0140969E838D8344
:101B5000A081B1819D0183E0220F331F8A95E1F7B7
:101B6000A981BA8112968D919C91D901A80FB91FB4
:101B70002D903C9011970484F585E02DEE0FFF1F0A
:101B80008B819C81E80FF91F0190F081E02D149664
:101B90008D919C91892B41F581E090E0E89F900127
:101BA000E99F300DF89F300D1124249F8001259F5F
:101BB000100D349F100D1124249DC001259D900D02
:101BC000349D900D1124A8016D817E81820D931D9D
:101BD0000E94DA38ED81FE81E00FF11F9FEFC91AF4
:101BE000D90AE90AF90A8ACF82E090E0D7CFCF93E9
:101BF000DF93DB01AA53BD4F2C91222369F024E42B
:101C0000269FF001279FF00D1124EA59FB4FEF01A9
:101C100019922A95E9F71C9224E4269FF001279F48
:101C2000F00D1124EA59FB4F148215821682178297
:101C30001186108613861286118A108A17861686D8
:101C4000DF91CF9172CE2F923F924F925F926F921F
:101C50007F928F929F92AF92BF92CF92DF92EF923C
:101C6000FF920F931F93CF93DF9300D000D01F926A
:101C70001F92CDB7DEB724E4269FF001279FF00D19
:101C80001124EA59FB4F0481158126813781012BEC
:101C9000022B032B09F4B7C02A016B017C0110E071
:101CA00000E0812C912C54013F019F01285F3F4FA0
:101CB0003C832B83CF0104969E838D83AB81BC81B3
:101CC0008D919C91ED81FE81408151816281738172
:101CD00084169506A606B706E4F10E945138D30192
:101CE0001A968D919C91892B09F07EC084E48C9D7D
:101CF000D0018D9DB00D1124AA59BB4FBC83AB837D
:101D000050968D919C910E945138EB81FC81868583
:101D100097850E945138C701B60107DEC701B60199
:101D200028960FB6F894DEBF0FBECDBFDF91CF91DE
:101D30001F910F91FF90EF90DF90CF90BF90AF90E9
:101D40009F908F907F906F905F904F903F902F90DB
:101D50004ECFFC01E00FF11F92819983A381AA83EA
:101D60009F83A887312C212C2414350464F08981A9
:101D70009A810E945138EFEF8E1A9E0AAE0ABE0A6F
:101D80000C5F1F4F9BCFAF81B885ED91FD91B88758
:101D9000AF83309759F0848195810E945138EF814B
:101DA000F8853297808191810E945138BFEF2B1ABC
:101DB0003B0ADACF800F911FFC01848195810E943C
:101DC00051382B813C812F5F3F4F3C832B83025F37
:101DD0001F4FF501808191812B813C8124153505B0
:101DE0004CF30E94513882CF10E000E01C821B822D
:101DF00024E42C9DC0012D9D900D1124DC01A059DF
:101E0000BB4F5D01E6CF28960FB6F894DEBF0FBE3C
:101E1000CDBFDF91CF911F910F91FF90EF90DF9099
:101E2000CF90BF90AF909F908F907F906F905F907A
:101E30004F903F902F90089524E4269FF001279F14
:101E4000F00D1124EA59FB4F828993890497029778
:101E500058F485E090E0938B828B8FEF9FEFDC014D
:101E6000828F938FA48FB58F08952F923F924F92B8
:101E70005F926F927F928F929F92AF92BF92CF921A
:101E8000DF92EF92FF920F931F93CF93DF93CDB723
:101E9000DEB7AA970FB6F894DEBF0FBECDBF9AA3E8
:101EA00089A37E8B6D8B1A01098B1A8B2B8B3C8B34
:101EB00084E429893A89829F6001839FD00C112490
:101EC00086010A591B4F89899A89AB89BC89F80117
:101ED00080839183A283B383AB01BC01CD01B3DEC8
:101EE000D601A659BB4F84E0F10101900D928A956D
:101EF000E1F7F4E02F0E311C64E070E0D801149695
:101F00008D919C910E949B37F80191878087892B46
:101F100009F0F5C04D895E8969897A898B899C8928
:101F200092DE81E0AA960FB6F894DEBF0FBECDBF59
:101F3000DF91CF911F910F91FF90EF90DF90CF90A5
:101F4000BF90AF909F908F907F906F905F904F90D9
:101F50003F902F900895A9A5BAA58D919C91E98DE8
:101F6000FA8DE80FF91FF88FEF8BD1018D919C91BD
:101F7000880F991FA9A1BAA1ED91FC91E80FF91F53
:101F800080819181EF89F88D91838083D1011496AE
:101F90002D913D914D915C9117972BA33CA34DA39F
:101FA0005EA362E070E08D899E890E949B37EF8975
:101FB000F88D93838283892B09F4ACCFF8E02F0E40
:101FC000311C412C512C32012BA13CA14DA15EA111
:101FD00042165306640675069CF02B8D3C8D4D8D84
:101FE0005E8D2F5F3F4F4F4F5F4F2B8F3C8F4D8F3D
:101FF0005E8F498D5A8D4C5F5F4F5A8F498F90C0CD
:10200000610124E0C20ED11CD101ED90FC90EE0CD8
:10201000FF1CEF89F88D82819381E80EF91E68E03C
:1020200070E081E090E00E949B378C01D7018D9396
:102030009C93892B09F46ECF84E0F601D8010190BE
:102040000D928A95E1F7B8E02B0E311CF8018081E2
:102050009181A281B381181619061A061B06DCF4B9
:1020600064E070E00E949B37D80115969C938E9394
:102070001497892B09F44ECFD12CC12C812C912C93
:102080005401F80180819181A281B381881699065B
:10209000AA06BB0634F0FFEF4F1A5F0A6F0A7F0AE9
:1020A00093CFF801E480F580EC0CFD1C80E1F10198
:1020B000DE01119601900D928A95E1F7F0E12F0E65
:1020C000311CA701BE016F5F7F4FA9A1BAA1149671
:1020D0008D919C9195DCF80186819781D7011296AC
:1020E0002D913C91820F931F97838683BFEF8B1AAC
:1020F0009B0AAB0ABB0AE4E0CE0ED11CC2CF1A8EFB
:10210000198E1B8E1C8E1D8E1E8E18A30F8FA8017C
:102110004C5F5F4F58A74FA3C80108969AA789A79D
:10212000EFA1F8A580819181A281B3812B8D3C8D97
:102130004D8D5E8D281739074A075B070CF40BCFCE
:102140006EE070E08D899E890E949B37AF8DB8A1AB
:102150001B969C938E931A97B12CA12CD12CC12C39
:10216000F12CE12C24E4E989FA892E9FC0012F9FEC
:10217000900D11249C0120593B4F388F2F8B8824C0
:102180008394912C4D895E89C416D50654F184E45C
:10219000A989BA898A9F80018B9F100D11240A5941
:1021A0001B4FF80115861486C70133E0880F991F6D
:1021B0003A95E1F70E94B537D80151969C938E93DA
:1021C0005097892B09F4A6CEC701880F991F0E944A
:1021D000B537F80197878687892B09F49BCE80E075
:1021E000A1CED1014D905D906D907D901D0177FC49
:1021F00091CEEF89F88D008111810A0D1B1DD80148
:1022000011969C928E92411451046104710429F13B
:10221000C2010E94B537F80195838483892B09F4A4
:1022200079CEF80153824282848195819783868397
:10223000918780871386128681E090E045284628A2
:10224000472811F490E080E0E80EF91EFFEFCF1A66
:10225000DF0A2EE0A20EB11C95CF15961C921E929D
:102260001497DFCF2F923F924F925F926F927F929F
:102270008F929F92AF92BF92CF92DF92EF92FF9296
:102280000F931F93CF93DF93CDB7DEB76A970FB647
:10229000F894DEBF0FBECDBF9E8B8D8B49015A01D6
:1022A00084E4829F7001839FF00C112497012A59C6
:1022B0003B4F6901FB0180819181F901958B848BF2
:1022C000D701A458BB4FFB01349684E001900D92D6
:1022D0008A95E1F7D701A058BB4FFB01389684E0FF
:1022E00001900D928A95E1F7D701AC57BB4FFB01E6
:1022F0003C9684E001900D928A95E1F7D701AC56A7
:10230000BB4FFB01709684E001900D928A95E1F736
:102310008B010C5E1F4FF90186A597A5A0A9B1A955
:1023200018161906DCF5880F991F880F991F0E944F
:10233000B537F60193AB82AB892B09F4D3C0312CAE
:10234000212C412C512C32019601225D3F4F388FB8
:102350002F8BC601C2969A8F898FF496FC8BEB8BDC
:10236000B301A2012FEF421A520A620A720AEF89E0
:10237000F88D80819181A281B381481759076A073E
:102380007B070CF47BC0F60184A995A90E94B537A0
:10239000F60197AB86AB892B09F4A4C0F8018081C4
:1023A0009181A281B38124E4289DF001299DF00D43
:1023B0001124EA59FB4FAC01BD014D7F21E030E013
:1023C000452B462B472B11F030E020E033A322A30E
:1023D00024E4289DF001299DF00D1124EA59FB4FBA
:1023E0000197A109B10921E030E00297A105B105EB
:1023F00010F030E020E035A324A3D701A457BB4F51
:10240000F801349684E001900D928A95E1F784E416
:10241000889DF001899DF00D1124EA59FB4F868DAE
:10242000978DA0A1B1A1B7FF58C0B095A095909588
:1024300081959F4FAF4FBF4F82AF93AFA4AFB5AF62
:10244000168E178E10A211A280E06A960FB6F8942D
:10245000DEBF0FBECDBFDF91CF911F910F91FF90D7
:10246000EF90DF90CF90BF90AF909F908F907F9034
:102470006F905F904F903F902F900895E98DFA8D67
:10248000808191819C01220D331D3A8B298B80E143
:10249000F801DE01119601900D928A95E1F7005F37
:1024A0001F4F49895A89BE016F5F7F4FED89FE89B1
:1024B00084819581A5DAEB89FC8980819181E98904
:1024C000FA8922813381820F931FEB89FC899183E2
:1024D0008083F4E02F0E311C43CF12AE13AE14AE46
:1024E00015AEB2CFC501B40120DA81E0AECFCF92F4
:1024F000DF92EF92FF92CF93DF931092EE0424E4E9
:10250000269FF001279FF00D1124EA59FB4F15A6D5
:1025100014A630E020E0D12CC12CDF011A96C1E0D6
:10252000D0E0C416D506F4F024E4269FF001279FDE
:10253000F00D1124EA59FB4F13A612A611AE10AEEE
:10254000DF01DE961D921D921D921C92139782E070
:1025500090E0938B828BDF91CF91FF90EF90DF9093
:10256000CF900895ED91FC911197E20FF31FE28057
:10257000F3801E141F0454F4E480F580F782E68291
:10258000F186E08613861286D183C083EFEFCE1AE0
:10259000DE0A225F3F4FC5CF24E4269FF001279F2C
:1025A000F00D1124EA59FB4F138A128A4CCB24E414
:1025B000269FF001279FF00D1124EA59FB4F8289D5
:1025C000938981309105C8F08530910518F0059701
:1025D00069F008958FEF9FEFDC01828F938FA48FB6
:1025E000B58F85E090E0938B828B08958FEF9FEFFE
:1025F000DC01828F938FA48FB58F089524E4249FEC
:10260000D001259FB00D1124AA59BB4F2EE0AC017B
:10261000249FC001259F900D11241A96ED91FC91E5
:10262000E80FF91F81E08093EE04828593859187FE
:102630008087408551852681378181E090E042176F
:10264000530711F090E080E09183808308952F92EA
:102650003F924F925F926F927F928F929F92AF9232
:10266000BF92CF92DF92EF92FF920F931F93CF937F
:10267000DF93CDB7DEB7C055D1090FB6F894DEBFF2
:102680000FBECDBF9EAF8DAF4BA75CA76DA77EA73A
:102690006801790184E4809FF001819FF00D11248D
:1026A000EA59FB4F2285338523963FAF2EAF239700
:1026B00082899389029761F486A597A5A0A9B1A9FB
:1026C000892B8A2B8B2BC9F584E090E0938B828B2E
:1026D00084E48C9DF0018D9DF00D1124EA59FB4F8F
:1026E000828993898230910509F037C282AD93AD1A
:1026F000A4ADB5AD22242394312C181619061A0660
:102700001B060CF42FC2C05BDF4F0FB6F894DEBF80
:102710000FBECDBFDF91CF911F910F91FF90EF9032
:10272000DF90CF90BF90AF909F908F907F906F90F1
:102730005F904F903F902F900895848995894DAD7B
:102740005EAD8417950721F606A917A918AE1FAA32
:102750001BAA1CAA1DAA1EAA1F01CF018E9627968E
:102760009FAF8EAF2797DF01D2962996BFAFAEAF4E
:102770002997F8962B96FFAFEEAF2B9791012A5D24
:102780003F4F2D963FAF2EAF2D97A1014E5D5F4F6E
:102790002F965FAF4EAF2F970A9761969FAF8EAF80
:1027A00061972796EEADFFAD279780819181A28139
:1027B000B3812BA93CA94DA95EA9281739074A075F
:1027C0005B0744F081E090E0D101D9969C938E9311
:1027D000D8977ECF2996AEADBFAD2997ED91FC91EC
:1027E0002FA938ADE20FF31F428153815AAF49AF91
:1027F00050815FAF818121968FAF21972B96AEAD2F
:10280000BFAD2B978D919C91892B21F12D96EEAD2B
:10281000FFAD2D9780809180A280B3801AAB09AB69
:102820005FA72196FFAD2197F8AB29AD3AAD36955C
:1028300027953695279525963FAF2EAF25971CAE49
:102840001BAE2596AEADBFAD2597EBADFCADEA173F
:10285000FB070CF149AD5AAD6FAD21967FAD2197C5
:10286000C8010E94DA3889AD9AAD8C7F080F191F14
:102870002BA93CA94DA95EA92F5F3F4F4F4F5F4F3A
:102880002BAB3CAB4DAB5EAB4FA958AD4C5F5F4F34
:1028900058AF4FAB86CF2F96AEADBFAD2F978D9172
:1028A0009C91892B71F1EFA5F8A94080518062803D
:1028B0007380A3019201C501B4010E945527181627
:1028C00064F0A9A9BAA92D913D914D915C91C501E2
:1028D000B4010E9415291816BCF1A3019201C5018B
:1028E000B4010E94552787FF0CC0E9A9FAA92081ED
:1028F000318142815381C501B4010E94552788234B
:1029000019F16196AEADBFAD61978D919C91892B08
:1029100009F445C0EFA5F8A940805180628073801A
:10292000A3019201C501B4010E94152918161CF5D6
:10293000A9A9BAA92D913D914D915C91C501B40110
:102940000E94552718165CF184E48C9DF0018D9D42
:10295000F00D1124EA59FB4F868D978DA0A1B1A1EE
:10296000892B8A2B8B2B69F183E090E0938B828BF0
:1029700081E090E02CC0A3019201C501B4010E9446
:10298000552781110CC0E9A9FAA920813181428122
:102990005381C501B4010E94552787FDD5CF2BADCA
:1029A0003CAD2F5F3F4F3CAF2BAF49A95AA94C5FBD
:1029B0005F4F5AAB49AB8FA598A9049698AB8FA7E8
:1029C00040CF84E090E0938B828B86AD97AD93A748
:1029D00082A77ECEEBADFCAD80819181F401EE0F3C
:1029E000FF1FEE0FFF1FE80FF91FA081B1818C912F
:1029F00081110AC0FFEF8F1A9F0AAF0ABF0A8DA28A
:102A00009EA2AFA2B8A68FC18330A1F30280F3814A
:102A1000E02D2FA938ADE20FF31F808191819AAB91
:102A200089AB892B39F34F5F5F4F6F4F7F4F4987DA
:102A30005A876B877C879E01235E3F4FAE01475DBF
:102A40005F4F64E070E0C8010E94280C8111D0C182
:102A50008D819E81AF81B8850496A11DB11D8D83A6
:102A60009E83AF83B8874D8D5E8DBE016B5D7F4FBA
:102A70008F8D98A10E94DA388BA19CA1009761F0FC
:102A80006D8D7E8DA5E2B0E0AC0FBD1F6A0F7B1F80
:102A900049A15AA10E94DA381CAA1BAA412C512C28
:102AA0003201E9A9FAA980819181A281B3814816F6
:102AB00059066A067B060CF09DCFE9A9FAA9848124
:102AC00095812BA93CA9280F391F38AB2FA7D90115
:102AD00012966D917C919E01235E3F4FAE01475D42
:102AE0005F4FC8010E94280C811182C1EFA5F8A98F
:102AF00082819381092E000CAA0BBB0B4D815E8154
:102B00006F817885840F951FA61FB71F8D839E83C5
:102B1000AF83B887608171814D8D5E8D8F8D98A157
:102B20000E94DA388BA19CA1009761F0AFA5B8A9EB
:102B30006D917C912D8D3E8D620F731F49A15AA11D
:102B40000E94DA38BFEF4B1A5B0A6B0A7B0AEBA9CB
:102B5000FCA93496FCABEBABA4CF312C212C049711
:102B600009F0D1CD8EE0EDADFEAD8E9F80018F9F3F
:102B7000100D112423962EAD3FAD2397020F131F86
:102B8000D80112964D915C9113974115510509F4A6
:102B9000BACD16968D919C919AA789A780E1FE01E6
:102BA0003196DF011D928A95E9F7C98ADA8AEB8AA4
:102BB000FC8A2114310409F458C084E48C9DF0018E
:102BC0008D9DF00D1124EA59FB4FDF01DE968D90AB
:102BD0009D90AD90BC9082AD93ADA4ADB5AD88167F
:102BE0009906AA06BB0609F040C0F80184819581C8
:102BF0000084F185E02D349624E0DE0155960190A5
:102C00000D922A95E1F72D893E89285F3F4F3E8B33
:102C10002D8BD80118966D917C911997260F371F2F
:102C200019963C932E93189718962D913C911997CD
:102C3000480F591F241B350B37FD06C0820F931F09
:102C400019969C938E93189784E48C9DF0018D9D2A
:102C5000F00D1124EC55FB4FB1E08B1A9108A1083F
:102C6000B10880829182A282B3829E012B5E3F4F87
:102C7000AE01475D5F4F64E170E0C8010E94280C1F
:102C80008111B6C08CE090E0A0E0B0E08D839E831F
:102C9000AF83B8879E01235E3F4FAE01475D5F4F14
:102CA00064E070E0C8010E94280C8111A1C080E19D
:102CB00090E0A0E0B0E08D839E83AF83B8874D8D18
:102CC0005E8DBE01655D7F4F8F8D98A10E94DA38C1
:102CD0008BA19CA1009761F06D8D7E8DEBE2F0E001
:102CE000EC0FFD1F6E0F7F1F49A15AA10E94DA3819
:102CF0001DA21EA21FA218A62DAD3EAD220F331F8E
:102D000038AF2FAB24E42C9DC0012D9D900D1124D4
:102D10008A599B4FAC014C5F5F4F5AAF49AFDC0102
:102D20001896BCAFABAF8DA09EA0AFA0B8A449854C
:102D30005A856B857C85E9ADFAAD80819181A28150
:102D4000B38188169906AA06BB060CF443CE452B20
:102D5000462B472B09F4D7CC8AE190E0A0E0B0E005
:102D600089839A83AB83BC832DAD3EADC901330FFC
:102D7000AA0BBB0B8D879E87AF87B88B4D895E8969
:102D8000BE016F5F7F4F8F89988D0E94DA388B8DDF
:102D90009C8D009761F06D897E8941E050E04C0F79
:102DA0005D1F640F751F498D5A8D0E94DA3889A501
:102DB0009AA5D80117969C938E93169711961C92FC
:102DC0001E92232809F49FCC84E48C9DF0018D9DF4
:102DD000F00D1124EC55FB4F80819181A281B381CC
:102DE0000196A11DB11D80839183A283B3838BCCF7
:102DF000232809F088CC84E48C9DF0018D9DF00D92
:102E00001124EA59FB4F81E090E095A784A785E063
:102E100090E0938B828B77CCCF92DF92EF92FF92F0
:102E20000F931F9324E4269FF001279FF00D112498
:102E3000EA59FB4F228933892115310509F452C023
:102E40006B017C0121303105B1F482A593A59C0171
:102E50002F5F3F4F33A722A7092E000CAA0BBB0BF5
:102E6000028D138D248D358D80179107A207B3072E
:102E7000C9F5C7013CDB84E48C9DF0018D9DF00D0C
:102E80001124EA59FB4F82899389039759F582A54A
:102E900093A59C012F5F3F4F33A722A7092E000C5B
:102EA000AA0BBB0B468D578D60A171A184179507A6
:102EB000A607B707BCF086AD97AD93A782A784E0BD
:102EC00090E0938B828B82AD93ADA4ADB5AD181617
:102ED00019061A061B0634F4EE5BFF4F81E090E002
:102EE000918380831F910F91FF90EF90DF90CF909F
:102EF000089524E4269FF001279FF00D1124EA593C
:102F0000FB4F828993890497B1F482A593A501961A
:102F100093A782A7092E000CAA0BBB0B46895789E1
:102F2000608D718D84179507A607B70721F485E09A
:102F300090E0938B828B08952F923F924F925F92F5
:102F40006F927F928F929F92AF92BF92CF92DF92B9
:102F5000EF92FF920F931F93CF93DF93CDB7DEB71E
:102F60002E970FB6F894DEBF0FBECDBFDC014983AC
:102F70005A836B837C83290184E4849FF001859FBD
:102F8000F00D1124EA59FB4F22883388C1010497C0
:102F9000029708F0D5C011961C921E9213961C92AF
:102FA0001E92129715861486912C812C90E080E059
:102FB0008F019F01205F3F4F38872F833F013CE007
:102FC000630E711CBF01625F7F4F7A8769873A96F3
:102FD000FC87EB87EF81F88520813181F301408107
:102FE0005181E985FA85A080B180841595050CF49E
:102FF00045C011965C934E9313963C932E93129773
:103000001596BC92AE921497452BF9F4F5E02F1665
:103010003104D9F41092EE04F801828D938DA48DC1
:10302000B58DAE014F5F5F4F64E070E08F3F9F4F03
:10303000AF4FBF4F09F079C080E290E0D8D46981EA
:103040007A818B819C81A201A7DA2E960FB6F89423
:10305000DEBF0FBECDBFDF91CF911F910F91FF90CB
:10306000EF90DF90CF90BF90AF909F908F907F9028
:103070006F905F904F903F902F900895EB85FC8567
:1030800060817181FB01E80DF91DFE87ED8760818C
:103090007181672B89F5E084F184628173817E837D
:1030A0006D83668177816A01E3E0CC0CDD1CEA95D3
:1030B000E1F72C0D3D1D440F551F4A0D5B1DFA0114
:1030C00091838083F301408151814F5F5F4F518332
:1030D0004083F901F382E282ED85FE857387628782
:1030E000E616F70670F46E197F09F90171836083A3
:1030F00015821482178216820196FEE08F0E911CB3
:1031000069CFED85FE85C480D5804D815E814C0DF3
:103110005D1D4E195F09F901518340836C197D09CA
:1031200075836483D782C682E7CF8FE190E05FD456
:10313000F80113A612A681E090E0938B828B85CFD5
:103140001586148611961C921E9213961C921E923E
:1031500012977BCFEF92FF920F931F93CF93DF9342
:103160007C018B01EA011FD581111BC08091C8022F
:103170009091C9020497F9F4DF91CF911F910F91BB
:10318000FF90EF90089528ED38EB45E050E060E0C7
:1031900070E0CB01BED7AE01B801C701C8D7C801E6
:1031A00091D78091EF049091F004892BF9F68881F2
:1031B000882349F3DBCF83E090E09093C9028093AA
:1031C000C802DACFCF93DF932091C8023091C902B1
:1031D0002430310531F0EB01AAD7CE01DF91CF9138
:1031E00071C7DF91CF9108950C9495240C948A2493
:1031F0000C94782477C70C941C24089570E060E048
:1032000090E080E0ABC40895AF92BF92CF92DF927E
:10321000EF92FF920F931F93CF93DF931F921F9212
:10322000CDB7DEB75C018B0169017A0190E080E0E7
:10323000C114D104E104F10469F40F900F90DF91FF
:10324000CF911F910F91FF90EF90DF90CF90BF90A3
:10325000AF9008959C2D8D2DC114D10421E0E2067C
:10326000F10410F09FEF8FEF9E012F5F3F4F492F2A
:10327000582FB801C5010E9425258F3F9807E9F214
:1032800029813A81C21AD30AE108F108020F131FFB
:10329000CFCF40E855E260E070E090E080E00C9431
:1032A000BD021F920F920FB60F9211240BB60F9210
:1032B0002F933F934F935F936F937F938F939F933E
:1032C000AF93BF93EF93FF9387EE9FEF90938500AB
:1032D000809384000E945F25FF91EF91BF91AF9191
:1032E0009F918F917F916F915F914F913F912F911E
:1032F0000F900BBE0F900FBE0F901F90189587EE8A
:103300009FEF9093850080938400AFE6B0E08C91AE
:103310008E7F8C93E0E8F0E080818C7F8083E1E811
:10332000F0E08081877E80838081836080838081DC
:103330008B7F80838C9181608C93089581E00895C8
:103340008F929F92AF92BF92CF92DF92EF92FF92B5
:103350000F931F93CF93DF935C017B018A01C1E040
:10336000D0E0CE15DF05CCF081E0F5018083B80117
:10337000C7010E94C024F5019283818390E080E020
:10338000DF91CF911F910F91FF90EF90DF90CF9041
:10339000BF90AF909F908F9008956E018FEFC81AE5
:1033A000D80AFE01EE0FFF1FE00FF11F8080918011
:1033B0008114910469F06DE873E0C4010E94EA3859
:1033C000892B41F4CC0FDD1FC00FD11F1982188249
:1033D000E601C7CF60E973E0C4010E94EA38892B97
:1033E000B9F7EC14FD04A1F36E01E2E0CE0ED11C9E
:1033F000CC0FDD1FC00FD11F198218821B821A82C9
:10340000E7CF81EF94E0089580E008950F931F9334
:10341000CF93DF938B01BA01E901198218829801D9
:10342000012E000C440B550BFC0181819281ECDED6
:10343000019641F01983088380E0DF91CF911F91BD
:103440000F91089581E0F9CF0F931F93CF93DF93EE
:103450001F921F92CDB7DEB7FB018A01B9019E0111
:103460002F5F3F4FAF01FC01818192810E94D724E1
:10347000019669F089819A81F8019183808380E0C7
:103480000F900F90DF91CF911F910F91089581E0E0
:10349000F7CFFC01808108950895089581E0FB0134
:1034A000808380E008950895109219050895FC0125
:1034B000818192810C94B724CF93DF9300D000D008
:1034C00000D01F92CDB7DEB7B0E0A0E089839A8329
:1034D000AB83BC83CB01770FAA0BBB0B8D839E8381
:1034E000AF83B8879E01275F3F4FAE014F5F5F4FAD
:1034F00068E070E0809108059091090587DF8111EF
:1035000010C081E029853A852830310509F480E032
:103510002A960FB6F894DEBF0FBECDBFDF91CF91D4
:10352000089581E0F5CF0F931F93CF93DF931F9200
:103530001F92CDB7DEB78B019E012F5F3F4FAC01CD
:10354000809108059091090561DF81110EC081E02D
:1035500029813A812017310709F480E00F900F90FC
:10356000DF91CF911F910F91089581E0F7CFCF9315
:10357000DF93EC0110920C0510920B0510921805C8
:1035800010921705AC0160E070E0CB0105D8AE01E8
:1035900061E070E080E090E00E94CC12809108052C
:1035A00090910905DF91CF917ECF4F925F926F92FC
:1035B0007F928F929F92AF92BF92CF92DF92EF92C3
:1035C000FF920F931F93CF93DF931F921F92CDB75C
:1035D000DEB78C017C0197FF03C087E0E80EF11C89
:1035E00023E0F594E7942A95E1F7C80168E070E0DC
:1035F0000E9415376C010E5F1F4F80910605909158
:10360000070580179107D4F4809104059091050572
:10361000009731F00E94513810920705109206056C
:10362000C8010E94B5379093050580930405892B46
:1036300009F482C0109307050093060510E000E02E
:1036400047C1412C512C3201B12CA12C9501235F93
:103650003A4FAE014F5F5F4F61E070E08091080527
:1036600090910905F1DE811149C0EFEF4E1A5E0A13
:103670006E0A7E0AF0E94F16FFE55F06F1E06F067D
:10368000710444F060911705709118058DEE90E07B
:1036900013DFD7CF89819A81A80EB91E8AE0A816B8
:1036A000B10409F043C049E050E070E060E08DE013
:1036B00095E00E94512560911705709118058823A7
:1036C00091F18091150590E08617970781F4BC0170
:1036D0008EEE90E0F1DE809117059091180501962D
:1036E000992790931805809317050F5F1F4F0E15AC
:1036F0001F050CF4A6CFCD2809F07CC090E080E037
:103700000F900F90DF91CF911F910F91FF90EF904D
:10371000DF90CF90BF90AF909F908F907F906F90F1
:103720005F904F9008958FEE90E0B2CFEAE0AE1632
:10373000B1040CF48BCFDBCF10E000E0D8CF0A301F
:10374000110531F549E050E070E060E08DE095E072
:103750000E94512560911705709118058823A9F0E2
:103760008091150590E08617970741F6BC018EEE13
:1037700090E0A2DE80911705909118050196992797
:103780009093180580931705B9CF8FEE90E02BC06A
:103790000A3011050CF0B2CF9801235F3A4FAE0109
:1037A0004F5F5F4F61E070E08091080590910905DF
:1037B0004BDE8111A3CF89819A81080F191FFFEF7A
:1037C000CF1ADF0AEF0AFF0A80E9C8168FE5D8068C
:1037D00081E0E806F1040CF4B2CF60911705709116
:1037E00018058DEE90E068DE10E000E0C12CD12CD1
:1037F0007601D2CFC12CD12C760110E000E0CCCFE5
:10380000412C512C3201B12CA12C480193E0880CA1
:10381000991C9A95E1F72091040530910505C501A1
:10382000880D991D280F391FAE014F5F5F4F61E072
:1038300070E0809108059091090506DE81115ECF48
:10384000EFEF4E1A5E0A6E0A7E0A609117057091BC
:1038500018058DEE90E0F0E94F16FFE55F06F1E008
:103860006F0671040CF043C089819A81A80EB91EBD
:103870008AE0A816B10409F041C049E050E0B40163
:1038800080910405909105050E94512560911705CE
:1038900070911805882349F18091040590910505E0
:1038A000880E991EF401808590E08617970781F4B1
:1038B000BC018EEE90E000DE809117059091180516
:1038C0000196992790931805809317050F5F1F4F56
:1038D0000E151F050CF494CFC114D10409F081C05A
:1038E00080910405909105050BCF8FEE90E0E4DD0B
:1038F000412C512C3201B12CA12C8DCFFAE0AF1606
:10390000B1040CF488CFE4CF8FEE90E0D5DDF12C3C
:10391000E12C812C912C54019701235F3A4FAE0189
:103920004F5F5F4F61E070E080910805909109055D
:103930008BDD8111E3CE8FEF881A980AA80AB80AA6
:1039400060911705709118058DEE90E0E0E98E16F4
:10395000EFE59E06E1E0AE06B104C4F689819A81E6
:10396000E80EF91EFAE0EF16F104A9F549E050E07F
:1039700070E060E08DE095E00E94512560911705B0
:1039800070911805882309F4BFCF8091150590E048
:103990008617970709F0A4CFBC018EEE90E08CDD6E
:1039A00083E0000F111F8A95E1F780910405909143
:1039B0000505A6016DE075E0800F911F0E94DA38C1
:1039C00080911705909118050196992790931805F5
:1039D0008093170585CF8AE0E816F1040CF49CCF9C
:1039E0007FCF812C912C5401F12CE12C95CFCF92DB
:1039F000DF92EF92FF920F931F93CF93DF931F926B
:103A0000CDB7DEB76C017B018A01452B39F0AB01E4
:103A100070E060E0C8010E944D258983B701C601AE
:103A20004BDD81110DC00115110551F0B701C80121
:103A30007ADD811105C061E070E0CE01019673DD91
:103A40000F90DF91CF911F910F91FF90EF90DF903A
:103A5000CF900895CF92DF92EF92FF92CF93DF93B2
:103A600000D000D01F921F92CDB7DEB76B01F12CB2
:103A7000E12CC982DA82EB82FC822D833E834F8364
:103A80005887AE014F5F5F4F68E070E0B0DF289667
:103A90000FB6F894DEBF0FBECDBFDF91CF91FF9080
:103AA000EF90DF90CF9008958F929F92AF92BF9248
:103AB000CF92DF92EF92FF920F931F93CF93DF93FA
:103AC0007C01EB01CA01690170DD0097B1F42FEFB1
:103AD0003FEFA90161E070E0C701BCDFC1E08C2FBE
:103AE000DF91CF911F910F91FF90EF90DF90CF90DA
:103AF000BF90AF909F908F900895FC01819091901E
:103B0000A190B190BF01FCE1EF16F10479F4A50199
:103B10009401CE010E943211C82FA501940188237F
:103B200069F061E070E0C70195DFD9CF95018401AC
:103B3000AB01B601CE010E94350FEECF70E060E020
:103B4000C701DF91CF911F910F91FF90EF90DF9010
:103B5000CF90BF90AF909F908F907CCF0F931F938B
:103B6000CF93DF93EC018B014CDC9093090580939C
:103B700008050097A9F0A801BE01E2DBEC01892B42
:103B800049F0809108059091090586DC109209059D
:103B900010920805CE01DF91CF911F910F910895EA
:103BA000CCE9D3E0EECF809108059091090571CC66
:103BB0002F923F924F925F926F927F928F929F923D
:103BC000AF92BF92CF92DF92EF92FF920F931F932B
:103BD000CF93DF93CDB7DEB769970FB6F894DEBF0A
:103BE0000FBECDBF20910C052223F1F05B8B4A8BD9
:103BF0006E877F87888B998B9A01AB01BC01CE01C0
:103C000001967C0199D910E048E0242E312CE88EF1
:103C1000F98E89819A81181619060CF450C2112365
:103C200019F08A899B89A3DC69960FB6F894DEBFE8
:103C30000FBECDBFDF91CF911F910F91FF90EF90FD
:103C4000DF90CF90BF90AF909F908F907F906F90BC
:103C50005F904F903F902F900895EB81FC818C8571
:103C60009D8533E0880F991F3A95E1F7E80FF91F1A
:103C70008081918190930305809302052481358191
:103C8000428153815093010540930005468157813D
:103C90005093FF044093FE04820F931F9C01990FE1
:103CA000440B550B2C8B3D8B4E8B5F8B812C912CB9
:103CB00054018C899D89AE89BF8988169906AA0608
:103CC000BB0638F18C859D85880F991FED81FE819B
:103CD000E80FF91F4E855F85688979898081918118
:103CE0000E94FE12AC85BD851196BD87AC87898187
:103CF0009A81EC85FD85E817F9070CF4AECF2A8987
:103D00003B894E855F8568897989888D998D14D91D
:103D100080CF1F826091020570910305CB01072EB1
:103D2000000CAA0BBB0B84017501640134E0C30EC7
:103D3000D11CE11CF11CC816D906EA06FB0608F0E6
:103D4000B3C02091000530910105A4014C5F5F4F85
:103D5000240F351FF901C080D12CF12CE12C240156
:103D60003501F5E04F0E511C611C711C48165906B7
:103D70006A067B0608F0A3C020910005309101057A
:103D8000F8013596E20FF31F2081D22A2401350174
:103D900026E0420E511C611C711C481659066A0629
:103DA0007B0608F097C02091000530910105F801CD
:103DB0003696E20FF31F2081E22A2401350137E015
:103DC000430E511C611C711C481659066A067B067D
:103DD00008F08BC02091000530910105F80137965D
:103DE000E20FF31F208126013701722A7501640159
:103DF00048E0C40ED11CE11CF11C8C159D05AE05DC
:103E0000BF0508F41DC188169906AA06BB0608F06E
:103E100077C08091000590910105800F911F68E0A7
:103E200070E081DBE0910205F09103059F010F2E08
:103E3000000C440B550BD301C2018C0D9D1DAE1D12
:103E4000BF1D281739074A075B0708F478C0C21658
:103E5000D306E406F50608F05DC080910005909158
:103E600001059801285F3F4F820F931FB2015BDB72
:103E70008091020590910305AC01092E000C660BA0
:103E8000770BC416D506E606F70608F04DC0085FA6
:103E90001F4F8091000590910105800F911FA20195
:103EA00070E060E0FAD5A7C044E050E0461B570B35
:103EB000480D591D2091FE043091FF0449CFE5E0E3
:103EC000F0E0E61BF70BE00FF11F2091FE043091AC
:103ED000FF0458CFE6E0F0E0E61BF70BE00FF11F20
:103EE0002091FE043091FF0464CFE7E0F0E0E61B90
:103EF000F70BE00FF11F2091FE043091FF0470CF0B
:103F00009801261B370B8091FE049091FF04820FCD
:103F1000931F85CF91012E1B3F0B200F311F8091E6
:103F2000FE049091FF04A0CFD101A81BB90BCD01D5
:103F3000080F191F8091FE049091FF04AECFBF01BE
:103F400068507109601B710BC216D306E406F506B2
:103F500008F062C080910005909101059801285FEA
:103F60003F4F820F931FDFDA809102059091030586
:103F7000B101681B790B600F711F640D751D809175
:103F8000FE049091FF04CFDA809102059091030521
:103F9000AC0148505109FA01E01BF10BAC01092EAC
:103FA000000C660B770BC416D506E606F70608F07C
:103FB0003DC080910005909101059801285F3F4F19
:103FC000820F931FAF0170E060E067D58F8320916F
:103FD000020530910305F101E21BF30B9F01200F55
:103FE000311F240D351D50E040E0682F8091FE0404
:103FF0009091FF043ED58F8361E070E0CE0107967B
:1040000092DA182F38E0430E511C611C711C840C8D
:10401000951CA61CB71C4DCE91012E1B3F0B200FEB
:10402000311F8091FE049091FF049BCF9101281BCA
:10403000390B200F311F8091FE049091FF04C0CFF7
:1040400088169906AA06BB0668F5601B710B80915D
:10405000000590910105800F911F65DA809102059E
:1040600090910305B101681B790B600F711F640DFE
:10407000751D8091FE049091FF0455DA8091020530
:1040800090910305AC01092E000C660B770BC4164A
:10409000D506E606F70608F4FACE9101281B390B7F
:1040A000C90146CFC801861B970B2091FE043091B1
:1040B000FF04B201685F7F4F820F931FDECF1D8622
:1040C0001C8615CECF93DF93EC01AC0160E070E06D
:1040D000CB016EDDAE0161E070E080E090E0DF9149
:1040E000CF9166CDCF9380910805909109058CD929
:1040F000C82F81110BC060E070E0CB010E94F70D6A
:1041000061E070E080E090E00E94F70D8C2FCF918D
:1041100008950F931F9389019A01AB01BC0180910F
:10412000080590910905B9D91F910F9108954F92F3
:104130005F926F927F928F929F92AF92BF92CF9237
:10414000DF92EF92FF920F931F93CF93DF93CDB740
:10415000DEB763970FB6F894DEBF0FBECDBF6C011C
:104160008B015A0180910C05882309F43DC0809190
:104170000C05882309F442C080910B051A8219822C
:10418000882309F4C0C0F0E94F2EFFE55F2E6624B6
:104190006394712CF12CE12C97012C503B4FAE0114
:1041A0004F5F5F4F61E070E08091080590910905D5
:1041B0004BD9982E811169C089819A81E80EF91E28
:1041C000E114F10409F461C081E0481A5108610862
:1041D000710859F560911705709118058DEE90E002
:1041E0006BD91A82198251C06CE075E08091080584
:1041F0009091090553D9882309F4B9CF63960FB676
:10420000F894DEBF0FBECDBFDF91CF911F910F910C
:10421000FF90EF90DF90CF90BF90AF909F908F90E6
:104220007F906F905F904F900895AAE0EA16F10496
:1042300009F063C049E050E070E060E084EF94E092
:1042400030D46091170570911805882309F452C085
:104250008091FC0490E08617970719F6BC018EEE5A
:1042600090E02AD988E0E4EFF4E0DE0119960190AD
:104270000D928A95E1F780911705909118050196A6
:104280009927909318058093170581E029813A8139
:10429000121613060CF080E09110CAC2882309F4AC
:1042A000ADCF80910B05811104C019861A861B863B
:1042B0001C8689859A85AB85BC8580319105A105D1
:1042C000B10508F09BCFFC018827E659FE4D8F4FC2
:1042D0000C946637EA21A9231824FE20EE2221231C
:1042E000DA21E221BE21FD23EC23F923FE20FE206A
:1042F000FE20A9218FEE90E073CFBAE0EB16F10417
:104300000CF44ACFC2CFF12CE12CE8E06E2E712CD8
:1043100029E030E02C0F3D1F2E0D3F1DAE014F5FF9
:104320005F4FB3016E197F098091080590910905CF
:104330008BD8982E29813A81811109C0E20EF31E93
:10434000E114F10421F0E8E0EE16F1040CF381E051
:104350009FCFD6011696ED91FC9180819181A2812B
:10436000B38189839A83AB83BC83AE014F5F5F4F78
:1043700064E070E085E190E03ADB40CF8D859E857A
:1043800014D92FEF3FEFA90161E070E0009771F0C1
:10439000FC01C080D180E280F380A801C701B60192
:1043A0000E947712A701960170E060E08DE190E035
:1043B00051DB24CF4D855E859801B6018BE190E0FD
:1043C00073DB1CCF4D855E852FEF3FEFB6018CE18F
:1043D00090E0F6CFD6011496ED91FC910081118109
:1043E000F80182809380A080B18070E1472E512C2B
:1043F000612C712C49825A826B827C8288E090E029
:10440000A0E0B0E08D839E83AF83B8879E012F5ECE
:104410003F4FAE014F5F5F4F68E070E0809108054D
:10442000909109050E94061A8823D9F010E000E057
:10443000C80163960FB6F894DEBF0FBECDBFDF9103
:10444000CF911F910F91FF90EF90DF90CF90BF9091
:10445000AF909F908F907F906F905F904F900C9453
:10446000513889899A89089709F7D801ED90FC900D
:10447000B8E0EB0EF11CEE0CFF1CEE0CFF1CC701AC
:104480000E94B5378C01892B89F249825A826B824E
:104490007C82C7010F2C000CAA0BBB0B8D839E8363
:1044A000AF83B8879E012F5E3F4FAE014F5F5F4FD6
:1044B00068E070E080910805909109050E94061A55
:1044C0008111B6CF89899A89089709F0B1CFD601B1
:1044D0001296ED91FC914081518162817381D801E6
:1044E0004D935D936D937C931397448155816681C1
:1044F000778114964D935D936D937C9317974085C8
:1045000051856285738518964D935D936D937C9369
:104510001B9784859585A685B785F801848795873F
:10452000A687B787108A118A128A138A84E090E0DE
:10453000A0E0B0E0848B958BA68BB78B8091C802EE
:104540009091C902B0E0A0E0808F918FA28FB38FCD
:10455000C5010B2C000CAA0BBB0B848F958FA68F6B
:10456000B78FF401D801909690E080E08A159B0502
:104570005CF19E012F5E3F4FA801B70180910805B5
:10458000909109050E94061A811152CF89899A8952
:10459000E816F90609F04CCFA70170E060E0C80109
:1045A0007CD28B8B9E012F5E3F4FAE014D5E5F4FE5
:1045B00061E070E080910805909109050E94061A5B
:1045C00081E080930B0534CF4191519170E060E020
:1045D0004D935D936D937D930196C8CF8D859E8598
:1045E000AF85B8890097A105B10521F481E08093DA
:1045F0000A0504CE0E94D51A009781F481E090E06C
:10460000A0E0B0E089839A83AB83BC83AE014F5FA7
:104610005F4F64E070E082E190E0AECEBC01C60185
:104620000E94510D19821A821B821C82AE014F5FBB
:104630005F4F64E070E082E190E0D9D98823B1F265
:10464000DDCDD6011496ED91FC910190F081E02D25
:10465000E084F1848FEF8983E114F10409F472C0DE
:10466000D7016D907C90C280D38070E060E090E0D4
:1046700080E08615970594F083E190E00E945C1A33
:1046800010E000E08111BACD061517055CF161E07C
:1046900070E0CE0101960E94931AB0CD9C0143E0D8
:1046A000220F331F4A95E1F7F701A281B381A20FD0
:1046B000B31F1296ED91FC911397EE0FFF1FEC0DB7
:1046C000FD1D0190F081E02D16964D915C91E49FC7
:1046D0009001E59F300DF49F300D1124620F731F80
:1046E0000196C7CFD7011296ED91FC91C80123E046
:1046F000880F991F2A95E1F7E80FF91FA080B18074
:10470000A281B381AA0FBB1FAC0DBD1D2D913C91A1
:1047100086819781289F4001299F900C389F900C9B
:104720001124B401C5010E94931A582E940150E03F
:1047300040E06981C5019DD1898351105FCD0F5F34
:104740001F4FA2CF70E060E083E190E00E945C1A0E
:1047500055CD50E040E070E060E081E190E047D965
:1047600081114CCD60E070E0CB010E941C0F809164
:10477000EE04882329F0A80160E070E0CB0118DA8C
:10478000A80160E070E0CB010E94230E61E070E0C0
:1047900080E090E00E941C0F8091EE04882331F0AD
:1047A000A80161E070E080E090E002DAA80161E039
:1047B00070E080E090E00E94230E10920C051092B1
:1047C0000B0510921805109217058091080590911D
:1047D00009050E94541A12CD81E090E09093F004F4
:1047E0008093EF0450E040E070E060E086E190E00C
:1047F000C3CD81E0F501808301CD8D859E850E942A
:10480000D51A2FEF3FEFA90161E070E0009769F042
:10481000DC01CD90DD90ED90FC90C701B6010E94C7
:10482000D712A701960170E060E08EE190E0C0CD64
:10483000C8010E94B71AE2CCCF92DF92EF92FF92AA
:10484000CF93DF93EC01C12CD12C7601C701B601C7
:104850000E941C0FAE01C701B601AAD9AE01C70163
:10486000B6010E94230E80910405909105050097E2
:1048700031F00E9451381092050510920405CA9437
:10488000CD28CE28CF2879F580910B05F12C8823EF
:1048900051F050E040E070E060E084E190E0A7D8A3
:1048A000F82E10920B0580910C05882341F0109290
:1048B0000C0581E090E09093C9028093C80280913A
:1048C0000805909109050E94571A8091080590915A
:1048D00009050E944C1A8F2DDF91CF91FF90EF9028
:1048E000DF90CF900895C12CD12C7601C394AECF28
:1048F000CF93DF93EC01AC0160E070E0CB010E944C
:104900000C17AE0161E070E080E090E0DF91CF91A4
:104910000C940C1760E070E0CB010E94791761E005
:1049200070E080E090E00C947917CF92DF92EF92E4
:10493000FF920F931F93CF93DF93EC016A017B01EA
:1049400000E010E098010E94271301E010E020E051
:1049500030E0B701A601CE010E942713DF91CF916D
:104960001F910F91FF90EF90DF90CF90089568EE28
:1049700073E080E090E00E94CC3190E080E0089508
:1049800026E040E855E260E070E08AE896E00E94A8
:10499000FD338AE896E00E943333892B29F08AE8B8
:1049A00096E00E944D33F5CF90E080E00895CF92DD
:1049B000DF92EF92FF920F931F93CF93DF936B01E0
:1049C0007A01E901198218828AE896E00E9433335D
:1049D000892B81F18601CC24C39485E6D82E809161
:1049E0001905811112C08AE896E00E944D33853680
:1049F0009105A9F7C0921905F801D1928F0188811C
:104A00009981019699838883EACF888199818E154F
:104A10009F0580F48AE896E00E944D338F3F980707
:104A2000A1F3F80181938F0188819981019699837F
:104A30008883EBCF90E080E0DF91CF911F910F91C1
:104A4000FF90EF90DF90CF9008950F931F93CF9337
:104A5000DF93EA0189018AE896E00E948D36F80129
:104A6000D183C08390E080E0DF91CF911F910F91BF
:104A70000895DC01A40FB51F420F531F9D01281B91
:104A8000390B2417350710F0862F0895ED91E6278E
:104A9000F0E0EE5EFE4F6491F1CF9A01AB016FEF53
:104AA000E8CFCF93FC01E60FF71FE40FF51FC0819D
:104AB000F4DF91E0C81390E0892FCF910895CF9350
:104AC000DF9300D0CDB7DEB780911D0591E0980F40
:104AD00090931D05882371F021E030E0309321058B
:104AE0002093200580931D050F900F900F90DF916C
:104AF000CF910895CE0101960E94FD0278940E9404
:104B0000FC03F89480911D05815080931D058A81D6
:104B1000811138C08B81811141C080911E058111A6
:104B2000E3CF80911B05882389F081E080931E05E7
:104B300078940E94ED04F89480911B058150809335
:104B40001B0580911E05815080931E0580911F05D5
:104B50008111CACF80911C05882389F081E0809360
:104B60001F0578940E94ED05F89480911C058150F2
:104B700080931C0580911F05815080931F050E9422
:104B8000F618B2CF80911B0591E0980F90931B050A
:104B9000882309F4BFCF21E030E00BC080911C05D1
:104BA00091E0980F90931C0522E030E0882309F4EF
:104BB000B4CF41E050E05093210540932005265E9C
:104BC0003A4FF9018083A9CFDF92EF92FF920F93C2
:104BD0001F93CF93DF931F92CDB7DEB710924E098C
:104BE00010924D090E9402320E9449190091DF0281
:104BF0001091E002F8011182108270E060E090E014
:104C000080E00E94FE180E940D08F8947894C80174
:104C1000CC960E94FD1883E090E00E94FA18198259
:104C2000AE014F5F5F4F63E070E0F80182819381D6
:104C30000E94AA188981882329F081E0F801E05CAC
:104C4000FF4F80830E940319F8940E947F19F80196
:104C500080819181892B29F481E0E05CFF4F908174
:104C6000911180E080934D09789478947801F0E474
:104C7000EF0EF11CDD24D39480914D09811112C0F7
:104C80000E94500B83E090E00E94FB18F89490E0A3
:104C900080E00F90DF91CF911F910F91FF90EF90E7
:104CA000DF9008951982AE014F5F5F4F63E070E0BF
:104CB000F801828193810E94E2188981882311F092
:104CC000F701D082F80180819181892B91F481E0F4
:104CD000F7019081911101C080E080934E0990917D
:104CE0004E0981E0911180E080934D090E949E1948
:104CF000C3CF81E0F2CF5058BB27AA270ED044C2C1
:104D000035D230F03AD220F031F49F3F11F41EF446
:104D100005C20EF4E095E7FBD2C1E92F46D280F33D
:104D2000BA17620773078407950718F071F49EF5A8
:104D300075C20EF4E0950B2EBA2FA02D0B01B90110
:104D400090010C01CA01A0011124FF27591B99F001
:104D5000593F50F4503E68F11A16F040A22F232F0D
:104D6000342F4427585FF3CF469537952795A7955D
:104D7000F0405395C9F77EF41F16BA0B620B730B04
:104D8000840BBAF09150A1F0FF0FBB1F661F771F75
:104D9000881FC2F70EC0BA0F621F731F841F48F42A
:104DA000879577956795B795F7959E3F08F0B3CFB0
:104DB0009395880F08F09927EE0F9795879508959A
:104DC000D5D158F080E891E009F49EEFD6D128F0D3
:104DD00040E851E059F45EEF09C0A0C11FC2E92FBD
:104DE000E078E3D168F3092E052AC1F326173707C7
:104DF0004807590738F00E2E07F8E02569F0E0253E
:104E0000E0640AC0EF6307F8009407FADB01B90118
:104E10009D01DC01CA01AD01EF9358D0B5D10AD094
:104E20005F91552331F02BED3FE049E450FD49EC13
:104E300063CF0895DF93DD27B92FBF7740E85FE3A5
:104E40001616170648075B0710F4D92FF2D19F9367
:104E50008F937F936F9357D2E4EEF0E062D194D1B9
:104E60002F913F914F915F91F7D1DD2349F09058F9
:104E7000A2EA2AED3FE049EC5FE3D0785D274DDF01
:104E8000DF9182C1B4D180F09F3740F491110EF4CC
:104E9000C6C160E070E080E89FE3089526F01B162D
:104EA000611D711D811D11C12BC1E5D008F481E088
:104EB000089563D140F05AD130F021F45F3F19F0EA
:104EC000FEC05111ACC12AC170D198F39923C9F326
:104ED0005523B1F3951B550BBB27AA276217730700
:104EE000840738F09F5F5F4F220F331F441FAA1FB4
:104EF000A9F333D00E2E3AF0E0E830D09150504074
:104F0000E695001CCAF729D0FE2F27D0660F771F21
:104F1000881FBB1F261737074807AB07B0E809F003
:104F2000BB0B802DBF01FF2793585F4F2AF09E3F98
:104F3000510568F0C4C073C15F3FECF3983EDCF3E9
:104F4000869577956795B795F7959F5FC9F7880F11
:104F5000911D9695879597F90895E1E0660F771F63
:104F6000881FBB1F621773078407BA0720F0621BF4
:104F7000730B840BBA0BEE1F88F7E09508951DD1D3
:104F800088F09F5790F0B92F9927B751A0F0D1F032
:104F9000660F771F881F991F1AF0BA95C9F712C0BC
:104FA000B13081F03BD1B1E0089538C1672F782F3F
:104FB0008827B85F39F0B93FCCF386957795679528
:104FC000B395D9F73EF490958095709561957F4F94
:104FD0008F4F9F4F0895E89409C097FB3EF490953A
:104FE0008095709561957F4F8F4F9F4F9923A9F0C2
:104FF000F92F96E9BB279395F69587957795679551
:10500000B795F111F8CFFAF4BB0F11F460FF1BC094
:105010006F5F7F4F8F4F9F4F16C0882311F096E927
:1050200011C0772321F09EE8872F762F05C06623D5
:1050300071F096E8862F70E060E02AF09A95660F8E
:10504000771F881FDAF7880F9695879597F9089547
:10505000CED080F09F3740F491110EF0E0C060E0B8
:1050600070E080E89FEB089526F41B16611D711D0A
:10507000811D2BC045C0990F0008550FAA0BE0E811
:10508000FEEF16161706E807F907C0F0121613060A
:10509000E407F50798F0621B730B840B950B39F44A
:1050A0000A2661F0232B242B252B21F408950A26B0
:1050B00009F4A140A6958FEF811D811D089597F9F0
:1050C0009F6780E870E060E00895882371F477239B
:1050D00021F09850872B762F07C0662311F499276B
:1050E0000DC09051862B70E060E02AF09A95660F13
:1050F000771F881FDAF7880F9695879597F9089597
:105100009F3F31F0915020F4879577956795B7953B
:10511000880F911D9695879597F908959FEF80ECDC
:105120000895DF93CF931F930F93FF92EF92DF9237
:105130007B018C01689405C0DA2EEF018DD0FE0151
:10514000E894A5912591359145915591AEF3EF01E4
:10515000E4DDFE019701A801DA9479F7DF90EF9082
:10516000FF900F911F91CF91DF91089500240A9431
:105170001616170618060906089500240A94121632
:105180001306140605060895092E0394000C11F465
:10519000882352F0BB0F40F4BF2B11F460FF04C012
:1051A0006F5F7F4F8F4F9F4F089557FD9058440F6B
:1051B000551F59F05F3F71F04795880F97FB991F76
:1051C00061F09F3F79F08795089512161306140633
:1051D000551FF2CF4695F1DF08C0161617061806C0
:1051E000991FF1CF86957105610508940895E5DF53
:1051F000A0F0BEE7B91788F4BB279F3860F41616F5
:10520000B11D672F782F8827985FF7CF8695779500
:105210006795B11D93959639C8F30895E894BB2717
:1052200066277727CB0197F9089525DF08F48FEFDC
:1052300008959B01AC0160E070E080E89FE366C0E8
:105240000BD0A2CF93DF28F098DF18F0952309F058
:1052500036CF64CF1124E3CFA8DFA0F3959FD1F31D
:10526000950F50E0551F629FF001729FBB27F00D14
:10527000B11D639FAA27F00DB11DAA1F649F662769
:10528000B00DA11D661F829F2227B00DA11D621FB8
:10529000739FB00DA11D621F839FA00D611D221F72
:1052A000749F3327A00D611D231F849F600D211D56
:1052B000822F762F6A2F11249F5750408AF0E1F0F9
:1052C00088234AF0EE0FFF1FBB1F661F771F881F42
:1052D00091505040A9F79E3F510570F0F0CE9FCFFE
:1052E0005F3FECF3983EDCF3869577956795B7952D
:1052F000F795E7959F5FC1F7FE2B880F911D969557
:10530000879597F908959B01AC019ACFDDDD3CCFDD
:1053100090E080E008958091560590915705891B93
:10532000990B089590915705809156052FEF3FEF07
:10533000981748F4E92FF0E0E85AFA4F208130E05E
:105340009F5F90935705C9010895E091570580919B
:105350005605E81730F4F0E0E85AFA4F808190E003
:1053600008958FEF9FEF08950895CF93DF93EC0199
:10537000E0912E05F0912F053097F1F090915705AF
:10538000809156059817C0F090E0292F30E026173D
:10539000370754F4DE01A20FB31F4C91285A3A4F3D
:1053A000D9014C939F5FF1CF10925705609356053A
:1053B000CB01DF91CF911994DF91CF910895E091C6
:1053C0003005F0913105309729F010923405109294
:1053D000330519940895CF93DF931F92CDB7DEB7AD
:1053E0006983209132052223F9F020913305203280
:1053F00058F021E030E0FC013383228390E080E02C
:105400000F90DF91CF91089580913405E82FF0E05F
:10541000EB5CFA4F998190838F5F80933405809382
:10542000330581E090E0ECCF61E0CE01019609D137
:10543000F8CFCF92DF92EF92FF920F931F93CF930B
:10544000DF937C01CB018A0120913205222389F070
:10545000EB016B01C40ED51ECC15DD0561F0699121
:10546000D701ED91FC910190F081E02DC7011995D4
:10547000F3CF642FE6D0C801DF91CF911F910F9138
:10548000FF90EF90DF90CF90089510925705109203
:105490005605109234051092330597D08FED99E29E
:1054A000FCD085EB99E2F4C0CB01BA01B7C081E032
:1054B00080933205609355051092340510923305A0
:1054C00008950F93062F21E04091330565E375E0C1
:1054D00080915505DED1109234051092330510925B
:1054E00032050F9108954F925F926F927F92AF9223
:1054F000BF92CF92EF92FF920F931F93CF93DF93C0
:105500005C01F62ED42F28013901EE2009F1CFDFFE
:10551000CE2DC43008F0C3E0C150B8F028E0C29FDF
:10552000C0011124A301920104C0569547953795F7
:1055300027958A95D2F7B901D501ED91FC9101909B
:10554000F081E02DC5011995E7CF60E0C501B9DF15
:105550004D2FD13208F040E22C2D68E575E08F2DFB
:10556000BBD01092570580935605DF91CF911F91C4
:105570000F91FF90EF90CF90BF90AF907F906F9082
:105580005F904F900895CF92EF920F931F93C22E8A
:10559000E12C00E010E09801A6DF1F910F91EF9041
:1055A000CF90089521E0EFCFE2E2F5E0138212827E
:1055B00088EE93E0A0E0B0E084839583A683B78370
:1055C0008BED93E09183808308951092EB0581E049
:1055D0008093E9051092E80561E084E10E940633BA
:1055E00061E085E10E940633E9EBF0E080818E7F87
:1055F000808380818D7F808388E48093B80085E4F8
:105600008093BC000895ECEBF0E080818A7B80837E
:1056100060E084E1FBD760E085E1F8C79B01AC0165
:1056200060E074E284EF90E00E9428372051310955
:105630004109510956954795379527952093B8000C
:10564000089520919A05260F3327331F2132310503
:10565000ECF42091EB05FC0190E080E0243069F04F
:1056600082E00895A0919A052191AC0144565A4FC9
:10567000A40FB52FB11D2C930196861798F3809136
:105680009A05680F60939A0580E0089581E0089577
:105690009093DF058093DE0508959093E105809354
:1056A000E005089585EC8093BC001092EB05089509
:1056B000CF93DF9391E09093E305882351F0C0915D
:1056C000B800D091BA009FDF80DFD093BA00C093BA
:1056D000B800DF91CF9108954F925F926F927F92C1
:1056E0008F929F92AF92BF92CF92DF92EF92FF92F2
:1056F0000F931F93CF93DF93D82F162F072FC42F0D
:10570000B22E413208F09DC022D66B017C018091FF
:10571000EB05811173C081E08093EB05B092E90540
:105720009FEF909378051092BD059C0F9093BC0558
:105730008093EA058091EA05DD0FD82BD093EA0526
:105740008091E805813009F07EC01092E805FFD510
:105750006B017C018091EA058093BB008091E40598
:105760009091E505A091E605B091E705892B8A2B7C
:105770008B2B99F0ECD58090E4059090E505A090F6
:10578000E605B090E7056C197D098E099F0986161C
:105790009706A806B90608F451C08091BC0083FDA5
:1057A000D9CF85EC8093BC00D2D56B017C01809170
:1057B000EB05813009F449C08091BD058C1710F4C8
:1057C000C091BD05AEEBB5E0912FE12FF02F8E2FEC
:1057D000891B8C1708F45AC08C2FDF91CF911F9131
:1057E0000F91FF90EF90DF90CF90BF90AF909F9080
:1057F0008F907F906F905F904F9008958091E40517
:105800009091E505A091E605B091E705892B8A2BDB
:105810008B2B09F47CCF9BD54090E4055090E50597
:105820006090E6057090E7056C197D098E099F0967
:10583000461657066806790608F069CF8091E2059A
:1058400037DFC0E0C9CF85EEADCF8091E405909100
:10585000E505A091E605B091E705892B8A2B8B2BF6
:1058600009F4A5CF74D58090E4059090E505A0904B
:10587000E605B090E7056C197D098E099F0986162B
:105880009706A806B90608F092CFD8CF8D918193DC
:105890009ECF4F925F926F927F928F929F92AF9224
:1058A000BF92EF92FF920F931F93CF93DF934132FA
:1058B00008F0D2C0F22ED42FE72E162FC82F47D5CE
:1058C0004B015C018091EB0581116DC082E08093FA
:1058D000EB050093E9058FEF809378051092BD05E5
:1058E000D093BC05912FAEEBB5E0E12FFE2D8E2FAE
:1058F000891B8D1708F48AC01092EA058091EA0589
:10590000CC0FC82BC093EA058091E805813009F0DF
:1059100080C01092E8051BD54B015C018091EA051F
:105920008093BB008091E4059091E505A091E60588
:10593000B091E705892B8A2B8B2B99F008D5009124
:10594000E4051091E5052091E6053091E705681919
:1059500079098A099B09061717072807390708F4E8
:1059600042C08091BC0083FDD9CF85EC8093BC0000
:10597000EED44B015C01FF2029F08091EB058230D1
:1059800009F449C0809178058F3F09F467C0809180
:105990007805803209F464C080917805803309F479
:1059A00061C084E024C08091E4059091E505A09158
:1059B000E605B091E705892B8A2B8B2B09F482CF62
:1059C000C6D44090E4055090E5056090E6057090DF
:1059D000E705681979098A099B094616570668067A
:1059E000790608F06FCF8091E20562DE85E0DF91F5
:1059F000CF911F910F91FF90EF90BF90AF909F902C
:105A00008F907F906F905F904F90089581918D93CC
:105A10006ECF85EEABCF8091E4059091E505A09126
:105A2000E605B091E705892B8A2B8B2B09F4A3CFD0
:105A30008ED40091E4051091E5052091E6053091A2
:105A4000E705681979098A099B09061717072807C6
:105A5000390708F090CFC7CF81E0C9CF80E0C7CF2A
:105A600082E0C5CF83E0C3CF85ED8093BC008091F9
:105A7000E4059091E505A091E605B091E70507964C
:105A8000A11DB11D23E0B695A795979587952A95F9
:105A9000D1F72091BC0024FD03C01092EB050895BE
:105AA0004091E4055091E5056091E6057091E705A8
:105AB000452B462B472B69F30097A105B10541F013
:105AC00025E32A95F1F700000197A109B109E1CF7B
:105AD0008091E205EDCD1F920F920FB60F92112427
