:1000000083C10000B2C10000B0C10000AEC1000059
:10001000ACC10000AAC10000A8C10000A6C1000038
:10002000A4C10000A2C10000A0C100009EC1000048
:100030009CC100009AC1000098C1000096C1000058
:1000400094C1000092C1000090C100008EC1000068
:100050008CC100008AC1000088C100000C94222BD2
:1000600084C100000C94F22D0C94282E7EC1000057
:100070007CC100007AC1000078C1000076C1000098
:1000800074C1000072C1000070C100006EC10000A8
:100090000C947E2E0C94B42E68C100000C94012A9E
:1000A00064C1000062C1000060C100005EC10000C8
:1000B0005CC100005AC1000058C1000056C10000D8
:1000C00054C1000052C100000C94F1160C940A2F88
:1000D0000C94402F4AC100000C94962F0C94CC2F06
:1000E00044C10000084AD73B3BCE016E84BCBFFD33
:1000F000C12F3D6C74319ABD56833DDA3D00C77FF8
:1001000011BED9E4BB4C3E916BAAAABE0000008090
:100110003F00001D3A2774694E53E8F5D2CF9C8109
:10012000A6BBCDD0F7EAB9A4839E25381F02514C57
:100130006B76879ABDA0F3EEC9D46F7255481B0643
:10014000213C4A57706D3E230419A2BF9885D6CB37
:10015000ECF1130E2934677A5D40FBE6C1DC8F9227
:10016000B5A8DEC3E4F9AAB7908D362B0C11425F17
:1001700078659489AEB3E0FDDAC77C61465B08150B
:10018000322F5944637E2D30170AB1AC8B96C5D8F7
:10019000FFE2263B1C01524F6875CED3F4E9BAA7A3
:1001A000809DEBF6D1CC9F82A5B8031E3924776AD7
:1001B0004D50A1BC9B86D5C8EFF24954736E3D20CB
:1001C000071A6C71564B1805223F8499BEA3F0EDB7
:1001D000CAD735280F12415C7B66DDC0E7FAA9B4A7
:1001E000938EF8E5C2DF8C91B6AB100D2A37647997
:1001F0005E43B2AF8895C6DBFCE15A47607D2E3383
:1002000014097F6245580B16312C978AADB0E3FE76
:10021000D9C400000A0B02090C0D0E0807030401E3
:1002200000000000000000000000000000000000CE
:10023000000000000000000000000000000012119B
:10024000100000000000000000000000000000009E
:10025000000000000000000001021020200808102B
:100260002040102040800201020108040201010226
:1002700004081020408080402010080402018004FF
:10028000020180402010080402010804020101025A
:100290000408102040800102040810204080050559
:1002A0000505070508080808020202020A0A0808EC
:1002B000040404040101010101010101030303031A
:1002C00003030303040707070C0C0C0C0C0C0C0CA9
:1002D0000202020206060606060606060B0B0B0BBA
:1002E0000B0B0B0B00002200250028002B002E001A
:1002F0003100340002010000050108010B016C27E8
:10030000512EDD2E692FF52F11241FBECFEFD1E224
:10031000DEBFCDBF00E00CBF13E0A0E0B2E0E6EF2F
:10032000F3E600E00BBF02C007900D92A83BB107B7
:10033000D9F728E0A8EBB3E001C01D92A135B207C0
:10034000E1F711E0C4E8D1E000E006C0219701091F
:10035000802FFE010E948530CF37D10780E008074B
:10036000A9F70E941B230C94F9314ACECF92DF9259
:10037000EF92FF926B017C01C114D104E104F104FE
:1003800069F480910602811109C080910802909160
:1003900009020E94DD2681E080930602C601880FD3
:1003A000991F880F991F8A5F9D4FFF90EF90DF90F4
:1003B000CF900895009781F0FC012181211104C0A4
:1003C00040EA56E861E070E0FC01828193810E947E
:1003D000EC2690E080E0089588E090E008954F9248
:1003E0005F926F927F928F929F92AF92BF92CF92C5
:1003F000DF92EF92FF920F931F93CF93DF930097BB
:10040000C9F1280139017A01EC01402F8A819B81D1
:100410000E946A278A819B81DC01ED91FC91008416
:10042000F185E02D1995892B01F16701812C912C23
:1004300054018A819B81DC01ED91FC910084F1855E
:10044000E02D1995892B91F184149504A604B70425
:1004500069F18A819B81DC01ED91FC910284F38535
:10046000E02D19958F3F9807C1F484E0F7011192B0
:100470008A95E9F788E090E0DF91CF911F910F9185
:10048000FF90EF90DF90CF90BF90AF909F908F90B4
:100490007F906F905F904F900895FFEF8F1A9F0AA3
:1004A000AF0ABF0AD6018D936D01C3CF90E080E003
:1004B000E3CF8F929F92AF92BF92CF92DF92EF9253
:1004C0000F931F93CF93DF930097F1F06A01EC0134
:1004D0008A819B810E94EF268A819B81DC01ED91BC
:1004E000FC910280F381E02DA801B60119958A8163
:1004F0009B8160E0E11001C061E00E94F926882341
:1005000089F08250823088F088E090E0DF91CF91CE
:100510001F910F91EF90DF90CF90BF90AF909F9081
:100520008F90089590E080E0F1CF84E090E0EECFEE
:1005300008958130910579F01CF4892B39F00895E4
:100540008230910561F0039771F0089526E081E90A
:1005500095E00C94922D26E08EE296E0FACF26E00C
:100560008BEC96E0F6CF26E088E697E0F2CF8F920C
:100570009F92AF92BF92CF92DF92EF92FF926B0168
:100580007C010E946C2B4B015C010E946C2B681952
:1005900079098A099B09C616D706E806F906A8F75D
:1005A000FF90EF90DF90CF90BF90AF909F908F9093
:1005B00008958F929F92AF92BF92CF92DF92EF9267
:1005C000FF92CF93DF936B017C0149015A01DFD683
:1005D000882399F060913F0870914008809141080C
:1005E00090914208DF91CF91FF90EF90DF90CF90F4
:1005F000BF90AF909F908F900895C501B401C7D66A
:100600008111E8CFC701B6017DD68823D9F1C50194
:10061000B40178D68823B1F120E030E0A901C70108
:10062000B6010E94AD25CFEFDFEF181614F4C1E03C
:10063000D0E020E030E0A901C501B4010E94AD2561
:100640006FEF7FEF181614F461E070E0072E000CD6
:10065000880B990B0E94D8246B017C01BE01DD0F31
:10066000880B990B0E94D824A7019601DF91CF91A6
:10067000FF90EF90DF90CF90BF90AF909F908F90C2
:100680000C94192420E030E0A901C501B4010E94B6
:100690006C24811116C020E030E0A901C701B60129
:1006A0000E94AD25181694F020E030E0A901C701A2
:1006B000B6010E946C2487FD0EC060E070E0CB01A3
:1006C00091CFA5019401C701B601D0CF6BED7FE0BA
:1006D00089EC9FE387CF6BED7FE089EC9FEB82CFC6
:1006E0004F925F926F927F928F929F92AF92BF9242
:1006F000CF92DF92EF92FF920F931F93CF93DF93EE
:10070000CDB7DEB761970FB6F894DEBF0FBECDBF91
:10071000C0908202D0908302E0908402F090850223
:10072000A701960160910B0870910C0880910D084B
:1007300090910E080E946C24882341F0C0920B080F
:10074000D0920C08E0920D08F0920E0810921F084B
:100750008BE38D87C12CEE24E39401E010E020E0D0
:1007600030E0AE01435F5F4F68E670E080911408AF
:10077000909115089EDE882389F01F8218861986BD
:100780001A861B861C8690912008911182C0909138
:100790001F0891111DC080931F081AC0CC24C39458
:1007A000E12C06E010E020E030E0AE014F5F5F4F4B
:1007B00068E670E0809114089091150810DE86E0DC
:1007C000FE013196DE01179601900D928A95E1F7B0
:1007D00080912108812C912C540124013501811133
:1007E00032C06F817885762767277627072E000C21
:1007F000880B990B0E94D8242AE038EE4CE151E492
:100800000E94B82520E030E040E858E30E94B82577
:100810004B015C016B857C85762767277627072E41
:10082000000C880B990B0E94D8242AE038EE4CE18A
:1008300051E40E94B82520E030E040E858E30E94EF
:10084000B8252B013C0183E48D87C12CEE24E39471
:1008500001E010E020E030E0AE01435F5F4F68E66A
:1008600070E0809114089091150823DE8823A9F088
:100870001F82188619861A861B861C86909120086E
:10088000911188C190911F08911121C080931F0878
:100890001EC081E0809321089BCFCC24C394E12C1F
:1008A00006E010E020E030E0AE014F5F5F4F68E609
:1008B00070E0809114089091150891DD86E0FE01AA
:1008C0003196DE01179601900D928A95E1F780919D
:1008D0002108811163C16F81788576276727762784
:1008E000072E000C880B990B0E94D82420E030E0E2
:1008F0004AEF5BE30E94B825C0907E02D0907F0251
:10090000E0908002F090810220918602309187026F
:1009100040918802509189020E94A52320918A0269
:1009200030918B0240918C0250918D020E94B8252B
:1009300020912208309123084091240850912508E5
:100940000E94A623A70196010E94B8256E877F8783
:10095000888B998BA3019201C501B4012ADE4B015A
:100960005C01A701960160E070E080E89FE30E94CF
:10097000A523A50194010E94B8252E853F854889AD
:1009800059890E94A62360932208709323088093BC
:10099000240890932508209192023091930240916F
:1009A0009402509195020E94A623209196023091C4
:1009B000970240919802509199020E94B8256B01CC
:1009C0007C01C0922B08D0922C08E0922D08F09266
:1009D0002E0880909A0290909B02A0909C02B0906A
:1009E0009D02A50194010E94AD2518160CF0DAC0F5
:1009F00080922F0890923008A0923108B09232086D
:100A000081E090E00E9498164091F2035091F30328
:100A10006091F4037091F50390E080E00E949416D9
:100A20008090020490900304A0900404B090050408
:100A300020E030E040E85FEBC501B4010E946C2487
:100A4000882331F1C090F203D090F303E090F403D7
:100A5000F090F503A7019601C501B4010E94A523FA
:100A60004B015C0120E030E040E054E3C701B601F7
:100A70000E94B8259B01AC01C501B4010E94AD25BF
:100A8000181634F086EA92E09093DD038093DC033D
:100A900080910604882331F086EA92E09093DD038A
:100AA0008093DC03C090F603D090F703E090F80346
:100AB000F090F9038FEFC81AD80AE80AF80AC09232
:100AC000F603D092F703E092F803F092F903C11411
:100AD000D104E104F10499F48091FA039091FB03AD
:100AE000A091FC03B091FD030196A11DB11D80935F
:100AF000FA039093FB03A093FC03B093FD03809053
:100B0000FE039090FF03A0900004B0900104609158
:100B1000FA037091FB038091FC039091FD030E9406
:100B2000D624A50194010E94B82520E030E040E8D9
:100B30005FE40E94B8252B013C01C701B6010E9469
:100B4000D624A50194010E94B8259B01AC01C301E4
:100B5000B2010E94A6236093F2037093F303809383
:100B6000F4039093F50361960FB6F894DEBF0FBEC1
:100B7000CDBFDF91CF911F910F91FF90EF90DF904C
:100B8000CF90BF90AF909F908F907F906F905F902D
:100B90004F90089581E08093210899CE60E070E045
:100BA000CB01AACE80909E0290909F02A090A002BE
:100BB000B090A102A5019401C701B6010E946C2466
:100BC00087FD16CFC0922F08D0923008E0923108EE
:100BD000F092320815CFCF92EF92FF920F931F93AE
:100BE000CF93DF9300D01F921F92CDB7DEB784E082
:100BF00090E051D3ECEDF3E08BE2DF011D928A959A
:100C0000E9F780E090E0A0E8BFEB809302049093C6
:100C10000304A0930404B09305048DEC9CECACE4B5
:100C2000BDE38093FE039093FF03A0930004B09371
:100C300001048DE692EFA7EBB0E48093E00390937C
:100C4000E103A093E203B093E3038BED9DEFACEDE2
:100C5000B5E88093E4039093E503A093E603B09393
:100C6000E70387ED9EEBACEBB1EF8093E803909345
:100C7000E903A093EA03B093EB038CE29CE8A3EFB3
:100C8000B1E08093EC039093ED03A093EE03B09357
:100C9000EF0380ED93E09093DF038093DE038CEC11
:100CA00093E09093D1038093D0038AEB92E09093EA
:100CB000CD038093CC039093CF038093CE0380EF3A
:100CC00093E09093D5038093D40380EE93E09093C8
:100CD000D3038093D20382EF93E09093D703809362
:100CE000D603EBE2F8E088E0DF011D928A95E9F790
:100CF000E5E0F8E086E2DF011D928A95E9F7E2EC93
:100D0000F3E08AE0DF011D928A95E9F788EB93E032
:100D10009093F1038093F0038FE090E09093B903F8
:100D20008093B80380E692E09093BB038093BA036C
:100D300082E492E09093BD038093BC0386E192E04D
:100D40009093BF038093BE038AE092E09093C10327
:100D50008093C00380E090E5A3ECB8E480931A0888
:100D600090931B08A0931C08B0931D08FF24F394D4
:100D7000F0922A088091820290918302A0918402CD
:100D8000B091850280930B0890930C08A0930D08F6
:100D9000B0930E0881E090E0A0E0B0E080930608F8
:100DA00090930708A0930808B0930908F0922008D0
:100DB00050E040E060E070E0CB01D8DA9093150895
:100DC0008093140840EA56E861E070E0409316080A
:100DD000509317086093180870931908EBDA80E8AD
:100DE0008A838BE6898389819A819C838B83C12C3A
:100DF000E12C02E010E020E030E0AE014D5F5F4FFB
:100E000068E670E0809114089091150852DB882301
:100E100039F090912008992309F479C1F0922108C2
:100E200061E070E080E090E0A2DB1A8289819A8123
:100E30009C838B83C12CE12C02E010E020E030E0A9
:100E4000AE014D5F5F4F68E670E0809114089091AD
:100E500015082FDB882341F090912008992309F48D
:100E60005DC181E08093210864E670E080E090E05D
:100E70007EDB85E78D83C12CEE24E39401E010E056
:100E800020E030E0AE014B5F5F4F68E670E080919C
:100E90001408909115080DDB811177C1CC24C394FF
:100EA000E12C01E010E020E030E0AE014B5F5F4F4D
:100EB00068E670E0809114089091150890DA9D81A1
:100EC00081E0983609F080E080931E08983609F09A
:100ED000F9C089E1898389819A819C838B83C12CA4
:100EE000E12C02E010E020E030E0AE014D5F5F4F0A
:100EF00068E670E08091140890911508DADA88238A
:100F000041F090912008992309F414C181E0809365
:100F100021088CE18D83C12CEE24E39401E010E0E4
:100F200020E030E0AE014B5F5F4F68E670E08091FB
:100F3000140890911508BDDA811132C1CC24C394F4
:100F4000E12C01E010E020E030E0AE014B5F5F4FAC
:100F500068E670E0809114089091150840DA9D8150
:100F6000977E9A838CE1898389819A819C838B8384
:100F7000C12CE12C02E010E020E030E0AE014D5F3A
:100F80005F4F68E670E0809114089091150891DA3F
:100F9000882341F090912008992309F4D7C081E07B
:100FA000809321088BE18D83C12CEE24E39401E032
:100FB00010E020E030E0AE014B5F5F4F68E670E08C
:100FC000809114089091150874DA8111F4C0CC2432
:100FD000C394E12C01E010E020E030E0AE014B5F73
:100FE0005F4F68E670E08091140890911508F7D97A
:100FF0009D81977E9A838BE1898389819A819C83E5
:101000008B83C12CE12C02E010E020E030E0AE0147
:101010004D5F5F4F68E670E080911408909115086D
:1010200048DA882341F090912008992309F49AC066
:1010300081E0809321088AE18D83C12CEE24E39422
:1010400001E010E020E030E0AE014B5F5F4F68E66A
:1010500070E080911408909115082BDA8111B6C0C8
:10106000CC24C394E12C01E010E020E030E0AE019C
:101070004B5F5F4F68E670E080911408909115080F
:10108000AED99D81987F95609A838AE18983898111
:101090009A819C838B83C12CE12C02E010E020E03C
:1010A00030E0AE014D5F5F4F68E670E0809114085C
:1010B00090911508FED9882341F09091200899233A
:1010C00009F45CC081E0809321081092200881E03F
:1010D00080930A0880918E0290918F02A0919002D5
:1010E000B09191028093220890932308A093240842
:1010F000B09325080F900F900F900F900F90DF91F5
:10110000CF911F910F91FF90EF90CF900895909104
:101110001F08911185CE80931F0882CE90911F08E1
:101120009111A2CE80931F089FCE81E08093210869
:1011300090E0C6CE90911F089111EBCE80931F08CE
:10114000E8CE81E08093210890E00ACF90911F08BB
:10115000911128CF80931F0825CF81E0809321082B
:1011600090E047CF90911F08911165CF80931F08A1
:1011700062CF81E08093210890E084CF90911F0896
:101180009111A3CF80931F08A0CF909120089111B7
:10119000CCCF90911F089111CBCF80931F0890CE98
:1011A000909120089111CDCF90911F089111CCCF33
:1011B00080931F08D5CE909120089111CECF9091A9
:1011C0001F089111CDCF80931F0813CF9091200855
:1011D0009111CFCF90911F089111CECF80931F080E
:1011E00051CF80910508811118C081E080930508D6
:1011F0008091060890910708A0910808B09109080D
:101200000197A105B10549F480910A08882329F0C6
:1012100080911408909115088BD980910F08811145
:101220001BC081E080930F088091100890911108F5
:10123000A0911208B09113080197A105B10561F4BE
:1012400082E090E0A0E0B0E0809310089093110855
:10125000A0931208B0931308089560E070E080E84E
:101260009FE7089560E070E080E89FE7089560E000
:1012700070E080E89FEF089560E070E080E89FEF05
:10128000089560E070E080EC9FEF089560E070E00A
:1012900080EC9FEF0895F5DF60933F08709340085E
:1012A0008093410890934208F1DF60933308709374
:1012B00034088093350890933608CFDF60933B085D
:1012C00070933C0880933D0890933E08CBDF609379
:1012D0003708709338088093390890933A08C7DF2D
:1012E00060934308709344088093450890934608A0
:1012F000C3DF609347087093480880934908909330
:101300004A080895CF92DF92EF92FF92CF936B013C
:101310007C01AC019B0160913B0870913C0880917D
:101320003D0890913E080E946C24C1E0882371F032
:10133000A701960160914308709144088091450887
:10134000909146080E946C248111C0E08C2FCF91AF
:10135000FF90EF90DF90CF9008950F931F938B0134
:101360009C010027112720783F770115110520489F
:101370003F4749F4AB01BC016F77772781E0452BEC
:10138000462B472B09F480E01F910F910895E5CF7C
:10139000EF92FF920F931F93CF93DF93EA01F9012E
:1013A000DC011496ED90FC90159712964D915C918E
:1013B00013974E0D5F1D2881398118960D911C9150
:1013C00019970217130730F00D911C911197012BFB
:1013D00009F441C08A01021B130BDC0118968D91A0
:1013E0009C918E199F09800F911F86179707DCF13A
:1013F000C901860F971F8417950778F4718360835E
:101400003383228315821482178216828881998100
:10141000680F791F7983688316C011830083338333
:101420002283601B710B7583648390E080E0161645
:10143000170614F49E2D8F2D96838783D701A60F50
:10144000B71FB983A88380E0DF91CF911F910F91DF
:10145000FF90EF90089518968D919C91821B930BAD
:10146000861797075CF681E0EFCFCF92DF92EF927D
:10147000FF92CF93DF936B0184E4869FE001879F07
:10148000D00D1124C95FDB4F8AA99BA9009721F0D9
:101490000E9457311BAA1AAA84E48C9DF0018D9DED
:1014A000F00D1124E95FFB4F86A997A9009711F071
:1014B0000E94573184E48C9DF0018D9DF00D112424
:1014C000E95FFB4F138A128A168A178A108E118ED3
:1014D000128E138E148E158E168E178E10A211A2D8
:1014E00081E090E093A382A315A214A216A217A2F2
:1014F00010A611A613A612A615A614A616A617A620
:1015000010AA11AA13AA12AA15AA14AA17AA16AAEF
:1015100011AE10AE12AE13AE14AE15AEDF01DE96F4
:101520001D921D921D921C921397EE5BFF4F11822C
:101530001082DF91CF91FF90EF90DF90CF900895D0
:10154000CF93DF93FB01DC016D917C91DB0116965B
:10155000CD91DC918081918123E0880F991F2A959C
:10156000E1F7AA81BB81A80FB91F8D919C911197BA
:1015700024853585220F331FEB016A817B81EB01C6
:10158000C20FD31F0990D881C02D14962D913C9184
:1015900061E070E0232B11F062E070E0C69F9001E3
:1015A000C79F300DD69F300D1124A085B1852A9F8D
:1015B000B0012B9F700D3A9F700D1124A481B5814D
:1015C0002A9FF0012B9FF00D3A9FF00D11248E0FF2
:1015D0009F1FFA019183808373836283DF91CF9190
:1015E00008952F923F924F925F926F927F928F92C7
:1015F0009F92AF92BF92CF92DF92EF92FF920F93A2
:101600001F93CF93DF9300D000D0CDB7DEB7DC01BE
:101610001496ED91FC910190F081E02D80859185EB
:101620009A838983A281B381BC83AB83FB018190C0
:101630009190A190B190C12CD12C7601C814D904FD
:10164000EA04FB04CCF026960FB6F894DEBF0FBE7A
:10165000CDBFDF91CF911F910F91FF90EF90DF9061
:10166000CF90BF90AF909F908F907F906F905F9042
:101670004F903F902F9008954480558066807780EA
:101680004085518562857385CF0140969E838D8309
:10169000A081B1819D0183E0220F331F8A95E1F77C
:1016A000A981BA8112968D919C91D901A80FB91F79
:1016B0002D903C9011970484F585E02DEE0FFF1FCF
:1016C0008B819C81E80FF91F0190F081E02D149629
:1016D0008D919C91892B41F581E090E0E89F9001EC
:1016E000E99F300DF89F300D1124249F8001259F24
:1016F000100D349F100D1124249DC001259D900DC7
:10170000349D900D1124A8016D817E81820D931D61
:101710000E94E031ED81FE81E00FF11F9FEFC91AB9
:10172000D90AE90AF90A8ACF82E090E0D7CFCF93AD
:10173000DF93DB01AE55BD4F2C91222369F024E4E9
:10174000269FF001279FF00D1124E95FFB4FEF0169
:1017500019922A95E9F71C9224E4269FF001279F0D
:10176000F00D1124E95FFB4F148215821682178257
:101770001186108613861286118A108A178616869D
:10178000DF91CF9172CE2F923F924F925F926F92E4
:101790007F928F929F92AF92BF92CF92DF92EF9201
:1017A000FF920F931F93CF93DF9300D000D01F922F
:1017B0001F92CDB7DEB724E4269FF001279FF00DDE
:1017C0001124E95FFB4F0481158126813781012BAC
:1017D000022B032B09F4B7C02A016B017C0110E036
:1017E00000E0812C912C54013F019F01285F3F4F65
:1017F0003C832B83CF0104969E838D83AB81BC8178
:101800008D919C91ED81FE81408151816281738136
:1018100084169506A606B706E4F10E945731D30157
:101820001A968D919C91892B09F07EC084E48C9D41
:10183000D0018D9DB00D1124A95FBB4FBC83AB833C
:1018400050968D919C910E945731EB81FC81868549
:1018500097850E945731C701B60107DEC701B6015F
:1018600028960FB6F894DEBF0FBECDBFDF91CF91A3
:101870001F910F91FF90EF90DF90CF90BF90AF90AE
:101880009F908F907F906F905F904F903F902F90A0
:101890004ECFFC01E00FF11F92819983A381AA83AF
:1018A0009F83A887312C212C2414350464F089816E
:1018B0009A810E945731EFEF8E1A9E0AAE0ABE0A35
:1018C0000C5F1F4F9BCFAF81B885ED91FD91B8871D
:1018D000AF83309759F0848195810E945731EF8111
:1018E000F8853297808191810E945731BFEF2B1A82
:1018F0003B0ADACF800F911FFC01848195810E9401
:1019000057312B813C812F5F3F4F3C832B83025FFC
:101910001F4FF501808191812B813C812415350574
:101920004CF30E94573182CF10E000E01C821B82F2
:1019300024E42C9DC0012D9D900D1124DC01AF5E8F
:10194000BB4F5D01E6CF28960FB6F894DEBF0FBE01
:10195000CDBFDF91CF911F910F91FF90EF90DF905E
:10196000CF90BF90AF909F908F907F906F905F903F
:101970004F903F902F90089524E4269FF001279FD9
:10198000F00D1124E95FFB4F828993890497029738
:1019900058F485E090E0938B828B8FEF9FEFDC0112
:1019A000828F938FA48FB58F08952F923F924F927D
:1019B0005F926F927F928F929F92AF92BF92CF92DF
:1019C000DF92EF92FF920F931F93CF93DF93CDB7E8
:1019D000DEB7AA970FB6F894DEBF0FBECDBF9AA3AD
:1019E00089A37E8B6D8B1A01098B1A8B2B8B3C8BF9
:1019F00084E429893A89829F6001839FD00C112455
:101A00008601095F1B4F89899A89AB89BC89F801D6
:101A100080839183A283B383AB01BC01CD01B3DE8C
:101A2000D601A55FBB4F84E0F10101900D928A952C
:101A3000E1F7F4E02F0E311C64E070E0D801149659
:101A40008D919C910E94A130F80191878087892B0C
:101A500009F0F5C04D895E8969897A898B899C89ED
:101A600092DE81E0AA960FB6F894DEBF0FBECDBF1E
:101A7000DF91CF911F910F91FF90EF90DF90CF906A
:101A8000BF90AF909F908F907F906F905F904F909E
:101A90003F902F900895A9A5BAA58D919C91E98DAD
:101AA000FA8DE80FF91FF88FEF8BD1018D919C9182
:101AB000880F991FA9A1BAA1ED91FC91E80FF91F18
:101AC00080819181EF89F88D91838083D101149673
:101AD0002D913D914D915C9117972BA33CA34DA364
:101AE0005EA362E070E08D899E890E94A130EF893B
:101AF000F88D93838283892B09F4ACCFF8E02F0E05
:101B0000311C412C512C32012BA13CA14DA15EA1D5
:101B100042165306640675069CF02B8D3C8D4D8D48
:101B20005E8D2F5F3F4F4F4F5F4F2B8F3C8F4D8F01
:101B30005E8F498D5A8D4C5F5F4F5A8F498F90C091
:101B4000610124E0C20ED11CD101ED90FC90EE0C9D
:101B5000FF1CEF89F88D82819381E80EF91E68E001
:101B600070E081E090E00E94A1308C01D7018D935C
:101B70009C93892B09F46ECF84E0F601D801019083
:101B80000D928A95E1F7B8E02B0E311CF8018081A7
:101B90009181A281B381181619061A061B06DCF47E
:101BA00064E070E00E94A130D80115969C938E935A
:101BB0001497892B09F44ECFD12CC12C812C912C58
:101BC0005401F80180819181A281B3818816990620
:101BD000AA06BB0634F0FFEF4F1A5F0A6F0A7F0AAE
:101BE00093CFF801E480F580EC0CFD1C80E1F1015D
:101BF000DE01119601900D928A95E1F7F0E12F0E2A
:101C0000311CA701BE016F5F7F4FA9A1BAA1149635
:101C10008D919C9195DCF80186819781D701129670
:101C20002D913C91820F931F97838683BFEF8B1A70
:101C30009B0AAB0ABB0AE4E0CE0ED11CC2CF1A8EBF
:101C4000198E1B8E1C8E1D8E1E8E18A30F8FA80141
:101C50004C5F5F4F58A74FA3C80108969AA789A762
:101C6000EFA1F8A580819181A281B3812B8D3C8D5C
:101C70004D8D5E8D281739074A075B070CF40BCF93
:101C80006EE070E08D899E890E94A130AF8DB8A171
:101C90001B969C938E931A97B12CA12CD12CC12CFE
:101CA000F12CE12C24E4E989FA892E9FC0012F9FB1
:101CB000900D11249C012F5E3B4F388F2F8B882471
:101CC0008394912C4D895E89C416D50654F184E421
:101CD000A989BA898A9F80018B9F100D1124095F01
:101CE0001B4FF80115861486C70133E0880F991F32
:101CF0003A95E1F70E94BB30D80151969C938E93A0
:101D00005097892B09F4A6CEC701880F991F0E940E
:101D1000BB30F80197878687892B09F49BCE80E03A
:101D2000A1CED1014D905D906D907D901D0177FC0D
:101D300091CEEF89F88D008111810A0D1B1DD8010C
:101D400011969C928E92411451046104710429F100
:101D5000C2010E94BB30F80195838483892B09F46A
:101D600079CEF8015382428284819581978386835C
:101D7000918780871386128681E090E04528462867
:101D8000472811F490E080E0E80EF91EFFEFCF1A2B
:101D9000DF0A2EE0A20EB11C95CF15961C921E9262
:101DA0001497DFCF2F923F924F925F926F927F9264
:101DB0008F929F92AF92BF92CF92DF92EF92FF925B
:101DC0000F931F93CF93DF93CDB7DEB76A970FB60C
:101DD000F894DEBF0FBECDBF9E8B8D8B49015A019B
:101DE00084E4829F7001839FF00C11249701295F86
:101DF0003B4F6901FB0180819181F901958B848BB7
:101E0000D701A35EBB4FFB01349684E001900D9295
:101E10008A95E1F7D701AF5DBB4FFB01389684E0AF
:101E200001900D928A95E1F7D701AB5DBB4FFB01A5
:101E30003C9684E001900D928A95E1F7D701AB5C66
:101E4000BB4FFB01709684E001900D928A95E1F7FB
:101E50008B010C5E1F4FF90186A597A5A0A9B1A91A
:101E600018161906DCF5880F991F880F991F0E9414
:101E7000BB30F60193AB82AB892B09F4D3C0312C74
:101E8000212C412C512C32019601225D3F4F388F7D
:101E90002F8BC601C2969A8F898FF496FC8BEB8BA1
:101EA000B301A2012FEF421A520A620A720AEF89A5
:101EB000F88D80819181A281B381481759076A0703
:101EC0007B070CF47BC0F60184A995A90E94BB3066
:101ED000F60197AB86AB892B09F4A4C0F801808189
:101EE0009181A281B38124E4289DF001299DF00D08
:101EF0001124E95FFB4FAC01BD014D7F21E030E0D3
:101F0000452B462B472B11F030E020E033A322A3D2
:101F100024E4289DF001299DF00D1124E95FFB4F79
:101F20000197A109B10921E030E00297A105B105AF
:101F300010F030E020E035A324A3D701A35DBB4F10
:101F4000F801349684E001900D928A95E1F784E4DB
:101F5000889DF001899DF00D1124E95FFB4F868D6E
:101F6000978DA0A1B1A1B7FF58C0B095A09590954D
:101F700081959F4FAF4FBF4F82AF93AFA4AFB5AF27
:101F8000168E178E10A211A280E06A960FB6F894F2
:101F9000DEBF0FBECDBFDF91CF911F910F91FF909C
:101FA000EF90DF90CF90BF90AF909F908F907F90F9
:101FB0006F905F904F903F902F900895E98DFA8D2C
:101FC000808191819C01220D331D3A8B298B80E108
:101FD000F801DE01119601900D928A95E1F7005FFC
:101FE0001F4F49895A89BE016F5F7F4FED89FE8976
:101FF00084819581A5DAEB89FC8980819181E989C9
:10200000FA8922813381820F931FEB89FC899183A6
:102010008083F4E02F0E311C43CF12AE13AE14AE0A
:1020200015AEB2CFC501B40120DA81E0AECFCF92B8
:10203000DF92EF92FF92CF93DF9310928F0424E40C
:10204000269FF001279FF00D1124E95FFB4F15A695
:1020500014A630E020E0D12CC12CDF011A96C1E09B
:10206000D0E0C416D506F4F024E4269FF001279FA3
:10207000F00D1124E95FFB4F13A612A611AE10AEAE
:10208000DF01DE961D921D921D921C92139782E035
:1020900090E0938B828BDF91CF91FF90EF90DF9058
:1020A000CF900895ED91FC911197E20FF31FE2801C
:1020B000F3801E141F0454F4E480F580F782E68256
:1020C000F186E08613861286D183C083EFEFCE1AA5
:1020D000DE0A225F3F4FC5CF24E4269FF001279FF1
:1020E000F00D1124E95FFB4F138A128A4CCB24E4D4
:1020F000269FF001279FF00D1124E95FFB4F828995
:10210000938981309105C8F08530910518F00597C5
:1021100069F008958FEF9FEFDC01828F938FA48F7A
:10212000B58F85E090E0938B828B08958FEF9FEFC2
:10213000DC01828F938FA48FB58F089524E4249FB0
:10214000D001259FB00D1124A95FBB4F2EE0AC013B
:10215000249FC001259F900D11241A96ED91FC91AA
:10216000E80FF91F81E080938F0482859385918722
:102170008087408551852681378181E090E0421734
:10218000530711F090E080E09183808308952F92AF
:102190003F924F925F926F927F928F929F92AF92F7
:1021A000BF92CF92DF92EF92FF920F931F93CF9344
:1021B000DF93CDB7DEB7C055D1090FB6F894DEBFB7
:1021C0000FBECDBF9EAF8DAF4BA75CA76DA77EA7FF
:1021D0006801790184E4809FF001819FF00D112452
:1021E000E95FFB4F2285338523963FAF2EAF2397C0
:1021F00082899389029761F486A597A5A0A9B1A9C0
:10220000892B8A2B8B2BC9F584E090E0938B828BF2
:1022100084E48C9DF0018D9DF00D1124E95FFB4F4E
:10222000828993898230910509F037C282AD93ADDE
:10223000A4ADB5AD22242394312C181619061A0624
:102240001B060CF42FC2C05BDF4F0FB6F894DEBF45
:102250000FBECDBFDF91CF911F910F91FF90EF90F7
:10226000DF90CF90BF90AF909F908F907F906F90B6
:102270005F904F903F902F900895848995894DAD40
:102280005EAD8417950721F606A917A918AE1FAAF7
:102290001BAA1CAA1DAA1EAA1F01CF018E96279653
:1022A0009FAF8EAF2797DF01D2962996BFAFAEAF13
:1022B0002997F8962B96FFAFEEAF2B9791012A5DE9
:1022C0003F4F2D963FAF2EAF2D97A1014E5D5F4F33
:1022D0002F965FAF4EAF2F970A9761969FAF8EAF45
:1022E00061972796EEADFFAD279780819181A281FE
:1022F000B3812BA93CA94DA95EA9281739074A0724
:102300005B0744F081E090E0D101D9969C938E93D5
:10231000D8977ECF2996AEADBFAD2997ED91FC91B0
:102320002FA938ADE20FF31F428153815AAF49AF55
:1023300050815FAF818121968FAF21972B96AEADF3
:10234000BFAD2B978D919C91892B21F12D96EEADF0
:10235000FFAD2D9780809180A280B3801AAB09AB2E
:102360005FA72196FFAD2197F8AB29AD3AAD369521
:1023700027953695279525963FAF2EAF25971CAE0E
:102380001BAE2596AEADBFAD2597EBADFCADEA1704
:10239000FB070CF149AD5AAD6FAD21967FAD21978A
:1023A000C8010E94E03189AD9AAD8C7F080F191FDA
:1023B0002BA93CA94DA95EA92F5F3F4F4F4F5F4FFF
:1023C0002BAB3CAB4DAB5EAB4FA958AD4C5F5F4FF9
:1023D00058AF4FAB86CF2F96AEADBFAD2F978D9137
:1023E0009C91892B71F1EFA5F8A940805180628002
:1023F0007380A3019201C501B4010E946C241816D8
:1024000064F0A9A9BAA92D913D914D915C91C501A6
:10241000B4010E94AD251816BCF1A3019201C501BB
:10242000B4010E946C2487FF0CC0E9A9FAA920819D
:10243000318142815381C501B4010E946C248823FB
:1024400019F16196AEADBFAD61978D919C91892BCD
:1024500009F445C0EFA5F8A94080518062807380DF
:10246000A3019201C501B4010E94AD2518161CF507
:10247000A9A9BAA92D913D914D915C91C501B401D5
:102480000E946C2418165CF184E48C9DF0018D9DF3
:10249000F00D1124E95FFB4F868D978DA0A1B1A1AE
:1024A000892B8A2B8B2B69F183E090E0938B828BB5
:1024B00081E090E02CC0A3019201C501B4010E940B
:1024C0006C2481110CC0E9A9FAA9208131814281D3
:1024D0005381C501B4010E946C2487FDD5CF2BAD7B
:1024E0003CAD2F5F3F4F3CAF2BAF49A95AA94C5F82
:1024F0005F4F5AAB49AB8FA598A9049698AB8FA7AD
:1025000040CF84E090E0938B828B86AD97AD93A70C
:1025100082A77ECEEBADFCAD80819181F401EE0F00
:10252000FF1FEE0FFF1FE80FF91FA081B1818C91F3
:1025300081110AC0FFEF8F1A9F0AAF0ABF0A8DA24E
:102540009EA2AFA2B8A68FC18330A1F30280F3810F
:10255000E02D2FA938ADE20FF31F808191819AAB56
:1025600089AB892B39F34F5F5F4F6F4F7F4F49879F
:102570005A876B877C879E01235E3F4FAE01475D84
:102580005F4F64E070E0C8010E94C8098111D0C1AA
:102590008D819E81AF81B8850496A11DB11D8D836B
:1025A0009E83AF83B8874D8D5E8DBE016B5D7F4F7F
:1025B0008F8D98A10E94E0318BA19CA1009761F0C2
:1025C0006D8D7E8DA5E2B0E0AC0FBD1F6A0F7B1F45
:1025D00049A15AA10E94E0311CAA1BAA412C512CEE
:1025E0003201E9A9FAA980819181A281B3814816BB
:1025F00059066A067B060CF09DCFE9A9FAA98481E9
:1026000095812BA93CA9280F391F38AB2FA7D901D9
:1026100012966D917C919E01235E3F4FAE01475D06
:102620005F4FC8010E94C809811182C1EFA5F8A9B6
:1026300082819381092E000CAA0BBB0B4D815E8118
:102640006F817885840F951FA61FB71F8D839E838A
:10265000AF83B887608171814D8D5E8D8F8D98A11C
:102660000E94E0318BA19CA1009761F0AFA5B8A9B1
:102670006D917C912D8D3E8D620F731F49A15AA1E2
:102680000E94E031BFEF4B1A5B0A6B0A7B0AEBA991
:10269000FCA93496FCABEBABA4CF312C212C0497D6
:1026A00009F0D1CD8EE0EDADFEAD8E9F80018F9F04
:1026B000100D112423962EAD3FAD2397020F131F4B
:1026C000D80112964D915C9113974115510509F46B
:1026D000BACD16968D919C919AA789A780E1FE01AB
:1026E0003196DF011D928A95E9F7C98ADA8AEB8A69
:1026F000FC8A2114310409F458C084E48C9DF00153
:102700008D9DF00D1124E95FFB4FDF01DE968D906A
:102710009D90AD90BC9082AD93ADA4ADB5AD881643
:102720009906AA06BB0609F040C0F801848195818C
:102730000084F185E02D349624E0DE015596019069
:102740000D922A95E1F72D893E89285F3F4F3E8BF8
:102750002D8BD80118966D917C911997260F371FF4
:1027600019963C932E93189718962D913C91199792
:10277000480F591F241B350B37FD06C0820F931FCE
:1027800019969C938E93189784E48C9DF0018D9DEF
:10279000F00D1124EB5BFB4FB1E08B1A9108A108FF
:1027A000B10880829182A282B3829E012B5E3F4F4C
:1027B000AE01475D5F4F64E170E0C8010E94C80947
:1027C0008111B6C08CE090E0A0E0B0E08D839E83E4
:1027D000AF83B8879E01235E3F4FAE01475D5F4FD9
:1027E00064E070E0C8010E94C8098111A1C080E1C5
:1027F00090E0A0E0B0E08D839E83AF83B8874D8DDD
:102800005E8DBE01655D7F4F8F8D98A10E94E03186
:102810008BA19CA1009761F06D8D7E8DEBE2F0E0C5
:10282000EC0FFD1F6E0F7F1F49A15AA10E94E031DE
:102830001DA21EA21FA218A62DAD3EAD220F331F52
:1028400038AF2FAB24E42C9DC0012D9D900D112499
:10285000895F9B4FAC014C5F5F4F5AAF49AFDC01C2
:102860001896BCAFABAF8DA09EA0AFA0B8A4498511
:102870005A856B857C85E9ADFAAD80819181A28115
:10288000B38188169906AA06BB060CF443CE452BE5
:10289000462B472B09F4D7CC8AE190E0A0E0B0E0CA
:1028A00089839A83AB83BC832DAD3EADC901330FC1
:1028B000AA0BBB0B8D879E87AF87B88B4D895E892E
:1028C000BE016F5F7F4F8F89988D0E94E0318B8DA5
:1028D0009C8D009761F06D897E8941E050E04C0F3E
:1028E0005D1F640F751F498D5A8D0E94E03189A5C7
:1028F0009AA5D80117969C938E93169711961C92C1
:102900001E92232809F49FCC84E48C9DF0018D9DB8
:10291000F00D1124EB5BFB4F80819181A281B3818B
:102920000196A11DB11D80839183A283B3838BCCBB
:10293000232809F088CC84E48C9DF0018D9DF00D56
:102940001124E95FFB4F81E090E095A784A785E023
:1029500090E0938B828B77CCCF92DF92EF92FF92B5
:102960000F931F9324E4269FF001279FF00D11245D
:10297000E95FFB4F228933892115310509F452C0E3
:102980006B017C0121303105B1F482A593A59C0136
:102990002F5F3F4F33A722A7092E000CAA0BBB0BBA
:1029A000028D138D248D358D80179107A207B307F3
:1029B000C9F5C7013CDB84E48C9DF0018D9DF00DD1
:1029C0001124E95FFB4F82899389039759F582A50A
:1029D00093A59C012F5F3F4F33A722A7092E000C20
:1029E000AA0BBB0B468D578D60A171A1841795076B
:1029F000A607B707BCF086AD97AD93A782A784E082
:102A000090E0938B828B82AD93ADA4ADB5AD1816DB
:102A100019061A061B0634F4EE5BFF4F81E090E0C6
:102A2000918380831F910F91FF90EF90DF90CF9063
:102A3000089524E4269FF001279FF00D1124E95FFB
:102A4000FB4F828993890497B1F482A593A50196DF
:102A500093A782A7092E000CAA0BBB0B46895789A6
:102A6000608D718D84179507A607B70721F485E05F
:102A700090E0938B828B08952F923F924F925F92BA
:102A80006F927F928F929F92AF92BF92CF92DF927E
:102A9000EF92FF920F931F93CF93DF93CDB7DEB7E3
:102AA0002E970FB6F894DEBF0FBECDBFDC01498371
:102AB0005A836B837C83290184E4849FF001859F82
:102AC000F00D1124E95FFB4F22883388C101049780
:102AD000029708F0D5C011961C921E9213961C9274
:102AE0001E92129715861486912C812C90E080E01E
:102AF0008F019F01205F3F4F38872F833F013CE0CC
:102B0000630E711CBF01625F7F4F7A8769873A96B7
:102B1000FC87EB87EF81F88520813181F3014081CB
:102B20005181E985FA85A080B180841595050CF462
:102B300045C011965C934E9313963C932E93129737
:102B40001596BC92AE921497452BF9F4F5E02F162A
:102B50003104D9F410928F04F801828D938DA48DE5
:102B6000B58DAE014F5F5F4F64E070E08F3F9F4FC8
:102B7000AF4FBF4F09F079C080E290E0D8D46981AF
:102B80007A818B819C81A201A7DA2E960FB6F894E8
:102B9000DEBF0FBECDBFDF91CF911F910F91FF9090
:102BA000EF90DF90CF90BF90AF909F908F907F90ED
:102BB0006F905F904F903F902F900895EB85FC852C
:102BC00060817181FB01E80DF91DFE87ED87608151
:102BD0007181672B89F5E084F184628173817E8342
:102BE0006D83668177816A01E3E0CC0CDD1CEA9598
:102BF000E1F72C0D3D1D440F551F4A0D5B1DFA01D9
:102C000091838083F301408151814F5F5F4F5183F6
:102C10004083F901F382E282ED85FE857387628746
:102C2000E616F70670F46E197F09F9017183608367
:102C300015821482178216820196FEE08F0E911C77
:102C400069CFED85FE85C480D5804D815E814C0DB8
:102C50005D1D4E195F09F901518340836C197D098F
:102C600075836483D782C682E7CF8FE190E05FD41B
:102C7000F80113A612A681E090E0938B828B85CF9A
:102C80001586148611961C921E9213961C921E9203
:102C900012977BCFEF92FF920F931F93CF93DF9307
:102CA0007C018B01EA011FD581111BC08091A40218
:102CB0009091A5020497F9F4DF91CF911F910F91A4
:102CC000FF90EF90089528ED38EB45E050E060E08C
:102CD00070E0CB01BED7AE01B801C701C8D7C801AB
:102CE00091D78091900490919104892BF9F6888175
:102CF000882349F3DBCF83E090E09093A502809393
:102D0000A402DACFCF93DF932091A4023091A502E1
:102D10002430310531F0EB01AAD7CE01DF91CF91FC
:102D200071C7DF91CF9108950C9435220C942A221B
:102D30000C94182277C70C94BC21089570E060E0D1
:102D400090E080E0ABC40895AF92BF92CF92DF9243
:102D5000EF92FF920F931F93CF93DF931F921F92D7
:102D6000CDB7DEB75C018B0169017A0190E080E0AC
:102D7000C114D104E104F10469F40F900F90DF91C4
:102D8000CF911F910F91FF90EF90DF90CF90BF9068
:102D9000AF9008959C2D8D2DC114D10421E0E20641
:102DA000F10410F09FEF8FEF9E012F5F3F4F492FEF
:102DB000582FB801C5010E94C5228F3F9807E9F23C
:102DC00029813A81C21AD30AE108F108020F131FC0
:102DD000CFCF40E855E260E070E090E080E00C94F6
:102DE00099021F920F920FB60F9211240BB60F92F9
:102DF0002F933F934F935F936F937F938F939F9303
:102E0000AF93BF93EF93FF938BEC93EF90932501D8
:102E1000809324010E94FF22FF91EF91BF91AF9117
:102E20009F918F917F916F915F914F913F912F91E2
:102E30000F900BBE0F900FBE0F901F9018958BEC4C
:102E400093EF9093250180932401A3E7B0E08C9148
:102E50008E7F8C93E0E2F1E080818C7F8083E1E2E1
:102E6000F1E08081877E808380818460808380819F
:102E70008C7F80838C9181608C93089581E008958C
:102E80008F929F92AF92BF92CF92DF92EF92FF927A
:102E90000F931F93CF93DF935C017B018A01C1E005
:102EA000D0E0CE15DF05CCF081E0F5018083B801DC
:102EB000C7010E946022F5019283818390E080E047
:102EC000DF91CF911F910F91FF90EF90DF90CF9006
:102ED000BF90AF909F908F9008956E018FEFC81AAA
:102EE000D80AFE01EE0FFF1FE00FF11F80809180D6
:102EF0008114910469F069E473E0C4010E94F03127
:102F0000892B41F4CC0FDD1FC00FD11F198218820D
:102F1000E601C7CF6CE473E0C4010E94F031892B55
:102F2000B9F7EC14FD04A1F36E01E2E0CE0ED11C62
:102F3000CC0FDD1FC00FD11F198218821B821A828D
:102F4000E7CF82E994E0089580E008950F931F93FE
:102F5000CF93DF938B01BA01E9011982188298019E
:102F6000012E000C440B550BFC0181819281ECDE9B
:102F7000019641F01983088380E0DF91CF911F9182
:102F80000F91089581E0F9CF0F931F93CF93DF93B3
:102F90001F921F92CDB7DEB7FB018A01B9019E01D6
:102FA0002F5F3F4FAF01FC01818192810E94772208
:102FB000019669F089819A81F8019183808380E08C
:102FC0000F900F90DF91CF911F910F91089581E0A5
:102FD000F7CFFC01808108950895089581E0FB01F9
:102FE000808380E0089508951092BA040895FC014A
:102FF000818192810C945722CF93DF9300D000D02F
:1030000000D01F92CDB7DEB7B0E0A0E089839A83ED
:10301000AB83BC83CB01770FAA0BBB0B8D839E8345
:10302000AF83B8879E01275F3F4FAE014F5F5F4F71
:1030300068E070E08091A9049091AA0487DF811173
:1030400010C081E029853A852830310509F480E0F7
:103050002A960FB6F894DEBF0FBECDBFDF91CF9199
:10306000089581E0F5CF0F931F93CF93DF931F92C5
:103070001F92CDB7DEB78B019E012F5F3F4FAC0192
:103080008091A9049091AA0461DF81110EC081E0B2
:1030900029813A812017310709F480E00F900F90C1
:1030A000DF91CF911F910F91089581E0F7CFCF93DA
:1030B000DF93EC011092AD041092AC041092B904AD
:1030C0001092B804AC0160E070E0CB0105D8AE010D
:1030D00061E070E080E090E00E946C108091A904B3
:1030E0009091AA04DF91CF917ECF4F925F926F9221
:1030F0007F928F929F92AF92BF92CF92DF92EF9288
:10310000FF920F931F93CF93DF931F921F92CDB720
:10311000DEB78C017C0197FF03C087E0E80EF11C4D
:1031200023E0F594E7942A95E1F7C80168E070E0A0
:103130000E9450306C010E5F1F4F8091A704909148
:10314000A80480179107D4F48091A5049091A60457
:10315000009731F00E9457311092A8041092A704F2
:10316000C8010E94BB309093A6048093A504892BCC
:1031700009F482C01093A8040093A70410E000E0B3
:1031800047C1412C512C3201B12CA12C9501225563
:103190003B4FAE014F5F5F4F61E070E08091A9044B
:1031A0009091AA04F1DE811149C0EFEF4E1A5E0A38
:1031B0006E0A7E0AF0E94F16FFE55F06F1E06F0642
:1031C000710444F06091B8047091B9048DEE90E000
:1031D00013DFD7CF89819A81A80EB91E8AE0A8167D
:1031E000B10409F043C049E050E070E060E08EEACD
:1031F00094E00E94F1226091B8047091B904882390
:1032000091F18091B60490E08617970781F4BC0194
:103210008EEE90E0F1DE8091B8049091B9040196B1
:1032200099279093B9048093B8040F5F1F4F0E1530
:103230001F050CF4A6CFCD2809F07CC090E080E0FB
:103240000F900F90DF91CF911F910F91FF90EF9012
:10325000DF90CF90BF90AF909F908F907F906F90B6
:103260005F904F9008958FEE90E0B2CFEAE0AE16F7
:10327000B1040CF48BCFDBCF10E000E0D8CF0A30E4
:10328000110531F549E050E070E060E08EEA94E02D
:103290000E94F1226091B8047091B9048823A9F0CA
:1032A0008091B60490E08617970741F6BC018EEE38
:1032B00090E0A2DE8091B8049091B904019699271C
:1032C0009093B9048093B804B9CF8FEE90E02BC0EF
:1032D0000A3011050CF0B2CF980122553B4FAE01D8
:1032E0004F5F5F4F61E070E08091A9049091AA0464
:1032F0004BDE8111A3CF89819A81080F191FFFEF3F
:10330000CF1ADF0AEF0AFF0A80E9C8168FE5D80650
:1033100081E0E806F1040CF4B2CF6091B80470913A
:10332000B9048DEE90E068DE10E000E0C12CD12CF5
:103330007601D2CFC12CD12C760110E000E0CCCFA9
:10334000412C512C3201B12CA12C480193E0880C66
:10335000991C9A95E1F72091A5043091A604C50126
:10336000880D991D280F391FAE014F5F5F4F61E037
:1033700070E08091A9049091AA0406DE81115ECFCD
:10338000EFEF4E1A5E0A6E0A7E0A6091B8047091E1
:10339000B9048DEE90E0F0E94F16FFE55F06F1E02D
:1033A0006F0671040CF043C089819A81A80EB91E82
:1033B0008AE0A816B10409F041C049E050E0B40128
:1033C0008091A5049091A6040E94F1226091B80416
:1033D0007091B904882349F18091A5049091A604C5
:1033E000880E991EF401808590E08617970781F476
:1033F000BC018EEE90E000DE8091B8049091B9049B
:10340000019699279093B9048093B8040F5F1F4FDA
:103410000E151F050CF494CFC114D10409F081C01E
:103420008091A5049091A6040BCF8FEE90E0E4DD8F
:10343000412C512C3201B12CA12C8DCFFAE0AF16CA
:10344000B1040CF488CFE4CF8FEE90E0D5DDF12C01
:10345000E12C812C912C5401970122553B4FAE0158
:103460004F5F5F4F61E070E08091A9049091AA04E2
:103470008BDD8111E3CE8FEF881A980AA80AB80A6B
:103480006091B8047091B9048DEE90E0E0E98E1679
:10349000EFE59E06E1E0AE06B104C4F689819A81AB
:1034A000E80EF91EFAE0EF16F104A9F549E050E044
:1034B00070E060E08EEA94E00E94F1226091B8042E
:1034C0007091B904882309F4BFCF8091B60490E0CD
:1034D0008617970709F0A4CFBC018EEE90E08CDD33
:1034E00083E0000F111F8A95E1F78091A504909168
:1034F000A604A6016EEA74E0800F911F0E94E031DD
:103500008091B8049091B904019699279093B904D9
:103510008093B80485CF8AE0E816F1040CF49CCFC0
:103520007FCF812C912C5401F12CE12C95CFCF929F
:10353000DF92EF92FF920F931F93CF93DF931F922F
:10354000CDB7DEB76C017B018A01452B39F0AB01A9
:1035500070E060E0C8010E94ED228983B701C601D6
:103560004BDD81110DC00115110551F0B701C801E6
:103570007ADD811105C061E070E0CE01019673DD56
:103580000F90DF91CF911F910F91FF90EF90DF90FF
:10359000CF900895CF92DF92EF92FF92CF93DF9377
:1035A00000D000D01F921F92CDB7DEB76B01F12C77
:1035B000E12CC982DA82EB82FC822D833E834F8329
:1035C0005887AE014F5F5F4F68E070E0B0DF28962C
:1035D0000FB6F894DEBF0FBECDBFDF91CF91FF9045
:1035E000EF90DF90CF9008958F929F92AF92BF920D
:1035F000CF92DF92EF92FF920F931F93CF93DF93BF
:103600007C01EB01CA01690170DD0097B1F42FEF75
:103610003FEFA90161E070E0C701BCDFC1E08C2F82
:10362000DF91CF911F910F91FF90EF90DF90CF909E
:10363000BF90AF909F908F900895FC0181909190E2
:10364000A190B190BF01FCE1EF16F10479F4A5015E
:103650009401CE010E94D20EC82FA50194018823A7
:1036600069F061E070E0C70195DFD9CF9501840171
:10367000AB01B601CE010E94D50CEECF70E060E048
:10368000C701DF91CF911F910F91FF90EF90DF90D5
:10369000CF90BF90AF909F908F907CCF0F931F9350
:1036A000CF93DF93EC018B014CDC9093AA048093C1
:1036B000A9040097A9F0A801BE01E2DBEC01892B67
:1036C00049F08091A9049091AA0486DC1092AA0482
:1036D0001092A904CE01DF91CF911F910F9108950F
:1036E000C8E5D3E0EECF8091A9049091AA0471CCF3
:1036F0002F923F924F925F926F927F928F929F9202
:10370000AF92BF92CF92DF92EF92FF920F931F93EF
:10371000CF93DF93CDB7DEB769970FB6F894DEBFCE
:103720000FBECDBF2091AD042223F1F05B8B4A8BFD
:103730006E877F87888B998B9A01AB01BC01CE0184
:1037400001967C0199D910E048E0242E312CE88EB6
:10375000F98E89819A81181619060CF450C211232A
:1037600019F08A899B89A3DC69960FB6F894DEBFAD
:103770000FBECDBFDF91CF911F910F91FF90EF90C2
:10378000DF90CF90BF90AF909F908F907F906F9081
:103790005F904F903F902F900895EB81FC818C8536
:1037A0009D8533E0880F991F3A95E1F7E80FF91FDF
:1037B000808191819093A4048093A3042481358116
:1037C000428153815093A2044093A10446815781C2
:1037D0005093A00440939F04820F931F9C01990F64
:1037E000440B550B2C8B3D8B4E8B5F8B812C912C7E
:1037F00054018C899D89AE89BF8988169906AA06CD
:10380000BB0638F18C859D85880F991FED81FE815F
:10381000E80FF91F4E855F856889798980819181DC
:103820000E949E10AC85BD851196BD87AC878981AD
:103830009A81EC85FD85E817F9070CF4AECF2A894B
:103840003B894E855F8568897989888D998D14D9E2
:1038500080CF1F826091A3047091A404CB01072E36
:10386000000CAA0BBB0B84017501640134E0C30E8C
:10387000D11CE11CF11CC816D906EA06FB0608F0AB
:10388000B3C02091A1043091A204A4014C5F5F4F0A
:10389000240F351FF901C080D12CF12CE12C24011B
:1038A0003501F5E04F0E511C611C711C481659067C
:1038B0006A067B0608F0A3C02091A1043091A204FF
:1038C000F8013596E20FF31F2081D22A2401350139
:1038D00026E0420E511C611C711C481659066A06EE
:1038E0007B0608F097C02091A1043091A204F80152
:1038F0003696E20FF31F2081E22A2401350137E0DA
:10390000430E511C611C711C481659066A067B0641
:1039100008F08BC02091A1043091A204F8013796E1
:10392000E20FF31F208126013701722A750164011D
:1039300048E0C40ED11CE11CF11C8C159D05AE05A0
:10394000BF0508F41DC188169906AA06BB0608F033
:1039500077C08091A1049091A204800F911F68E02C
:1039600070E081DBE091A304F091A4049F010F2E8D
:10397000000C440B550BD301C2018C0D9D1DAE1DD7
:10398000BF1D281739074A075B0708F478C0C2161D
:10399000D306E406F50608F05DC08091A10490917D
:1039A000A2049801285F3F4F820F931FB2015BDB97
:1039B0008091A3049091A404AC01092E000C660B25
:1039C000770BC416D506E606F70608F04DC0085F6B
:1039D0001F4F8091A1049091A204800F911FA2011A
:1039E00070E060E0FAD5A7C044E050E0461B570BFA
:1039F000480D591D20919F043091A00449CFE5E066
:103A0000F0E0E61BF70BE00FF11F20919F043091CF
:103A1000A00458CFE6E0F0E0E61BF70BE00FF11F43
:103A200020919F043091A00464CFE7E0F0E0E61B12
:103A3000F70BE00FF11F20919F043091A00470CF8D
:103A40009801261B370B80919F049091A004820F50
:103A5000931F85CF91012E1B3F0B200F311F8091AB
:103A60009F049091A004A0CFD101A81BB90BCD0158
:103A7000080F191F80919F049091A004AECFBF0141
:103A800068507109601B710BC216D306E406F50677
:103A900008F062C08091A1049091A2049801285F6F
:103AA0003F4F820F931FDFDA8091A3049091A4040B
:103AB000B101681B790B600F711F640D751D80913A
:103AC0009F049091A004CFDA8091A3049091A40464
:103AD000AC0148505109FA01E01BF10BAC01092E71
:103AE000000C660B770BC416D506E606F70608F041
:103AF0003DC08091A1049091A2049801285F3F4F9E
:103B0000820F931FAF0170E060E067D58F83209133
:103B1000A3043091A404F101E21BF30B9F01200FD9
:103B2000311F240D351D50E040E0682F80919F0427
:103B30009091A0043ED58F8361E070E0CE0107969E
:103B400092DA182F38E0430E511C611C711C840C52
:103B5000951CA61CB71C4DCE91012E1B3F0B200FB0
:103B6000311F80919F049091A0049BCF9101281B4D
:103B7000390B200F311F80919F049091A004C0CF7A
:103B800088169906AA06BB0668F5601B710B809122
:103B9000A1049091A204800F911F65DA8091A30483
:103BA0009091A404B101681B790B600F711F640D23
:103BB000751D80919F049091A00455DA8091A30413
:103BC0009091A404AC01092E000C660B770BC4166F
:103BD000D506E606F70608F4FACE9101281B390B44
:103BE000C90146CFC801861B970B20919F043091D5
:103BF000A004B201685F7F4F820F931FDECF1D8646
:103C00001C8615CECF93DF93EC01AC0160E070E031
:103C1000CB016EDDAE0161E070E080E090E0DF910D
:103C2000CF9166CDCF938091A9049091AA048CD9AD
:103C3000C82F81110BC060E070E0CB010E94970B90
:103C400061E070E080E090E00E94970B8C2FCF91B4
:103C500008950F931F9389019A01AB01BC018091D4
:103C6000A9049091AA04B9D91F910F9108954F9278
:103C70005F926F927F928F929F92AF92BF92CF92FC
:103C8000DF92EF92FF920F931F93CF93DF93CDB705
:103C9000DEB763970FB6F894DEBF0FBECDBF6C01E1
:103CA0008B015A018091AD04882309F43DC08091B5
:103CB000AD04882309F442C08091AC041A821982B1
:103CC000882309F4C0C0F0E94F2EFFE55F2E66247B
:103CD0006394712CF12CE12C97012B563B4FAE01D4
:103CE0004F5F5F4F61E070E08091A9049091AA045A
:103CF0004BD9982E811169C089819A81E80EF91EED
:103D0000E114F10409F461C081E0481A5108610826
:103D1000710859F56091B8047091B9048DEE90E086
:103D20006BD91A82198251C06DEA74E08091A9049E
:103D30009091AA0453D9882309F4B9CF63960FB69A
:103D4000F894DEBF0FBECDBFDF91CF911F910F91D1
:103D5000FF90EF90DF90CF90BF90AF909F908F90AB
:103D60007F906F905F904F900895AAE0EA16F1045B
:103D700009F063C049E050E070E060E085E994E05C
:103D800030D46091B8047091B904882309F452C00A
:103D900080919D0490E08617970719F6BC018EEE7E
:103DA00090E02AD988E0E5E9F4E0DE011996019077
:103DB0000D928A95E1F78091B8049091B90401962B
:103DC00099279093B9048093B80481E029813A81BE
:103DD000121613060CF080E09110CAC2882309F471
:103DE000ADCF8091AC04811104C019861A861B8660
:103DF0001C8689859A85AB85BC8580319105A10596
:103E0000B10508F09BCFFC018827E65FF04E8F4F8D
:103E10000C9485308A1F4921B8219E1E8E20C12016
:103E20007A1F821F5E1F9D218C2199219E1E9E1E3E
:103E30009E1E491F8FEE90E073CFBAE0EB16F1049F
:103E40000CF44ACFC2CFF12CE12CE8E06E2E712C9D
:103E500029E030E02C0F3D1F2E0D3F1DAE014F5FBE
:103E60005F4FB3016E197F098091A9049091AA0454
:103E70008BD8982E29813A81811109C0E20EF31E58
:103E8000E114F10421F0E8E0EE16F1040CF381E016
:103E90009FCFD6011696ED91FC9180819181A281F0
:103EA000B38189839A83AB83BC83AE014F5F5F4F3D
:103EB00064E070E085E190E03ADB40CF8D859E853F
:103EC00014D92FEF3FEFA90161E070E0009771F086
:103ED000FC01C080D180E280F380A801C701B60157
:103EE0000E941710A701960170E060E08DE190E05C
:103EF00051DB24CF4D855E859801B6018BE190E0C2
:103F000073DB1CCF4D855E852FEF3FEFB6018CE153
:103F100090E0F6CFD6011496ED91FC9100811181CD
:103F2000F80182809380A080B18070E1472E512CEF
:103F3000612C712C49825A826B827C8288E090E0ED
:103F4000A0E0B0E08D839E83AF83B8879E012F5E93
:103F50003F4FAE014F5F5F4F68E070E08091A90472
:103F60009091AA040E94A6178823D9F010E000E0DF
:103F7000C80163960FB6F894DEBF0FBECDBFDF91C8
:103F8000CF911F910F91FF90EF90DF90CF90BF9056
:103F9000AF909F908F907F906F905F904F900C9418
:103FA000573189899A89089709F7D801ED90FC90D3
:103FB000B8E0EB0EF11CEE0CFF1CEE0CFF1CC70171
:103FC0000E94BB308C01892B89F249825A826B8214
:103FD0007C82C7010F2C000CAA0BBB0B8D839E8328
:103FE000AF83B8879E012F5E3F4FAE014F5F5F4F9B
:103FF00068E070E08091A9049091AA040E94A6173D
:104000008111B6CF89899A89089709F0B1CFD60175
:104010001296ED91FC914081518162817381D801AA
:104020004D935D936D937C93139744815581668185
:10403000778114964D935D936D937C93179740858C
:1040400051856285738518964D935D936D937C932E
:104050001B9784859585A685B785F8018487958704
:10406000A687B787108A118A128A138A84E090E0A3
:10407000A0E0B0E0848B958BA68BB78B8091A402D7
:104080009091A502B0E0A0E0808F918FA28FB38FB6
:10409000C5010B2C000CAA0BBB0B848F958FA68F30
:1040A000B78FF401D801909690E080E08A159B05C7
:1040B0005CF19E012F5E3F4FA801B7018091A904DA
:1040C0009091AA040E94A617811152CF89899A89DA
:1040D000E816F90609F04CCFA70170E060E0C801CE
:1040E0007CD28B8B9E012F5E3F4FAE014D5E5F4FAA
:1040F00061E070E08091A9049091AA040E94A61743
:1041000081E08093AC0434CF4191519170E060E044
:104110004D935D936D937D930196C8CF8D859E855C
:10412000AF85B8890097A105B10521F481E080939E
:10413000AB0404CE0E947518009781F481E090E0F2
:10414000A0E0B0E089839A83AB83BC83AE014F5F6C
:104150005F4F64E070E082E190E0AECEBC01C6014A
:104160000E94F10A19821A821B821C82AE014F5FE3
:104170005F4F64E070E082E190E0D9D98823B1F22A
:10418000DDCDD6011496ED91FC910190F081E02DEA
:10419000E084F1848FEF8983E114F10409F472C0A3
:1041A000D7016D907C90C280D38070E060E090E099
:1041B00080E08615970594F083E190E00E94FC175B
:1041C00010E000E08111BACD061517055CF161E041
:1041D00070E0CE0101960E943318B0CD9C0143E0FF
:1041E000220F331F4A95E1F7F701A281B381A20F95
:1041F000B31F1296ED91FC911397EE0FFF1FEC0D7C
:10420000FD1D0190F081E02D16964D915C91E49F8B
:104210009001E59F300DF49F300D1124620F731F44
:104220000196C7CFD7011296ED91FC91C80123E00A
:10423000880F991F2A95E1F7E80FF91FA080B18038
:10424000A281B381AA0FBB1FAC0DBD1D2D913C9166
:1042500086819781289F4001299F900C389F900C60
:104260001124B401C5010E943318582E940150E066
:1042700040E06981C5019DD1898351105FCD0F5FF9
:104280001F4FA2CF70E060E083E190E00E94FC1736
:1042900055CD50E040E070E060E081E190E047D92A
:1042A00081114CCD60E070E0CB010E94BC0C80918C
:1042B0008F04882329F0A80160E070E0CB0118DAB0
:1042C000A80160E070E0CB010E94C30B61E070E0E8
:1042D00080E090E00E94BC0C80918F04882331F034
:1042E000A80161E070E080E090E002DAA80161E0FE
:1042F00070E080E090E00E94C30B1092AD04109239
:10430000AC041092B9041092B8048091A904909161
:10431000AA040E94F41712CD81E090E090939104DA
:104320008093900450E040E070E060E086E190E02F
:10433000C3CD81E0F501808301CD8D859E850E94EE
:1043400075182FEF3FEFA90161E070E0009769F069
:10435000DC01CD90DD90ED90FC90C701B6010E948C
:104360007710A701960170E060E08EE190E0C0CD8B
:10437000C8010E945718E2CCCF92DF92EF92FF92D1
:10438000CF93DF93EC01C12CD12C7601C701B6018C
:104390000E94BC0CAE01C701B601AAD9AE01C7018B
:1043A000B6010E94C30B8091A5049091A6040097CA
:1043B00031F00E9457311092A6041092A504CA94BD
:1043C000CD28CE28CF2879F58091AC04F12C882314
:1043D00051F050E040E070E060E084E190E0A7D868
:1043E000F82E1092AC048091AD04882341F0109215
:1043F000AD0481E090E09093A5028093A4028091A7
:10440000A9049091AA040E94F7178091A9049091A1
:10441000AA040E94EC178F2DDF91CF91FF90EF90AF
:10442000DF90CF900895C12CD12C7601C394AECFEC
:10443000CF93DF93EC01AC0160E070E0CB010E9410
:10444000AC14AE0161E070E080E090E0DF91CF91CC
:104450000C94AC1460E070E0CB010E94191561E08F
:1044600070E080E090E00C941915CF92DF92EF920B
:10447000FF920F931F93CF93DF93EC016A017B01AF
:1044800000E010E098010E94C71001E010E020E079
:1044900030E0B701A601CE010E94C710DF91CF9195
:1044A0001F910F91FF90EF90DF90CF90089568EEED
:1044B00073E080E090E00E949D2B90E080E0089502
:1044C00026E040E050E16EE070E081E995E00E9476
:1044D000922D81E995E00E94C82C892B29F081E971
:1044E00095E00E94E22CF5CF90E080E00895CF9215
:1044F000DF92EF92FF920F931F93CF93DF936B01A5
:104500007A01E9011982188281E995E00E94C82C9C
:10451000892B81F18601CC24C39485E6D82E809125
:10452000BA04811112C081E995E00E94E22C85361F
:104530009105A9F7C092BA04F801D1928F01888140
:104540009981019699838883EACF888199818E1514
:104550009F0580F481E995E00E94E22C8F3F980747
:10456000A1F3F80181938F01888199810196998344
:104570008883EBCF90E080E0DF91CF911F910F9186
:10458000FF90EF90DF90CF9008950F931F93CF93FC
:10459000DF93EA01890181E995E00E942230F80168
:1045A000D183C08390E080E0DF91CF911F910F9184
:1045B0000895DC01A40FB51F420F531F9D01281B56
:1045C000390B2417350710F0862F0895ED91E62753
:1045D000F0E0EE5EFE4F6491F1CF9A01AB016FEF18
:1045E000E8CFCF93FC01E60FF71FE40FF51FC08162
:1045F000F4DF91E0C81390E0892FCF910895809166
:10460000BB0491E0980F9093BB04882349F021E00C
:1046100030E03093BD042093BC048093BB04089524
:1046200078940E947003F8948091BB048150809329
:10463000BB040C949616FF920F931F93CF93DF93B6
:104640001F92CDB7DEB710924C0810924B080E9413
:10465000D32B0E94E9160091BB021091BC02F80115
:104660001182108270E060E090E080E00E949E166F
:104670000E94EB05F8947894C80186960E949D16D6
:1046800081E090E00E949A161982AE014F5F5F4F61
:1046900061E070E0F801828193810E944A1689816D
:1046A000882319F081E0F80182A70E94A316F894EC
:1046B0000E941F17F80180819181892B19F481E0F4
:1046C00092A5911180E080934B0878947894FF2410
:1046D000F39480914B08811110C00E94F10881E091
:1046E00090E00E949B16F89490E080E00F90DF919C
:1046F000CF911F910F91FF9008951982AE014F5FE6
:104700005F4F61E070E0F801828193810E94821620
:104710008981882311F0F801F2A6F8018081918146
:10472000892B89F481E092A5911101C080E08093EA
:104730004C0890914C0881E0911180E080934B08E7
:104740000E943E17C6CF81E0F2CF5058BB27AA2760
:104750000ED0C9C1BAD130F0BFD120F031F49F3FA3
:1047600011F41EF48AC10EF4E095E7FB80C1E92F35
:10477000CBD180F3BA17620773078407950718F047
:1047800071F49EF5E3C10EF4E0950B2EBA2FA02D27
:104790000B01B90190010C01CA01A0011124FF27EE
:1047A000591B99F0593F50F4503E68F11A16F040E9
:1047B000A22F232F342F4427585FF3CF46953795E8
:1047C0002795A795F0405395C9F77EF41F16BA0BAD
:1047D000620B730B840BBAF09150A1F0FF0FBB1F5B
:1047E000661F771F881FC2F70EC0BA0F621F731FA4
:1047F000841F48F4879577956795B795F7959E3F01
:1048000008F0B3CF9395880F08F09927EE0F97958E
:10481000879508955AD158F080E891E009F49EEF09
:104820005BD128F040E851E059F45EEF09C025C1A2
:104830008DC1E92FE07868D168F3092E052AC1F30C
:10484000261737074807590738F00E2E07F8E025D6
:1048500069F0E025E0640AC0EF6307F8009407FA06
:10486000DB01B9019D01DC01CA01AD01EF9345D027
:104870003AD10AD05F91552331F02BED3FE049E466
:1048800050FD49EC63CF0895DF93DD27B92FBF7743
:1048900040E85FE31616170648075B0710F4D92FA8
:1048A00060D19F938F937F936F93C5D1E4EEF0E037
:1048B000E7D019D12F913F914F915F9165D1DD23C1
:1048C00049F09058A2EA2AED3FE049EC5FE3D07846
:1048D0005D274DDFDF9107C1A6D008F481E0089580
:1048E000FBD040F0F2D030F021F45F3F19F0BFC0B0
:1048F00051112DC1C2C008D198F39923C9F3552392
:10490000B1F3951B550BBB27AA27621773078407C2
:1049100038F09F5F5F4F220F331F441FAA1FA9F378
:1049200033D00E2E3AF0E0E830D091505040E6956A
:10493000001CCAF729D0FE2F27D0660F771F881FCB
:10494000BB1F261737074807AB07B0E809F0BB0BBA
:10495000802DBF01FF2793585F4F2AF09E3F5105DE
:1049600068F085C0F4C05F3FECF3983EDCF38695B9
:1049700077956795B795F7959F5FC9F7880F911D54
:104980009695879597F90895E1E0660F771F881F40
:10499000BB1F621773078407BA0720F0621B730BF3
:1049A000840BBA0BEE1F88F7E0950895E89409C0D0
:1049B00097FB3EF490958095709561957F4F8F4F52
:1049C0009F4F9923A9F0F92F96E9BB279395F69568
:1049D000879577956795B795F111F8CFFAF4BB0FE6
:1049E00011F460FF1BC06F5F7F4F8F4F9F4F16C04A
:1049F000882311F096E911C0772321F09EE8872FD4
:104A0000762F05C0662371F096E8862F70E060E08F
:104A10002AF09A95660F771F881FDAF7880F969508
:104A2000879597F90895990F0008550FAA0BE0E8AC
:104A3000FEEF16161706E807F907C0F01216130660
:104A4000E407F50798F0621B730B840B950B39F4A0
:104A50000A2661F0232B242B252B21F408950A2606
:104A600009F4A140A6958FEF811D811D089597F946
:104A70009F6780E870E060E008959FEF80EC089504
:104A8000DF93CF931F930F93FF92EF92DF927B01FF
:104A90008C01689405C0DA2EEF0176D0FE01E8940F
:104AA000A5912591359145915591AEF3EF015FDECA
:104AB000FE019701A801DA9479F7DF90EF90FF905B
:104AC0000F911F91CF91DF91089500240A9416163B
:104AD000170618060906089500240A9412161306EC
:104AE000140605060895092E0394000C11F488237A
:104AF00052F0BB0F40F4BF2B11F460FF04C06F5F96
:104B00007F4F8F4F9F4F089557FD9058440F551F6B
:104B100059F05F3F71F04795880F97FB991F61F03F
:104B20009F3F79F087950895121613061406551FB6
:104B3000F2CF4695F1DF08C0161617061806991F22
:104B4000F1CF86957105610508940895E894BB2717
:104B500066277727CB0197F9089565DF08F48FEF73
:104B600008959B01AC0160E070E080E89FE366C0BF
:104B70000BD0B9CFAADF28F0AFDF18F0952309F0EA
:104B800076CF7BCF1124E3CFBFDFA0F3959FD1F386
:104B9000950F50E0551F629FF001729FBB27F00DEB
:104BA000B11D639FAA27F00DB11DAA1F649F662740
:104BB000B00DA11D661F829F2227B00DA11D621F8F
:104BC000739FB00DA11D621F839FA00D611D221F49
:104BD000749F3327A00D611D231F849F600D211D2D
:104BE000822F762F6A2F11249F5750408AF0E1F0D0
:104BF00088234AF0EE0FFF1FBB1F661F771F881F19
:104C000091505040A9F79E3F510570F030CF9FCF93
:104C10005F3FECF3983EDCF3869577956795B79503
:104C2000F795E7959F5FC1F7FE2B880F911D96952D
:104C3000879597F908959B01AC019ACF5CDE53CF1D
:104C400090E080E008958091F2049091F304891B34
:104C5000990B08959091F3048091F2042FEF3FEFA8
:104C6000981748F4E92FF0E0EC50FB4F208130E03A
:104C70009F5F9093F304C9010895E091F30480913C
:104C8000F204E81730F4F0E0EC50FB4F808190E044
:104C900008958FEF9FEF08950895CF93DF93EC0170
:104CA000E091CA04F091CB043097F1F09091F304B5
:104CB0008091F2049817C0F090E0292F30E0261779
:104CC000370754F4DE01A20FB31F4C912C503B4F19
:104CD000D9014C939F5FF1CF1092F3046093F204DB
:104CE000CB01DF91CF911994DF91CF910895E0919D
:104CF000CC04F091CD04309729F01092D00410929A
:104D0000CF0419940895CF93DF931F92CDB7DEB7E8
:104D100069832091CE042223F9F02091CF04203220
:104D200058F021E030E0FC013383228390E080E002
:104D30000F90DF91CF9108958091D004E82FF0E09B
:104D4000EF52FB4F998190838F5F8093D0048093C3
:104D5000CF0481E090E0ECCF61E0CE01019607D175
:104D6000F8CFCF92DF92EF92FF920F931F93CF93E2
:104D7000DF937C01CB018A012091CE04222389F0AC
:104D8000EB016B01C40ED51ECC15DD0561F06991F8
:104D9000D701ED91FC910190F081E02DC7011995AB
:104DA000F3CF642FE4D0C801DF91CF911F910F9111
:104DB000FF90EF90DF90CF9008951092F30410923F
:104DC000F2041092D0041092CF0497D087E796E2B5
:104DD000FAD08DE496E2F2C0CB01BA01B5C081E011
:104DE0008093CE046093F1041092D0041092CF040B
:104DF00008950F93062F21E04091CF0461ED74E0F8
:104E00008091F104DCD11092D0041092CF04109262
:104E1000CE040F9108954F925F926F927F92AF925E
:104E2000BF92CF92EF92FF920F931F93CF93DF9396
:104E30005C01F62ED42F28013901EE2009F1CFDFD5
:104E4000CE2DC43008F0C3E0C150B8F028E0C29FB6
:104E5000C0011124A301920104C0569547953795CE
:104E600027958A95D2F7B901D501ED91FC91019072
:104E7000F081E02DC5011995E7CF60E0C501B9DFEC
:104E80004D2FD13208F040E22C2D64EF74E08F2DCD
:104E9000B9D01092F3048093F204DF91CF911F9167
:104EA0000F91FF90EF90CF90BF90AF907F906F9059
:104EB0005F904F900895CF92EF920F931F93C22E61
:104EC000E12C00E010E09801A6DF1F910F91EF9018
:104ED000CF90089521E0EFCFEEEBF4E01382128241
:104EE00088EE93E0A0E0B0E084839583A683B78347
:104EF00087E993E09183808308951092870581E08C
:104F0000809385051092840561E084E114D561E009
:104F100085E111D5E9EBF0E080818E7F808380818F
:104F20008D7F808388E48093B80085E48093BC0003
:104F30000895ECEBF0E080818A7B808360E084E17F
:104F4000FAD460E085E1F7C49B01AC0160E074E253
:104F500084EF90E00E9463302051310941095109EA
:104F600056954795379527952093B8000895209139
:104F70003605260F3327331F21323105ECF42091FB
:104F80008705FC0190E080E0243069F082E008951C
:104F9000A09136052191AC01485C5A4FA40FB52F62
:104FA000B11D2C930196861798F380913605680FF2
:104FB0006093360580E0089581E0089590937B0525
:104FC00080937A05089590937D0580937C050895DC
:104FD00085EC8093BC00109287050895CF93DF93F2
:104FE00091E090937F05882351F0C091B800D09153
:104FF000BA009FDF82DFD093BA00C093B800DF9180
:10500000CF9108954F925F926F927F928F929F926D
:10501000AF92BF92CF92DF92EF92FF920F931F93C6
:10502000CF93DF93D82F162F072FC42FB22E4132E4
:1050300008F09DC05DD36B017C01809187058111D3
:1050400073C081E080938705B09285059FEF9093B0
:105050001405109259059C0F90935805809386056E
:1050600080918605DD0FD82BD0938605809184052D
:10507000813009F07EC0109284053AD36B017C0127
:10508000809186058093BB00809180059091810579
:10509000A0918205B0918305892B8A2B8B2B99F0E7
:1050A00027D38090800590908105A0908205B090D4
:1050B00083056C197D098E099F0986169706A80637
:1050C000B90608F451C08091BC0083FDD9CF85ECAE
:1050D0008093BC000DD36B017C01809187058130EA
:1050E00009F449C0809159058C1710F4C0915905F5
:1050F000AAE5B5E0912FE12FF02F8E2F891B8C1799
:1051000008F45AC08C2FDF91CF911F910F91FF901F
:10511000EF90DF90CF90BF90AF909F908F907F9057
:105120006F905F904F9008958091800590918105D8
:10513000A0918205B0918305892B8A2B8B2B09F4D2
:105140007CCFD6D24090800550908105609082053A
:10515000709083056C197D098E099F0946165706C4
:105160006806790608F069CF80917E0537DFC0E0D8
:10517000C9CF85EEADCF8091800590918105A0913A
:105180008205B0918305892B8A2B8B2B09F4A5CF3F
:10519000AFD28090800590908105A0908205B0905C
:1051A00083056C197D098E099F0986169706A80646
:1051B000B90608F092CFD8CF8D9181939ECF4F92B0
:1051C0005F926F927F928F929F92AF92BF92EF9277
:1051D000FF920F931F93CF93DF93413208F0D2C019
:1051E000F22ED42FE72E162FC82F82D24B015C014E
:1051F0008091870581116DC082E0809387050093BF
:1052000085058FEF8093140510925905D0935805AA
:10521000912FAAE5B5E0E12FFE2D8E2F891B8D176A
:1052200008F48AC01092860580918605CC0FC82BA1
:10523000C093860580918405813009F080C010926A
:10524000840556D24B015C01809186058093BB009A
:105250008091800590918105A0918205B091830590
:10526000892B8A2B8B2B99F043D2009180051091CA
:1052700081052091820530918305681979098A0991
:105280009B09061717072807390708F442C08091C1
:10529000BC0083FDD9CF85EC8093BC0029D24B01A3
:1052A0005C01FF2029F080918705823009F449C014
:1052B000809114058F3F09F467C0809114058032F6
:1052C00009F464C080911405803309F461C084E05E
:1052D00024C08091800590918105A0918205B091B4
:1052E0008305892B8A2B8B2B09F482CF01D2409026
:1052F0008005509081056090820570908305681943
:1053000079098A099B09461657066806790608F046
:105310006FCF80917E0562DE85E0DF91CF911F9196
:105320000F91FF90EF90BF90AF909F908F907F90E4
:105330006F905F904F90089581918D936ECF85EE21
:10534000ABCF8091800590918105A0918205B091AD
:105350008305892B8A2B8B2B09F4A3CFC9D100910C
:10536000800510918105209182053091830568198F
:1053700079098A099B09061717072807390708F0D2
:1053800090CFC7CF81E0C9CF80E0C7CF82E0C5CF43
:1053900083E0C3CF85ED8093BC0080918005909120
:1053A0008105A0918205B09183050796A11DB11DCD
:1053B00023E0B695A795979587952A95D1F72091E3
:1053C000BC0024FD03C0109287050895409180051C
:1053D000509181056091820570918305452B462B84
:1053E000472B69F30097A105B10541F025E32A9504
:1053F000F1F700000197A109B109E1CF80917E0585
:10540000EDCD1F920F920FB60F9211240BB60F9293
:105410002F933F934F935F936F937F938F939F93BC
:10542000AF93BF93EF93FF938091B900887F80364D
:1054300009F44CC008F03FC0883209F4A8C028F530
:10544000803109F49CC0C8F4882309F4F8C088307E
:1054500009F495C0FF91EF91BF91AF919F918F910A
:105460007F916F915F914F913F912F910F900BBE64
:105470000F900FBE0F901F901895883109F487C0C8
:10548000803241F78093140514C0803409F49CC025
:1054900040F48033B9F38833E9F68093140598DD3E
:1054A000D9CF803509F484C0883509F495C0883493
:1054B00089F670DFCFCF883909F48CC038F588378A
:1054C00029F050F4883611F0803721F683E080937C
:1054D00087051092150557C0883809F47BC08039BC
:1054E00019F0803809F0B6CF80911505803208F0A8
:1054F00071C0E091150581E08E0F809315058091B4
:10550000BB00F0E0EA5EFA4F80833DC0803B39F09B
:10551000E0F4803A09F479C0883A09F09BCF84E03E
:10552000809387051092370510923605E0917C052F
:10553000F0917D0519958091360581110FC081E0AC
:10554000809336051092380509C0803C09F475C077
:10555000883C09F472C0883B09F07CCFE0913705A4
:1055600081E08E0F80933705F0E0E85CFA4F808190
:105570008093BB00909137058091360529C08091BA
:1055800086058093BB0085EC8093BC0063CF90912F
:10559000590580915805981758F5E091590581E013
:1055A0008E0F80935905F0E0E65AFA4F8081E9CFDB
:1055B000E091590581E08E0F809359058091BB00E1
:1055C000F0E0E65AFA4F8083909159058091580592
:1055D0009817C8F285E8D8CFE091590581E08E0F81
:1055E000809359058091BB00F0E0E65AFA4F808322
:1055F0008091850581115DCF81E08093840584EAE7
:105600008093BC001092870525CFE2DC80911505C0
:10561000803230F4E0911505F0E0EA5EFA4F108236
:105620006091150570E0E0917A05F0917B0586E1C7
:1056300095E01995109215050DCF85ECE1CF1092EC
:10564000140537CF1F920F920FB60F9211242F938C
:105650003F938F939F93AF93BF93809189059091D0
:105660008A05A0918B05B0918C053091880523E0C7
:10567000230F2D3758F50196A11DB11D20938805E4
:105680008093890590938A05A0938B05B0938C0530
:1056900080918D0590918E05A0918F05B091900518
:1056A0000196A11DB11D80938D0590938E05A09349
:1056B0008F05B0939005BF91AF919F918F913F91CE
:1056C0002F910F900FBE0F901F90189526E8230F73
:1056D0000296A11DB11DD2CF2FB7F8946091890514
:1056E00070918A0580918B0590918C052FBF08954C
:1056F0003FB7F89480918D0590918E05A0918F050C
:10570000B091900526B5A89B05C02F3F19F00196D2
:10571000A11DB11D3FBFBA2FA92F982F8827BC010B
:10572000CD01620F711D811D911D42E0660F771F33
:10573000881F991F4A95D1F708958F929F92AF9233
:10574000BF92CF92DF92EF92FF926B017C01D0DF8C
:105750004B015C01C114D104E104F104D9F09FD4E0
:10576000C7DF681979098A099B09683E734081057A
:10577000910580F321E0C21AD108E108F10888EE12
:10578000880E83E0981EA11CB11CC114D104E10451
:10579000F10431F7FF90EF90DF90CF90BF90AF9082
:1057A0009F908F900895789484B5826084BD84B56D
:1057B000816084BD85B5826085BD85B5816085BD0C
:1057C000EEE6F0E0808181608083E1E8F0E0108225
:1057D000808182608083808181608083E0E8F0E066
:1057E000808181608083E1EBF0E080818460808350
:1057F000E0EBF0E0808181608083E1E9F0E080818E
:1058000082608083808181608083E0E9F0E0808134
:1058100081608083E1EAF0E0808182608083808122
:1058200081608083E0EAF0E0808181608083E1E252
:10583000F1E0808182608083808181608083E0E20A
:10584000F1E0808181608083EAE7F0E0808184601C
:105850008083808182608083808181608083808179
:10586000806880831092C10008958150823108F0D1
:1058700059C0E82FF0E08827E05CF34D8F4F45C416
:10588000602C642C522C582C5C2C922C672C6D2C88
:10589000712C772C7B2C7F2C852C892C922C8D2C99
:1058A000932C972C809180008F77809380000895AF
:1058B000809180008F7DF9CF80918000877FF5CF28
:1058C00084B58F7784BD089584B58F7DFBCF80919B
:1058D000B0008F778093B00008958091B0008F7DE5
:1058E000F9CF809190008F778093900008958091F8
:1058F00090008F7DF9CF80919000877FF5CF8091C8
:10590000A0008F778093A00008958091A0008F7DE4
:10591000F9CF8091A000877FF5CF809120018F770C
:10592000809320010895809120018F7DF9CF80918F
:105930002001877FF5CF1F93CF93DF93282F30E08F
:10594000F901EE5EFD4F8491F901E85AFD4FD491C3
:10595000F901E256FD4FC491CC23A1F0162F81111D
:1059600084DFEC2FF0E0EE0FFF1FEC51FD4FA5910F
:10597000B4918FB7F894EC91111108C0D095DE2343
:10598000DC938FBFDF91CF911F910895DE2BF8CF6D
:10599000FC01918D228D892F90E0805C9F4F821BAE
:1059A00091098F7399270895FC01918D828D981725
:1059B00031F0828DE80FF11D858D90E008958FEF15
:1059C0009FEF0895FC01918D828D981761F0A28D53
:1059D000AE0FBF2FB11D5D968C91928D9F5F9F730F
:1059E000928F90E008958FEF9FEF0895FC01538D03
:1059F000448D252F30E0842F90E0821B930B5417A9
:105A000010F0CF96089501970895FC01A48DA80F7A
:105A1000B92FB11DA35ABF4F2C91848D90E00196F0
:105A20008F739927848FA689B7892C93A089B18910
:105A30008C91837080648C93938D848D981306C0B1
:105A40000288F389E02D80818F7D80830895CF9334
:105A5000DF93EC01888D8823B1F0AA89BB89E8899E
:105A6000F9898C9185FD03C0808186FD0CC00FB63D
:105A700007FCF7CF8C9185FFF2CF808185FFEDCFBA
:105A8000CE01C3DFEACFDF91CF910895EF92FF926D
:105A90000F931F93CF93DF93EC0181E0888F9B8D51
:105AA0008C8D98131AC0E889F989808185FF15C00B
:105AB0009FB7F894EE89FF896083E889F98980812E
:105AC0008370806480839FBF81E090E0DF91CF91FD
:105AD0001F910F91FF90EF900895F62E0B8D10E01F
